{"contracts/PokerGame.sol":{"PokerGame":{"abi":[{"inputs":[],"stateMutability":"nonpayable","type":"constructor"},{"anonymous":false,"inputs":[{"indexed":false,"internalType":"uint256","name":"gameId","type":"uint256"},{"indexed":false,"internalType":"address","name":"player","type":"address"}],"name":"CardsDecrypted","type":"event"},{"anonymous":false,"inputs":[{"indexed":false,"internalType":"uint256","name":"gameId","type":"uint256"},{"indexed":false,"internalType":"address","name":"player","type":"address"}],"name":"CardsSelected","type":"event"},{"anonymous":false,"inputs":[{"indexed":false,"internalType":"uint256","name":"gameId","type":"uint256"},{"indexed":false,"internalType":"uint8","name":"count","type":"uint8"}],"name":"CommunityCardsDealt","type":"event"},{"anonymous":false,"inputs":[{"indexed":false,"internalType":"uint256","name":"gameId","type":"uint256"},{"indexed":false,"internalType":"address","name":"player","type":"address"}],"name":"DeckEncrypted","type":"event"},{"anonymous":false,"inputs":[{"indexed":false,"internalType":"uint256","name":"gameId","type":"uint256"},{"indexed":false,"internalType":"address","name":"player","type":"address"}],"name":"DeckSorted","type":"event"},{"anonymous":false,"inputs":[{"indexed":false,"internalType":"uint256","name":"gameId","type":"uint256"}],"name":"GameCreated","type":"event"},{"anonymous":false,"inputs":[{"indexed":false,"internalType":"uint256","name":"gameId","type":"uint256"},{"indexed":false,"internalType":"uint256","name":"timestamp","type":"uint256"}],"name":"NewRound","type":"event"},{"anonymous":false,"inputs":[{"indexed":false,"internalType":"uint256","name":"gameId","type":"uint256"},{"indexed":false,"internalType":"address","name":"player","type":"address"},{"indexed":false,"internalType":"uint256","name":"amount","type":"uint256"}],"name":"PlayerBet","type":"event"},{"anonymous":false,"inputs":[{"indexed":false,"internalType":"uint256","name":"gameId","type":"uint256"},{"indexed":false,"internalType":"address","name":"player","type":"address"}],"name":"PlayerFolded","type":"event"},{"anonymous":false,"inputs":[{"indexed":false,"internalType":"uint256","name":"gameId","type":"uint256"},{"indexed":false,"internalType":"address","name":"player","type":"address"}],"name":"PlayerJoined","type":"event"},{"inputs":[],"name":"MAX_PLAYERS","outputs":[{"internalType":"uint8","name":"","type":"uint8"}],"stateMutability":"view","type":"function"},{"inputs":[],"name":"TURN_TIME","outputs":[{"internalType":"uint256","name":"","type":"uint256"}],"stateMutability":"view","type":"function"},{"inputs":[],"name":"buyInAmount","outputs":[{"internalType":"uint256","name":"","type":"uint256"}],"stateMutability":"view","type":"function"},{"inputs":[],"name":"createNewGame","outputs":[],"stateMutability":"nonpayable","type":"function"},{"inputs":[],"name":"currentGameId","outputs":[{"internalType":"uint256","name":"","type":"uint256"}],"stateMutability":"view","type":"function"},{"inputs":[{"internalType":"uint256","name":"gameId","type":"uint256"}],"name":"dealCommunityCards","outputs":[],"stateMutability":"nonpayable","type":"function"},{"inputs":[{"internalType":"uint8[2]","name":"decryptedCards","type":"uint8[2]"},{"internalType":"address","name":"forPlayer","type":"address"}],"name":"decryptCards","outputs":[],"stateMutability":"nonpayable","type":"function"},{"inputs":[{"internalType":"uint256","name":"gameId","type":"uint256"},{"internalType":"uint8[]","name":"decryptedCards","type":"uint8[]"}],"name":"decryptCommunityCards","outputs":[],"stateMutability":"nonpayable","type":"function"},{"inputs":[{"internalType":"uint256","name":"gameId","type":"uint256"},{"internalType":"uint8[2]","name":"_encryptedCards","type":"uint8[2]"}],"name":"encryptCards","outputs":[],"stateMutability":"nonpayable","type":"function"},{"inputs":[{"internalType":"uint256","name":"gameId","type":"uint256"}],"name":"fold","outputs":[],"stateMutability":"nonpayable","type":"function"},{"inputs":[{"internalType":"uint256","name":"","type":"uint256"}],"name":"games","outputs":[{"internalType":"uint256","name":"pot","type":"uint256"},{"internalType":"uint256","name":"currentBet","type":"uint256"},{"internalType":"uint8","name":"currentPlayer","type":"uint8"},{"internalType":"uint256","name":"roundDeadline","type":"uint256"},{"internalType":"enum PokerGame.GamePhase","name":"phase","type":"uint8"},{"internalType":"address","name":"firstPlayer","type":"address"},{"internalType":"uint256","name":"lastBetAmount","type":"uint256"},{"internalType":"uint8","name":"communityCardsDealt","type":"uint8"},{"internalType":"uint8","name":"numPlayers","type":"uint8"},{"internalType":"uint256","name":"encryptionSeed","type":"uint256"}],"stateMutability":"view","type":"function"},{"inputs":[],"name":"getCurrentGameId","outputs":[{"internalType":"uint256","name":"","type":"uint256"}],"stateMutability":"view","type":"function"},{"inputs":[{"internalType":"uint256","name":"gameId","type":"uint256"}],"name":"getGameBasicState","outputs":[{"internalType":"uint256","name":"pot","type":"uint256"},{"internalType":"uint256","name":"currentBet","type":"uint256"},{"internalType":"uint8","name":"currentPlayer","type":"uint8"},{"internalType":"uint256","name":"roundDeadline","type":"uint256"},{"internalType":"enum PokerGame.GamePhase","name":"phase","type":"uint8"},{"internalType":"address","name":"firstPlayer","type":"address"},{"internalType":"uint256","name":"lastBetAmount","type":"uint256"},{"internalType":"uint8","name":"communityCardsDealt","type":"uint8"},{"internalType":"uint8","name":"numPlayers","type":"uint8"}],"stateMutability":"view","type":"function"},{"inputs":[{"internalType":"uint256","name":"gameId","type":"uint256"}],"name":"getGameCommunityCards","outputs":[{"internalType":"uint256[]","name":"","type":"uint256[]"}],"stateMutability":"view","type":"function"},{"inputs":[{"internalType":"uint256","name":"gameId","type":"uint256"}],"name":"getGameEncryptedDeck","outputs":[{"internalType":"uint256[]","name":"","type":"uint256[]"}],"stateMutability":"view","type":"function"},{"inputs":[{"internalType":"uint256","name":"gameId","type":"uint256"}],"name":"getGameFlopCards","outputs":[{"internalType":"uint256[]","name":"","type":"uint256[]"}],"stateMutability":"view","type":"function"},{"inputs":[{"internalType":"uint256","name":"gameId","type":"uint256"}],"name":"getGamePlayerCards","outputs":[{"internalType":"uint256[]","name":"firstPlayerCards","type":"uint256[]"},{"internalType":"uint256[]","name":"secondPlayerCards","type":"uint256[]"}],"stateMutability":"view","type":"function"},{"inputs":[{"internalType":"uint256","name":"gameId","type":"uint256"}],"name":"getNumberOfPlayers","outputs":[{"internalType":"uint256","name":"","type":"uint256"}],"stateMutability":"view","type":"function"},{"inputs":[{"internalType":"address","name":"player","type":"address"}],"name":"getPlayerGameId","outputs":[{"internalType":"uint256","name":"","type":"uint256"}],"stateMutability":"view","type":"function"},{"inputs":[{"internalType":"address","name":"player","type":"address"}],"name":"isFirstPlayer","outputs":[{"internalType":"bool","name":"","type":"bool"}],"stateMutability":"view","type":"function"},{"inputs":[{"internalType":"address","name":"playerAddress","type":"address"}],"name":"isPlayerInGame","outputs":[{"internalType":"bool","name":"","type":"bool"}],"stateMutability":"view","type":"function"},{"inputs":[{"internalType":"uint256","name":"gameId","type":"uint256"}],"name":"joinGame","outputs":[],"stateMutability":"payable","type":"function"},{"inputs":[{"internalType":"uint256","name":"gameId","type":"uint256"}],"name":"placeBet","outputs":[],"stateMutability":"payable","type":"function"},{"inputs":[{"internalType":"address","name":"","type":"address"}],"name":"playerGameId","outputs":[{"internalType":"uint256","name":"","type":"uint256"}],"stateMutability":"view","type":"function"},{"inputs":[{"internalType":"uint256","name":"gameId","type":"uint256"},{"internalType":"uint8[2]","name":"_firstPlayerCards","type":"uint8[2]"},{"internalType":"uint8[2]","name":"_secondPlayerCards","type":"uint8[2]"},{"internalType":"uint8[5]","name":"_flopCards","type":"uint8[5]"},{"internalType":"uint256","name":"_encryptionSeed","type":"uint256"}],"name":"selectCards","outputs":[],"stateMutability":"nonpayable","type":"function"},{"inputs":[{"internalType":"uint256","name":"gameId","type":"uint256"},{"internalType":"uint8[2]","name":"_selectedIndices","type":"uint8[2]"}],"name":"selectOwnCards","outputs":[],"stateMutability":"nonpayable","type":"function"},{"inputs":[{"internalType":"uint256","name":"gameId","type":"uint256"},{"internalType":"uint256[]","name":"_encryptedDeck","type":"uint256[]"}],"name":"submitEncryptedDeck","outputs":[],"stateMutability":"nonpayable","type":"function"},{"inputs":[{"internalType":"uint256","name":"gameId","type":"uint256"},{"internalType":"uint8[52]","name":"_sortedDeck","type":"uint8[52]"}],"name":"submitSortedDeck","outputs":[],"stateMutability":"nonpayable","type":"function"}],"evm":{"bytecode":{"linkReferences":{},"object":"6080806040523461008357670de0b6b3a76400006002556001808055600081815260209081527fada5013122d395ba3c54772283fb069b10426056ef8ca54750cb9bb552a59e82805460ff191690559082527fbd19c47e9925eb6f7be8bb1c13a841e0240aaeaf17f217e90022e9c8eb66877f91a1604051612ef190816100898239f35b600080fdfe6080604052600436101561001257600080fd5b60003560e01c8063041eb141146121e05780630bbac290146120095780630dafa3fd14611da857806310fe7c4814611986578063117a5b90146118da5780631e8200311461167657806325b05c881461134057806333d934171461157a5780634411b3eb1461155e578063536a3ddc1461128e578063548362871461152b578063574a5b201461150857806362436d9d146114d9578063642f81281461140757806366656eff146113a757806371a2e89c1461137a578063773b549d14611340578063844973b4146112ac578063a26354011461128e578063a8aad94d14611271578063b919cf16146111d0578063bff7a00b14610e3e578063c2cb4b3814610e1b578063d165dac214610e20578063db6371b214610e1b578063eb87eb5e14610e02578063efaa55a014610a575763f312bcb81461015057600080fd5b34610a52576040366003190112610a52576004356024803567ffffffffffffffff8111610a525736602382011215610a525780600401356101986101938261293e565b61275a565b818152602092600592831b810185019084830190368311610a525786869101915b838310610a3a57505050506101d56101d033612a09565b612a91565b336000526003938484526101ef8660406000205414612acb565b856000526000845260ff8084604060002001541692600b9384811015610660576004148015610a17575b80156109f4575b61022990612bfd565b87600052600086528185604060002001541684811015610660576004036107655786815103610721578760005260008652600f60406000200133600052865281604060002054166106e457876000526000865260018060a01b03856040600020015460081c163314610675575b508660005260008552600f6040600020013360005285526040600020600160ff198254161790555b600087600052600086528185604060002001541684811015610660576004036104f85750600087815280865260408082208681015460081c6001600160a01b039081168452600f9091018852912054821690816104c3575b50806104a4575b610349575b60408051888152336020820152600080516020612e7c83398151915291819081015b0390a1005b8660005260008552808460406000200154168381101561048f576004036103c157505050600261034493600086948194600080516020612e7c8339815191529883528282528060408420019060ff198254161790555b8582525260408320908101805460ff1916600117905501559138808080610322565b8660005260008552808460406000200154168381101561048f5760060361041b57505050600261034493600086948194600080516020612e7c8339815191529883528282526040832001600760ff1982541617905561039f565b86600052600085528360406000200154169182101561047b5750610344936000600080516020612e7c8339815191529694819460086002951461045f575b5061039f565b8683528282526040832001805460ff1916600917905538610459565b634e487b7160e01b60009081526021600452fd5b82634e487b7160e01b60005260216004526000fd5b876000526000865260076040600020018760ff1982541617905561031d565b600f915088600052600087526040600020906104e1600d83016129bb565b505416600052018552806040600020541638610316565b87600052600086528185604060002001541684811015610660576006036105af5750600087815280865260408082208681015460081c6001600160a01b039081168452601090910188529120548216908161057a575b508061055a575b61031d565b87600052600086526007604060002001600460ff1982541617905561031d565b601091508860005260008752604060002090610598600d83016129bb565b50541660005201855280604060002054163861054e565b876000526000865281856040600020015416848110156106605760080361031d5750600087815280865260408082208681015460081c6001600160a01b039081168452601190910188529120548216908161062b575b50801561055557876000526000865260076040600020018560ff1982541617905561031d565b601191508860005260008752604060002090610649600d83016129bb565b505416600052018552806040600020541638610605565b83634e487b7160e01b60005260216004526000fd5b919295909360005b858116838110156106d65790866106976106d19387612c4d565b51168a600052600089526106ca6106b2836040600020612c61565b819391549060ff809160031b9316831b921b19161790565b9055612b84565b61067d565b505093909592915038610296565b60405162461bcd60e51b815260048101879052601681850152750416c72656164792064656372797074656420666c6f760541b6044820152606490fd5b60405162461bcd60e51b8152600481018790526018818501527f496e76616c696420666c6f7020636172647320636f756e7400000000000000006044820152606490fd5b87600052600086528185604060002001541684811015610660576006036108a55760018151036108615787600052600086526010604060002001336000528652816040600020541661082457876000526000865260018060a01b03856040600020015460081c1633146107f4575b5060406000818120338252601001875220805460ff191660011790556102be565b6107fd90612c40565b51876000526000865260406000209063ff00000080198354169160181b16179055386107d3565b60405162461bcd60e51b8152600481018790526016818501527520b63932b0b23c903232b1b93cb83a32b2103a3ab93760511b6044820152606490fd5b60405162461bcd60e51b8152600481018790526017818501527f496e76616c6964207475726e206361726420636f756e740000000000000000006044820152606490fd5b87600052600086528185604060002001541684811015610660576008146108cd575b506102be565b60018151036109b05787600052600086526011604060002001336000528652816040600020541661096c57876000526000865260018060a01b03856040600020015460081c16331461093c575b5060406000818120338252601101875220805460ff19166001179055386108c7565b61094590612c40565b51876000526000865260406000209064ff00000000801983541691881b161790553861091a565b60405162461bcd60e51b8152600481018790526017818501527f416c7265616479206465637279707465642072697665720000000000000000006044820152606490fd5b60405162461bcd60e51b8152600481018790526018818501527f496e76616c6964207269766572206361726420636f756e7400000000000000006044820152606490fd5b508760005260008652818560406000200154168481101561066057600814610220565b508760005260008652818560406000200154168481101561066057600614610219565b8190610a4584612780565b81520191019085906101b9565b600080fd5b602080600319360112610a525760043560029182543403610dbe57816000526000815282600d604060002001541015610d8b57610a9333612a09565b610d5357816000526000815260ff908160056040600020015416600b811015610d3d57610d0657604080519267ffffffffffffffff91840182811185821017610cf057604052600084526000838501526040519160c083019083821090821117610cf05760405233825282820134815260408301916001958684526060850190815260808501946000865260a0810194600086528960005260008852600d6040600020018054600160401b811015610cf057610b53918b820181556129d6565b959095610cda57610b9a9260018060a01b039051166bffffffffffffffffffffffff60a01b87541617865551898601555115158a85019060ff801983541691151516179055565b5160009160005b888b8210610cad5750505050600482610bd592600360009897969501550192511515839060ff801983541691151516179055565b51815461ff00191690151560081b61ff00161790553382526003815260408083208590558483528282528220600d8101548414610c86575b50604080518581523360208201527f87969bc7faf902221a147b95ceba76e011c5efb0339a0a8ee7a2bb82d9cfbbd69190a183825252604060002092600d840154149283610c5757005b600501805460ff19168217905582610c7b575b5050610c73575b005b610c71612965565b541490508180610c6a565b6005018054610100600160a81b0319163360081b610100600160a81b031617905585610c0d565b90919293610cd089918486885116919060ff809160031b9316831b921b19161790565b9401929101610ba1565b634e487b7160e01b600052600060045260246000fd5b634e487b7160e01b600052604160045260246000fd5b6064906040519062461bcd60e51b82526004820152601060248201526f47616d6520696e2070726f677265737360801b6044820152fd5b634e487b7160e01b600052602160045260246000fd5b6064906040519062461bcd60e51b825260048201526011602482015270416c726561647920696e20612067616d6560781b6044820152fd5b6064906040519062461bcd60e51b82526004820152600c60248201526b11d85b59481a5cc8199d5b1b60a21b6044820152fd5b6064906040519062461bcd60e51b82526004820152601d60248201527f4d7573742073656e64206578616374206275792d696e20616d6f756e740000006044820152fd5b34610a52576000366003190112610a5257610c71612965565b6127e5565b34610a52576000366003190112610a52576020600254604051908152f35b34610a5257602080600319360112610a5257600435610e5f6101d033612a09565b33600052600391828152610e798260406000205414612acb565b816000526000815260ff60059181836040600020015416600b811015610d3d57851480156111ad575b8015611189575b8015611165575b610eb990612c7a565b60029081610ec73387612cc7565b01805460ff19908116909155604080518781523360208201529192917fff58754f139821608e8cd02acc187dd142075388ef6996df93ee889c93a9e7389190a160009460005b8760005260008352600d6040600020018054821015610f5e5785610f328389936129d6565b50015416610f49575b610f4490612956565b610f0d565b95610f56610f4491612956565b969050610f3b565b50508688868660018a14610f6e57005b600790846000526000875260006040812091816001840155820155838101888154169055858101888154169055600060068201550186815416905560005b84828216106111365750505090816011926000526000845260086040600020018054600082558061111b575b505080600052826040600020926000600a8501610ff881600988016129f2565b611006600b870180926129f2565b611014600c870180926129f2565b55600f60018060a01b0394858382015460081c1660005201865260406000208781541690558260005260008652600f604060002085611055600d83016129bb565b5054166000520186526040600020878154169055826000526000865260106040600020858382015460081c166000520186526040600020878154169055826000526000865260106040600020856110ae600d83016129bb565b505416600052018652604060002087815416905582600052600086528360406000209182015460081c16600052018452604060002085815416905560005260008352604060002090611102600d83016129bb565b5054166000520190526040600020908154169055600080f35b61112f9160005285600020908101906129f2565b8580610fd8565b611160908460005260008752611150816040600020612c61565b84825491871b1b19169055612b84565b610fac565b50836000526000815281836040600020015416600b811015610d3d57600914610eb0565b50836000526000815281836040600020015416600b811015610d3d57600714610ea9565b50836000526000815281836040600020015416600b811015610d3d578314610ea2565b34610a52576020366003190112610a52576004356000526000602052610120604060002060018101549060028101549060ff600382015416600482015460058301549060068401549260ff600d81600788015416960154169560405197885260208801526040870152606086015261124e6080860160ff831661278e565b60081c6001600160a01b031660a085015260c084015260e0830152610100820152f35b34610a52576000366003190112610a5257602060405161012c8152f35b34610a52576000366003190112610a52576020600154604051908152f35b34610a52576020366003190112610a5257600435600052600060205260406000206112d561271a565b90600580835260a0366020850137600b60009201915b60ff8082169083821015611326579061131b839261130c6113219588612c61565b90549060031b1c169187612c4d565b52612b84565b6112eb565b6040516020808252819061133c908201896127b1565b0390f35b34610a52576020366003190112610a52576001600160a01b0361136161279b565b1660005260036020526020604060002054604051908152f35b34610a52576020366003190112610a5257602061139d61139861279b565b612e3a565b6040519015158152f35b34610a52576020366003190112610a5257600435600052600060205260406000206113d061271a565b90600580835260a036602085013760005b60ff8082169083821015611326579061131b839261130c6114029588612c61565b6113e1565b34610a52576020366003190112610a5257600435600052600060205260406000206114306126fa565b600280825260403660208401376114456126fa565b9281845260403660208601376009810190600a0160005b60ff80821690858210156114af579061131b82849361147e6114aa9689612d6e565b919054600392831b1c16611492858c612c4d565b5261149d8588612d6e565b9054911b1c169189612c4d565b61145c565b6114cb8761133c8a6040519384936040855260408501906127b1565b9083820360208501526127b1565b34610a52576020366003190112610a525760043560005260006020526020600d60406000200154604051908152f35b34610a52576020366003190112610a5257602061139d61152661279b565b612a09565b34610a52576020366003190112610a525761133c61154a600435612d87565b6040519182916020835260208301906127b1565b34610a52576000366003190112610a5257602060405160028152f35b34610a52576106a0366003190112610a5257600435366106a411610a52576115a46101d033612a09565b3360005260036020526115bd8160406000205414612acb565b80600052600060205260ff60056040600020015416600b811015610d3d577faaae52e5b91cca7d2229253616739be98ccf73573c2ff08217c0277f4266a9cf9161160c60026103449314612b0a565b80600052600060205261163460018060a01b0360056040600020015460081c16331415612b44565b60008181526020818152604091829020600581018054600360ff1991821681179092559101805490911660011790558151928352339083015290918291820190565b34610a52576060366003190112610a52573660231215610a525761169861273a565b604481368211610a52576004905b8282106118c257506001600160a01b0392823592915083831690818403610a5257336000526020936003855260406000205493841561188f57846000526000865260ff9360059785896040600020015416600b811015610d3d57600314918261186f575b821561181f575b5050156117e4575061172560039185612cc7565b0160009160005b86600282106117b95750505055816000526000835283604060002001541692600b841015610d3d576000610344936003600080516020612e7c8339815191529614821461179f5783825252604060002001805460ff191660041790555b6040805191825233602083015290918291820190565b83825252604060002001805460ff19166006179055611789565b6117db83958388600195965116919060ff809160031b9316831b921b19161790565b9401910161172c565b85742bb937b73390383430b9b29037b910383630bcb2b960591b6064926040519262461bcd60e51b8452600484015260156024840152820152fd5b909150866000526000885285896040600020015416600b811015610d3d576004149182611850575b50508880611711565b9091508660005260008852886040600020015460081c16148880611847565b9150866000526000885280896040600020015460081c168214159161170a565b856c4e6f7420696e20612067616d6560981b6064926040519262461bcd60e51b84526004840152600d6024840152820152fd5b602080916118cf84612780565b8152019101906116a6565b34610a52576020366003190112610a52576004356000526000602052610140604060002060018101549060ff600282015491816003820154166004820154600583015490600684015492600c6007860154950154966040519889526020890152604088015260608701526119536080870185831661278e565b600890811c6001600160a01b031660a087015260c086019190915281831660e08601521c16610100830152610120820152f35b602080600319360112610a52576004356119a26101d033612a09565b33600052600382526119ba8160406000205414612acb565b806000526000825260ff9160059280846040600020015416600b9081811015610d3d576003148015611d86575b8015611d63575b8015611d40575b6119fe90612c7a565b83600052600083526002604060002001543410611d0b578360005260008352600e6040600020013360005283526040600020611a3b348254612cba565b905583600052600083526001604060002001611a58348254612cba565b90558360005260008352816003604060002034600282015534600682015501541660018101809111611cf5578460005260008452600d604060002001548015611cdf578391061691846000526000845260406000206001600382019460ff19958187825416179055149081611c69575b50611af5575b600080516020612e9c833981519152606086866040519182523390820152346040820152a1005b84600052600084528086604060002001541682811015610d3d57600303611b665750509082916004600080516020612e9c8339815191529560609560005260008452604060002001918254161790555b81600052600081526000600660408220826002820155015590918480611ace565b84600052600084528086604060002001541682811015610d3d578603611bb95750509082916006600080516020612e9c833981519152956060956000526000845260406000200191825416179055611b45565b84600052600084528086604060002001541682811015610d3d57600703611c0d5750509082916008600080516020612e9c833981519152956060956000526000845260406000200191825416179055611b45565b6000858152808552604090208601541693929190841015610d3d57600080516020612e9c83398151915294600960609514611c4a575b5050611b45565b600a908460005260008452604060002001918254161790558480611c43565b9050600d8101805415611cc957600052600e60018060a01b039182876000205416600052018552600e604060002054918760005260008752604060002090611cb3600d83016129bb565b5054166000520185526040600020541487611ac8565b634e487b7160e01b600052603260045260246000fd5b634e487b7160e01b600052601260045260246000fd5b634e487b7160e01b600052601160045260246000fd5b60405162461bcd60e51b815260048101849052600d60248201526c10995d081d1bdbc81cdb585b1b609a1b6044820152606490fd5b5083600052600083528185604060002001541681811015610d3d576009146119f5565b5083600052600083528185604060002001541681811015610d3d576007146119ee565b5083600052600083528185604060002001541681811015610d3d5785146119e7565b34610a5257602080600319360112610a5257600435611dc96101d033612a09565b3360005260038252611de18160406000205414612acb565b8060005260008252600591611e0960018060a01b03846040600020015460081c163314612bbe565b816000526000815260ff80846040600020015416600b9081811015610d3d576004148015611fe6575b8015611fc3575b611e4290612bfd565b83600052600083528185604060002001541681811015610d3d57600403611ecf57509082917ffb937eef594c7d7bf4f31139d9e04e3b3408489824224ccb18e6583e1c11dd129460409460005260008352600360078660002083810160ff19948582541617905501918254161790555b8260005260008252600784600020015416908351928352820152a1005b83600052600083528185604060002001541681811015610d3d57600603611f4557509082917ffb937eef594c7d7bf4f31139d9e04e3b3408489824224ccb18e6583e1c11dd12946040946000526000835260046007866000209283019260ff199382858254161790550191825416179055611eb2565b92919082600052600082528085604060002001541693841015610d3d577ffb937eef594c7d7bf4f31139d9e04e3b3408489824224ccb18e6583e1c11dd1294600860409514611f95575b50611eb2565b8360005260008352846000209060078183019260ff1993600985825416179055019182541617905585611f8f565b5083600052600083528185604060002001541681811015610d3d57600814611e39565b5083600052600083528185604060002001541681811015610d3d57600614611e32565b34610a52576040366003190112610a5257600435602480359067ffffffffffffffff808311610a525736602384011215610a52578260040135908111610a525736828260051b85010111610a52576120636101d033612a09565b336000526020926003845261207e8560406000205414612acb565b846000526000845260ff6005604060002001541692600b84101561047b576120a96001809514612b0a565b85600052600085526120cf60018060a01b0360056040600020015460081c163314612bbe565b603483036121a9578560005260008552600860406000200191600160401b8411612194578254848455808510612177575b5001906000528360002060005b838110612166576000878152808752604090819020600501805460ff1916600217905580518881523360208201527feea5492b09b3cb556950c67035e9740a81f515a83d939dd9c7d039f4ddd7b7e29181908101610344565b82358282015591850191840161210d565b61218e9084600052858860002091820191016129f2565b87612100565b50634e487b7160e01b60009081526041600452fd5b8460116064926040519262461bcd60e51b8452600484015282015270496e76616c6964206465636b2073697a6560781b6044820152fd5b34610a5257610160366003190112610a52573660431215610a525761220361273a565b8036606411610a52576024905b606482106126e257823660831215610a525761222a61273a565b908160a492368411610a52576064905b8482106126ca5750503660c31215610a52576040519260a0840184811067ffffffffffffffff821117610cf05760405283903661014411610a5257905b61014482106126b257505061228e6101d033612a09565b3360005260036020526122a960043560406000205414612acb565b600435600052600060205260ff60056040600020015416600b811015610d3d5760026122d59114612b0a565b600435600052600060205261230060056040600020015460018060a01b039060081c16331415612b44565b600435600052600060205260346008604060002001540361266d5760005b600260ff821610156124475760008060005b603460ff8216106123af5750816123a7575b50156123565761235190612b84565b61231e565b60405162461bcd60e51b8152602060048201526024808201527f53656c6563746564206361726473206e6f7420696e20656e63727970746564206044820152636465636b60e01b6064820152608490fd5b905085612342565b600435600052600060205260ff6123cd826008604060002001612b95565b90549060031b1c1660ff6123e381871689612bad565b51161461243e575b600435600052600060205260ff612409826008604060002001612b95565b90549060031b1c1660ff61241f81871688612bad565b511614612435575b61243090612b84565b612330565b60019150612427565b600192506123eb565b50919060005b600560ff8216101561252f576000805b603460ff8216106124d257501561247c5761247790612b84565b61244d565b60405162461bcd60e51b815260206004820152602860248201527f53656c656374656420666c6f702063617264206e6f7420696e20656e63727970604482015267746564206465636b60c01b6064820152608490fd5b600435600052600060205260ff6124f0826008604060002001612b95565b90549060031b1c16600560ff85161015611cc95760ff611fe08560051b168701511614612526575b61252190612b84565b61245d565b60019150612518565b5091600435600052600060205260406000209260009060005b6002811061263f575050600984015560009060005b60028110612611575050600a83015560009060005b600581106125e3575050600b82015561014435600c820155600581018054600360ff1991821681179092559101805490911660011790556040805160043581523360208201527f0842dde5e856943f7a73420433e43ea971476948d651730cc213b609349014fb9181908101610344565b909160206126086001928460ff875116919060ff809160031b9316831b921b19161790565b93019101612572565b909160206126366001928460ff875116919060ff809160031b9316831b921b19161790565b9301910161255d565b909160206126646001928460ff875116919060ff809160031b9316831b921b19161790565b93019101612548565b60405162461bcd60e51b815260206004820152601b60248201527f4e6f20656e63727970746564206465636b20617661696c61626c6500000000006044820152606490fd5b602080916126bf84612780565b815201910190612277565b602080916126d784612780565b81520191019061223a565b602080916126ef84612780565b815201910190612210565b604051906060820182811067ffffffffffffffff821117610cf057604052565b6040519060c0820182811067ffffffffffffffff821117610cf057604052565b604051906040820182811067ffffffffffffffff821117610cf057604052565b6040519190601f01601f1916820167ffffffffffffffff811183821017610cf057604052565b359060ff82168203610a5257565b90600b821015610d3d5752565b600435906001600160a01b0382168203610a5257565b90815180825260208080930193019160005b8281106127d1575050505090565b8351855293810193928101926001016127c3565b34610a52576060366003190112610a525760043536606411610a525761280d6101d033612a09565b60003381526020916003835261282881604084205414612acb565b80825281835260ff928360056040852001541690600b82101561292a57936128536002809314612b0a565b82845283855261287760018060a01b03600560408720015460081c16331415612b44565b82845283855260408420916024908596865b8281106128ec57600a8601899055600586018054600360ff199182168117909255908701805490911660011790556040805188815233602082015289917f0842dde5e856943f7a73420433e43ea971476948d651730cc213b609349014fb91a180f35b909192939784359089821682036129265761291a6001928486939060ff809160031b9316831b921b19161790565b99950193929101612889565b8880fd5b634e487b7160e01b84526021600452602484fd5b67ffffffffffffffff8111610cf05760051b60200190565b6000198114611cf55760010190565b612970600154612956565b806001556000526000602052600560406000200160ff1981541690557fbd19c47e9925eb6f7be8bb1c13a841e0240aaeaf17f217e90022e9c8eb66877f6020600154604051908152a1565b805460011015611cc957600052600560206000200190600090565b8054821015611cc9576000526005602060002091020190600090565b8181106129fd575050565b600081556001016129f2565b6001600160a01b039081166000818152600360209081526040808320549492918515612a885790825b868452838352600d828520018054821015612a7d5785612a538389936129d6565b50541614612a7157600d92612a688592612956565b91509250612a32565b50505050505050600190565b505050509250505090565b50509250505090565b15612a9857565b60405162461bcd60e51b815260206004820152600b60248201526a4e6f7420696e2067616d6560a81b6044820152606490fd5b15612ad257565b60405162461bcd60e51b815260206004820152601060248201526f4e6f7420696e20746869732067616d6560801b6044820152606490fd5b15612b1157565b60405162461bcd60e51b815260206004820152600b60248201526a57726f6e6720706861736560a81b6044820152606490fd5b15612b4b57565b60405162461bcd60e51b81526020600482015260116024820152702737ba1039b2b1b7b73210383630bcb2b960791b6044820152606490fd5b60ff1660ff8114611cf55760010190565b8054821015611cc95760005260206000200190600090565b906002811015611cc95760051b0190565b15612bc557565b60405162461bcd60e51b815260206004820152601060248201526f2737ba103334b939ba10383630bcb2b960811b6044820152606490fd5b15612c0457565b60405162461bcd60e51b81526020600482015260146024820152734e6f742064656372797074696f6e20706861736560601b6044820152606490fd5b805115611cc95760200190565b8051821015611cc95760209160051b010190565b9190916005831015611cc957601f908360051c01921690565b15612c8157565b60405162461bcd60e51b81526020600482015260116024820152704e6f742062657474696e6720706861736560781b6044820152606490fd5b91908201809211611cf557565b909160005b82600052602060008152600d906040908282600020018054851015612d365784612cf5916129d6565b50546001600160a01b03888116911614612d1a57505050612d1590612956565b612ccc565b6000919293949650612d3295825252600020016129d6565b5090565b60405162461bcd60e51b815260206004820152601060248201526f141b185e595c881b9bdd08199bdd5b9960821b6044820152606490fd5b9190916002831015611cc957601f908360051c01921690565b906000918252816020526008604083200191825480612dde57506040519192506020820167ffffffffffffffff811183821017612dca5760405280825236813790565b634e487b7160e01b82526041600452602482fd5b612dea6101938261293e565b81815291601f19612dfa8361293e565b013660208501375b818110612e10575090925050565b80612e1e612e359287612b95565b90549060031b1c612e2f8286612c4d565b52612956565b612e02565b6001600160a01b039081166000818152600360205260408120549192918015612e745781604091600593528060205220015460081c161490565b509150509056fef03a84bf6acb8665499842a163a119675aa0d85c373f390994756715f3cadd36d4378ef4558c1e2a851456fb0106171f67cc4bc8abe3f27346a47cc6010a291da264697066735822122007458cb0beb8d1cc72c0c906f432315e01d1d67e130b3cb1cc9983f9ff0a021c64736f6c63430008130033","opcodes":"PUSH1 0x80 DUP1 PUSH1 0x40 MSTORE CALLVALUE PUSH2 0x83 JUMPI PUSH8 0xDE0B6B3A7640000 PUSH1 0x2 SSTORE PUSH1 0x1 DUP1 DUP1 SSTORE PUSH1 0x0 DUP2 DUP2 MSTORE PUSH1 0x20 SWAP1 DUP2 MSTORE PUSH32 0xADA5013122D395BA3C54772283FB069B10426056EF8CA54750CB9BB552A59E82 DUP1 SLOAD PUSH1 0xFF NOT AND SWAP1 SSTORE SWAP1 DUP3 MSTORE PUSH32 0xBD19C47E9925EB6F7BE8BB1C13A841E0240AAEAF17F217E90022E9C8EB66877F SWAP2 LOG1 PUSH1 0x40 MLOAD PUSH2 0x2EF1 SWAP1 DUP2 PUSH2 0x89 DUP3 CODECOPY RETURN JUMPDEST PUSH1 0x0 DUP1 REVERT INVALID PUSH1 0x80 PUSH1 0x40 MSTORE PUSH1 0x4 CALLDATASIZE LT ISZERO PUSH2 0x12 JUMPI PUSH1 0x0 DUP1 REVERT JUMPDEST PUSH1 0x0 CALLDATALOAD PUSH1 0xE0 SHR DUP1 PUSH4 0x41EB141 EQ PUSH2 0x21E0 JUMPI DUP1 PUSH4 0xBBAC290 EQ PUSH2 0x2009 JUMPI DUP1 PUSH4 0xDAFA3FD EQ PUSH2 0x1DA8 JUMPI DUP1 PUSH4 0x10FE7C48 EQ PUSH2 0x1986 JUMPI DUP1 PUSH4 0x117A5B90 EQ PUSH2 0x18DA JUMPI DUP1 PUSH4 0x1E820031 EQ PUSH2 0x1676 JUMPI DUP1 PUSH4 0x25B05C88 EQ PUSH2 0x1340 JUMPI DUP1 PUSH4 0x33D93417 EQ PUSH2 0x157A JUMPI DUP1 PUSH4 0x4411B3EB EQ PUSH2 0x155E JUMPI DUP1 PUSH4 0x536A3DDC EQ PUSH2 0x128E JUMPI DUP1 PUSH4 0x54836287 EQ PUSH2 0x152B JUMPI DUP1 PUSH4 0x574A5B20 EQ PUSH2 0x1508 JUMPI DUP1 PUSH4 0x62436D9D EQ PUSH2 0x14D9 JUMPI DUP1 PUSH4 0x642F8128 EQ PUSH2 0x1407 JUMPI DUP1 PUSH4 0x66656EFF EQ PUSH2 0x13A7 JUMPI DUP1 PUSH4 0x71A2E89C EQ PUSH2 0x137A JUMPI DUP1 PUSH4 0x773B549D EQ PUSH2 0x1340 JUMPI DUP1 PUSH4 0x844973B4 EQ PUSH2 0x12AC JUMPI DUP1 PUSH4 0xA2635401 EQ PUSH2 0x128E JUMPI DUP1 PUSH4 0xA8AAD94D EQ PUSH2 0x1271 JUMPI DUP1 PUSH4 0xB919CF16 EQ PUSH2 0x11D0 JUMPI DUP1 PUSH4 0xBFF7A00B EQ PUSH2 0xE3E JUMPI DUP1 PUSH4 0xC2CB4B38 EQ PUSH2 0xE1B JUMPI DUP1 PUSH4 0xD165DAC2 EQ PUSH2 0xE20 JUMPI DUP1 PUSH4 0xDB6371B2 EQ PUSH2 0xE1B JUMPI DUP1 PUSH4 0xEB87EB5E EQ PUSH2 0xE02 JUMPI DUP1 PUSH4 0xEFAA55A0 EQ PUSH2 0xA57 JUMPI PUSH4 0xF312BCB8 EQ PUSH2 0x150 JUMPI PUSH1 0x0 DUP1 REVERT JUMPDEST CALLVALUE PUSH2 0xA52 JUMPI PUSH1 0x40 CALLDATASIZE PUSH1 0x3 NOT ADD SLT PUSH2 0xA52 JUMPI PUSH1 0x4 CALLDATALOAD PUSH1 0x24 DUP1 CALLDATALOAD PUSH8 0xFFFFFFFFFFFFFFFF DUP2 GT PUSH2 0xA52 JUMPI CALLDATASIZE PUSH1 0x23 DUP3 ADD SLT ISZERO PUSH2 0xA52 JUMPI DUP1 PUSH1 0x4 ADD CALLDATALOAD PUSH2 0x198 PUSH2 0x193 DUP3 PUSH2 0x293E JUMP JUMPDEST PUSH2 0x275A JUMP JUMPDEST DUP2 DUP2 MSTORE PUSH1 0x20 SWAP3 PUSH1 0x5 SWAP3 DUP4 SHL DUP2 ADD DUP6 ADD SWAP1 DUP5 DUP4 ADD SWAP1 CALLDATASIZE DUP4 GT PUSH2 0xA52 JUMPI DUP7 DUP7 SWAP2 ADD SWAP2 JUMPDEST DUP4 DUP4 LT PUSH2 0xA3A JUMPI POP POP POP POP PUSH2 0x1D5 PUSH2 0x1D0 CALLER PUSH2 0x2A09 JUMP JUMPDEST PUSH2 0x2A91 JUMP JUMPDEST CALLER PUSH1 0x0 MSTORE PUSH1 0x3 SWAP4 DUP5 DUP5 MSTORE PUSH2 0x1EF DUP7 PUSH1 0x40 PUSH1 0x0 KECCAK256 SLOAD EQ PUSH2 0x2ACB JUMP JUMPDEST DUP6 PUSH1 0x0 MSTORE PUSH1 0x0 DUP5 MSTORE PUSH1 0xFF DUP1 DUP5 PUSH1 0x40 PUSH1 0x0 KECCAK256 ADD SLOAD AND SWAP3 PUSH1 0xB SWAP4 DUP5 DUP2 LT ISZERO PUSH2 0x660 JUMPI PUSH1 0x4 EQ DUP1 ISZERO PUSH2 0xA17 JUMPI JUMPDEST DUP1 ISZERO PUSH2 0x9F4 JUMPI JUMPDEST PUSH2 0x229 SWAP1 PUSH2 0x2BFD JUMP JUMPDEST DUP8 PUSH1 0x0 MSTORE PUSH1 0x0 DUP7 MSTORE DUP2 DUP6 PUSH1 0x40 PUSH1 0x0 KECCAK256 ADD SLOAD AND DUP5 DUP2 LT ISZERO PUSH2 0x660 JUMPI PUSH1 0x4 SUB PUSH2 0x765 JUMPI DUP7 DUP2 MLOAD SUB PUSH2 0x721 JUMPI DUP8 PUSH1 0x0 MSTORE PUSH1 0x0 DUP7 MSTORE PUSH1 0xF PUSH1 0x40 PUSH1 0x0 KECCAK256 ADD CALLER PUSH1 0x0 MSTORE DUP7 MSTORE DUP2 PUSH1 0x40 PUSH1 0x0 KECCAK256 SLOAD AND PUSH2 0x6E4 JUMPI DUP8 PUSH1 0x0 MSTORE PUSH1 0x0 DUP7 MSTORE PUSH1 0x1 DUP1 PUSH1 0xA0 SHL SUB DUP6 PUSH1 0x40 PUSH1 0x0 KECCAK256 ADD SLOAD PUSH1 0x8 SHR AND CALLER EQ PUSH2 0x675 JUMPI JUMPDEST POP DUP7 PUSH1 0x0 MSTORE PUSH1 0x0 DUP6 MSTORE PUSH1 0xF PUSH1 0x40 PUSH1 0x0 KECCAK256 ADD CALLER PUSH1 0x0 MSTORE DUP6 MSTORE PUSH1 0x40 PUSH1 0x0 KECCAK256 PUSH1 0x1 PUSH1 0xFF NOT DUP3 SLOAD AND OR SWAP1 SSTORE JUMPDEST PUSH1 0x0 DUP8 PUSH1 0x0 MSTORE PUSH1 0x0 DUP7 MSTORE DUP2 DUP6 PUSH1 0x40 PUSH1 0x0 KECCAK256 ADD SLOAD AND DUP5 DUP2 LT ISZERO PUSH2 0x660 JUMPI PUSH1 0x4 SUB PUSH2 0x4F8 JUMPI POP PUSH1 0x0 DUP8 DUP2 MSTORE DUP1 DUP7 MSTORE PUSH1 0x40 DUP1 DUP3 KECCAK256 DUP7 DUP2 ADD SLOAD PUSH1 0x8 SHR PUSH1 0x1 PUSH1 0x1 PUSH1 0xA0 SHL SUB SWAP1 DUP2 AND DUP5 MSTORE PUSH1 0xF SWAP1 SWAP2 ADD DUP9 MSTORE SWAP2 KECCAK256 SLOAD DUP3 AND SWAP1 DUP2 PUSH2 0x4C3 JUMPI JUMPDEST POP DUP1 PUSH2 0x4A4 JUMPI JUMPDEST PUSH2 0x349 JUMPI JUMPDEST PUSH1 0x40 DUP1 MLOAD DUP9 DUP2 MSTORE CALLER PUSH1 0x20 DUP3 ADD MSTORE PUSH1 0x0 DUP1 MLOAD PUSH1 0x20 PUSH2 0x2E7C DUP4 CODECOPY DUP2 MLOAD SWAP2 MSTORE SWAP2 DUP2 SWAP1 DUP2 ADD JUMPDEST SUB SWAP1 LOG1 STOP JUMPDEST DUP7 PUSH1 0x0 MSTORE PUSH1 0x0 DUP6 MSTORE DUP1 DUP5 PUSH1 0x40 PUSH1 0x0 KECCAK256 ADD SLOAD AND DUP4 DUP2 LT ISZERO PUSH2 0x48F JUMPI PUSH1 0x4 SUB PUSH2 0x3C1 JUMPI POP POP POP PUSH1 0x2 PUSH2 0x344 SWAP4 PUSH1 0x0 DUP7 SWAP5 DUP2 SWAP5 PUSH1 0x0 DUP1 MLOAD PUSH1 0x20 PUSH2 0x2E7C DUP4 CODECOPY DUP2 MLOAD SWAP2 MSTORE SWAP9 DUP4 MSTORE DUP3 DUP3 MSTORE DUP1 PUSH1 0x40 DUP5 KECCAK256 ADD SWAP1 PUSH1 0xFF NOT DUP3 SLOAD AND OR SWAP1 SSTORE JUMPDEST DUP6 DUP3 MSTORE MSTORE PUSH1 0x40 DUP4 KECCAK256 SWAP1 DUP2 ADD DUP1 SLOAD PUSH1 0xFF NOT AND PUSH1 0x1 OR SWAP1 SSTORE ADD SSTORE SWAP2 CODESIZE DUP1 DUP1 DUP1 PUSH2 0x322 JUMP JUMPDEST DUP7 PUSH1 0x0 MSTORE PUSH1 0x0 DUP6 MSTORE DUP1 DUP5 PUSH1 0x40 PUSH1 0x0 KECCAK256 ADD SLOAD AND DUP4 DUP2 LT ISZERO PUSH2 0x48F JUMPI PUSH1 0x6 SUB PUSH2 0x41B JUMPI POP POP POP PUSH1 0x2 PUSH2 0x344 SWAP4 PUSH1 0x0 DUP7 SWAP5 DUP2 SWAP5 PUSH1 0x0 DUP1 MLOAD PUSH1 0x20 PUSH2 0x2E7C DUP4 CODECOPY DUP2 MLOAD SWAP2 MSTORE SWAP9 DUP4 MSTORE DUP3 DUP3 MSTORE PUSH1 0x40 DUP4 KECCAK256 ADD PUSH1 0x7 PUSH1 0xFF NOT DUP3 SLOAD AND OR SWAP1 SSTORE PUSH2 0x39F JUMP JUMPDEST DUP7 PUSH1 0x0 MSTORE PUSH1 0x0 DUP6 MSTORE DUP4 PUSH1 0x40 PUSH1 0x0 KECCAK256 ADD SLOAD AND SWAP2 DUP3 LT ISZERO PUSH2 0x47B JUMPI POP PUSH2 0x344 SWAP4 PUSH1 0x0 PUSH1 0x0 DUP1 MLOAD PUSH1 0x20 PUSH2 0x2E7C DUP4 CODECOPY DUP2 MLOAD SWAP2 MSTORE SWAP7 SWAP5 DUP2 SWAP5 PUSH1 0x8 PUSH1 0x2 SWAP6 EQ PUSH2 0x45F JUMPI JUMPDEST POP PUSH2 0x39F JUMP JUMPDEST DUP7 DUP4 MSTORE DUP3 DUP3 MSTORE PUSH1 0x40 DUP4 KECCAK256 ADD DUP1 SLOAD PUSH1 0xFF NOT AND PUSH1 0x9 OR SWAP1 SSTORE CODESIZE PUSH2 0x459 JUMP JUMPDEST PUSH4 0x4E487B71 PUSH1 0xE0 SHL PUSH1 0x0 SWAP1 DUP2 MSTORE PUSH1 0x21 PUSH1 0x4 MSTORE REVERT JUMPDEST DUP3 PUSH4 0x4E487B71 PUSH1 0xE0 SHL PUSH1 0x0 MSTORE PUSH1 0x21 PUSH1 0x4 MSTORE PUSH1 0x0 REVERT JUMPDEST DUP8 PUSH1 0x0 MSTORE PUSH1 0x0 DUP7 MSTORE PUSH1 0x7 PUSH1 0x40 PUSH1 0x0 KECCAK256 ADD DUP8 PUSH1 0xFF NOT DUP3 SLOAD AND OR SWAP1 SSTORE PUSH2 0x31D JUMP JUMPDEST PUSH1 0xF SWAP2 POP DUP9 PUSH1 0x0 MSTORE PUSH1 0x0 DUP8 MSTORE PUSH1 0x40 PUSH1 0x0 KECCAK256 SWAP1 PUSH2 0x4E1 PUSH1 0xD DUP4 ADD PUSH2 0x29BB JUMP JUMPDEST POP SLOAD AND PUSH1 0x0 MSTORE ADD DUP6 MSTORE DUP1 PUSH1 0x40 PUSH1 0x0 KECCAK256 SLOAD AND CODESIZE PUSH2 0x316 JUMP JUMPDEST DUP8 PUSH1 0x0 MSTORE PUSH1 0x0 DUP7 MSTORE DUP2 DUP6 PUSH1 0x40 PUSH1 0x0 KECCAK256 ADD SLOAD AND DUP5 DUP2 LT ISZERO PUSH2 0x660 JUMPI PUSH1 0x6 SUB PUSH2 0x5AF JUMPI POP PUSH1 0x0 DUP8 DUP2 MSTORE DUP1 DUP7 MSTORE PUSH1 0x40 DUP1 DUP3 KECCAK256 DUP7 DUP2 ADD SLOAD PUSH1 0x8 SHR PUSH1 0x1 PUSH1 0x1 PUSH1 0xA0 SHL SUB SWAP1 DUP2 AND DUP5 MSTORE PUSH1 0x10 SWAP1 SWAP2 ADD DUP9 MSTORE SWAP2 KECCAK256 SLOAD DUP3 AND SWAP1 DUP2 PUSH2 0x57A JUMPI JUMPDEST POP DUP1 PUSH2 0x55A JUMPI JUMPDEST PUSH2 0x31D JUMP JUMPDEST DUP8 PUSH1 0x0 MSTORE PUSH1 0x0 DUP7 MSTORE PUSH1 0x7 PUSH1 0x40 PUSH1 0x0 KECCAK256 ADD PUSH1 0x4 PUSH1 0xFF NOT DUP3 SLOAD AND OR SWAP1 SSTORE PUSH2 0x31D JUMP JUMPDEST PUSH1 0x10 SWAP2 POP DUP9 PUSH1 0x0 MSTORE PUSH1 0x0 DUP8 MSTORE PUSH1 0x40 PUSH1 0x0 KECCAK256 SWAP1 PUSH2 0x598 PUSH1 0xD DUP4 ADD PUSH2 0x29BB JUMP JUMPDEST POP SLOAD AND PUSH1 0x0 MSTORE ADD DUP6 MSTORE DUP1 PUSH1 0x40 PUSH1 0x0 KECCAK256 SLOAD AND CODESIZE PUSH2 0x54E JUMP JUMPDEST DUP8 PUSH1 0x0 MSTORE PUSH1 0x0 DUP7 MSTORE DUP2 DUP6 PUSH1 0x40 PUSH1 0x0 KECCAK256 ADD SLOAD AND DUP5 DUP2 LT ISZERO PUSH2 0x660 JUMPI PUSH1 0x8 SUB PUSH2 0x31D JUMPI POP PUSH1 0x0 DUP8 DUP2 MSTORE DUP1 DUP7 MSTORE PUSH1 0x40 DUP1 DUP3 KECCAK256 DUP7 DUP2 ADD SLOAD PUSH1 0x8 SHR PUSH1 0x1 PUSH1 0x1 PUSH1 0xA0 SHL SUB SWAP1 DUP2 AND DUP5 MSTORE PUSH1 0x11 SWAP1 SWAP2 ADD DUP9 MSTORE SWAP2 KECCAK256 SLOAD DUP3 AND SWAP1 DUP2 PUSH2 0x62B JUMPI JUMPDEST POP DUP1 ISZERO PUSH2 0x555 JUMPI DUP8 PUSH1 0x0 MSTORE PUSH1 0x0 DUP7 MSTORE PUSH1 0x7 PUSH1 0x40 PUSH1 0x0 KECCAK256 ADD DUP6 PUSH1 0xFF NOT DUP3 SLOAD AND OR SWAP1 SSTORE PUSH2 0x31D JUMP JUMPDEST PUSH1 0x11 SWAP2 POP DUP9 PUSH1 0x0 MSTORE PUSH1 0x0 DUP8 MSTORE PUSH1 0x40 PUSH1 0x0 KECCAK256 SWAP1 PUSH2 0x649 PUSH1 0xD DUP4 ADD PUSH2 0x29BB JUMP JUMPDEST POP SLOAD AND PUSH1 0x0 MSTORE ADD DUP6 MSTORE DUP1 PUSH1 0x40 PUSH1 0x0 KECCAK256 SLOAD AND CODESIZE PUSH2 0x605 JUMP JUMPDEST DUP4 PUSH4 0x4E487B71 PUSH1 0xE0 SHL PUSH1 0x0 MSTORE PUSH1 0x21 PUSH1 0x4 MSTORE PUSH1 0x0 REVERT JUMPDEST SWAP2 SWAP3 SWAP6 SWAP1 SWAP4 PUSH1 0x0 JUMPDEST DUP6 DUP2 AND DUP4 DUP2 LT ISZERO PUSH2 0x6D6 JUMPI SWAP1 DUP7 PUSH2 0x697 PUSH2 0x6D1 SWAP4 DUP8 PUSH2 0x2C4D JUMP JUMPDEST MLOAD AND DUP11 PUSH1 0x0 MSTORE PUSH1 0x0 DUP10 MSTORE PUSH2 0x6CA PUSH2 0x6B2 DUP4 PUSH1 0x40 PUSH1 0x0 KECCAK256 PUSH2 0x2C61 JUMP JUMPDEST DUP2 SWAP4 SWAP2 SLOAD SWAP1 PUSH1 0xFF DUP1 SWAP2 PUSH1 0x3 SHL SWAP4 AND DUP4 SHL SWAP3 SHL NOT AND OR SWAP1 JUMP JUMPDEST SWAP1 SSTORE PUSH2 0x2B84 JUMP JUMPDEST PUSH2 0x67D JUMP JUMPDEST POP POP SWAP4 SWAP1 SWAP6 SWAP3 SWAP2 POP CODESIZE PUSH2 0x296 JUMP JUMPDEST PUSH1 0x40 MLOAD PUSH3 0x461BCD PUSH1 0xE5 SHL DUP2 MSTORE PUSH1 0x4 DUP2 ADD DUP8 SWAP1 MSTORE PUSH1 0x16 DUP2 DUP6 ADD MSTORE PUSH22 0x416C72656164792064656372797074656420666C6F7 PUSH1 0x54 SHL PUSH1 0x44 DUP3 ADD MSTORE PUSH1 0x64 SWAP1 REVERT JUMPDEST PUSH1 0x40 MLOAD PUSH3 0x461BCD PUSH1 0xE5 SHL DUP2 MSTORE PUSH1 0x4 DUP2 ADD DUP8 SWAP1 MSTORE PUSH1 0x18 DUP2 DUP6 ADD MSTORE PUSH32 0x496E76616C696420666C6F7020636172647320636F756E740000000000000000 PUSH1 0x44 DUP3 ADD MSTORE PUSH1 0x64 SWAP1 REVERT JUMPDEST DUP8 PUSH1 0x0 MSTORE PUSH1 0x0 DUP7 MSTORE DUP2 DUP6 PUSH1 0x40 PUSH1 0x0 KECCAK256 ADD SLOAD AND DUP5 DUP2 LT ISZERO PUSH2 0x660 JUMPI PUSH1 0x6 SUB PUSH2 0x8A5 JUMPI PUSH1 0x1 DUP2 MLOAD SUB PUSH2 0x861 JUMPI DUP8 PUSH1 0x0 MSTORE PUSH1 0x0 DUP7 MSTORE PUSH1 0x10 PUSH1 0x40 PUSH1 0x0 KECCAK256 ADD CALLER PUSH1 0x0 MSTORE DUP7 MSTORE DUP2 PUSH1 0x40 PUSH1 0x0 KECCAK256 SLOAD AND PUSH2 0x824 JUMPI DUP8 PUSH1 0x0 MSTORE PUSH1 0x0 DUP7 MSTORE PUSH1 0x1 DUP1 PUSH1 0xA0 SHL SUB DUP6 PUSH1 0x40 PUSH1 0x0 KECCAK256 ADD SLOAD PUSH1 0x8 SHR AND CALLER EQ PUSH2 0x7F4 JUMPI JUMPDEST POP PUSH1 0x40 PUSH1 0x0 DUP2 DUP2 KECCAK256 CALLER DUP3 MSTORE PUSH1 0x10 ADD DUP8 MSTORE KECCAK256 DUP1 SLOAD PUSH1 0xFF NOT AND PUSH1 0x1 OR SWAP1 SSTORE PUSH2 0x2BE JUMP JUMPDEST PUSH2 0x7FD SWAP1 PUSH2 0x2C40 JUMP JUMPDEST MLOAD DUP8 PUSH1 0x0 MSTORE PUSH1 0x0 DUP7 MSTORE PUSH1 0x40 PUSH1 0x0 KECCAK256 SWAP1 PUSH4 0xFF000000 DUP1 NOT DUP4 SLOAD AND SWAP2 PUSH1 0x18 SHL AND OR SWAP1 SSTORE CODESIZE PUSH2 0x7D3 JUMP JUMPDEST PUSH1 0x40 MLOAD PUSH3 0x461BCD PUSH1 0xE5 SHL DUP2 MSTORE PUSH1 0x4 DUP2 ADD DUP8 SWAP1 MSTORE PUSH1 0x16 DUP2 DUP6 ADD MSTORE PUSH22 0x20B63932B0B23C903232B1B93CB83A32B2103A3AB937 PUSH1 0x51 SHL PUSH1 0x44 DUP3 ADD MSTORE PUSH1 0x64 SWAP1 REVERT JUMPDEST PUSH1 0x40 MLOAD PUSH3 0x461BCD PUSH1 0xE5 SHL DUP2 MSTORE PUSH1 0x4 DUP2 ADD DUP8 SWAP1 MSTORE PUSH1 0x17 DUP2 DUP6 ADD MSTORE PUSH32 0x496E76616C6964207475726E206361726420636F756E74000000000000000000 PUSH1 0x44 DUP3 ADD MSTORE PUSH1 0x64 SWAP1 REVERT JUMPDEST DUP8 PUSH1 0x0 MSTORE PUSH1 0x0 DUP7 MSTORE DUP2 DUP6 PUSH1 0x40 PUSH1 0x0 KECCAK256 ADD SLOAD AND DUP5 DUP2 LT ISZERO PUSH2 0x660 JUMPI PUSH1 0x8 EQ PUSH2 0x8CD JUMPI JUMPDEST POP PUSH2 0x2BE JUMP JUMPDEST PUSH1 0x1 DUP2 MLOAD SUB PUSH2 0x9B0 JUMPI DUP8 PUSH1 0x0 MSTORE PUSH1 0x0 DUP7 MSTORE PUSH1 0x11 PUSH1 0x40 PUSH1 0x0 KECCAK256 ADD CALLER PUSH1 0x0 MSTORE DUP7 MSTORE DUP2 PUSH1 0x40 PUSH1 0x0 KECCAK256 SLOAD AND PUSH2 0x96C JUMPI DUP8 PUSH1 0x0 MSTORE PUSH1 0x0 DUP7 MSTORE PUSH1 0x1 DUP1 PUSH1 0xA0 SHL SUB DUP6 PUSH1 0x40 PUSH1 0x0 KECCAK256 ADD SLOAD PUSH1 0x8 SHR AND CALLER EQ PUSH2 0x93C JUMPI JUMPDEST POP PUSH1 0x40 PUSH1 0x0 DUP2 DUP2 KECCAK256 CALLER DUP3 MSTORE PUSH1 0x11 ADD DUP8 MSTORE KECCAK256 DUP1 SLOAD PUSH1 0xFF NOT AND PUSH1 0x1 OR SWAP1 SSTORE CODESIZE PUSH2 0x8C7 JUMP JUMPDEST PUSH2 0x945 SWAP1 PUSH2 0x2C40 JUMP JUMPDEST MLOAD DUP8 PUSH1 0x0 MSTORE PUSH1 0x0 DUP7 MSTORE PUSH1 0x40 PUSH1 0x0 KECCAK256 SWAP1 PUSH5 0xFF00000000 DUP1 NOT DUP4 SLOAD AND SWAP2 DUP9 SHL AND OR SWAP1 SSTORE CODESIZE PUSH2 0x91A JUMP JUMPDEST PUSH1 0x40 MLOAD PUSH3 0x461BCD PUSH1 0xE5 SHL DUP2 MSTORE PUSH1 0x4 DUP2 ADD DUP8 SWAP1 MSTORE PUSH1 0x17 DUP2 DUP6 ADD MSTORE PUSH32 0x416C726561647920646563727970746564207269766572000000000000000000 PUSH1 0x44 DUP3 ADD MSTORE PUSH1 0x64 SWAP1 REVERT JUMPDEST PUSH1 0x40 MLOAD PUSH3 0x461BCD PUSH1 0xE5 SHL DUP2 MSTORE PUSH1 0x4 DUP2 ADD DUP8 SWAP1 MSTORE PUSH1 0x18 DUP2 DUP6 ADD MSTORE PUSH32 0x496E76616C6964207269766572206361726420636F756E740000000000000000 PUSH1 0x44 DUP3 ADD MSTORE PUSH1 0x64 SWAP1 REVERT JUMPDEST POP DUP8 PUSH1 0x0 MSTORE PUSH1 0x0 DUP7 MSTORE DUP2 DUP6 PUSH1 0x40 PUSH1 0x0 KECCAK256 ADD SLOAD AND DUP5 DUP2 LT ISZERO PUSH2 0x660 JUMPI PUSH1 0x8 EQ PUSH2 0x220 JUMP JUMPDEST POP DUP8 PUSH1 0x0 MSTORE PUSH1 0x0 DUP7 MSTORE DUP2 DUP6 PUSH1 0x40 PUSH1 0x0 KECCAK256 ADD SLOAD AND DUP5 DUP2 LT ISZERO PUSH2 0x660 JUMPI PUSH1 0x6 EQ PUSH2 0x219 JUMP JUMPDEST DUP2 SWAP1 PUSH2 0xA45 DUP5 PUSH2 0x2780 JUMP JUMPDEST DUP2 MSTORE ADD SWAP2 ADD SWAP1 DUP6 SWAP1 PUSH2 0x1B9 JUMP JUMPDEST PUSH1 0x0 DUP1 REVERT JUMPDEST PUSH1 0x20 DUP1 PUSH1 0x3 NOT CALLDATASIZE ADD SLT PUSH2 0xA52 JUMPI PUSH1 0x4 CALLDATALOAD PUSH1 0x2 SWAP2 DUP3 SLOAD CALLVALUE SUB PUSH2 0xDBE JUMPI DUP2 PUSH1 0x0 MSTORE PUSH1 0x0 DUP2 MSTORE DUP3 PUSH1 0xD PUSH1 0x40 PUSH1 0x0 KECCAK256 ADD SLOAD LT ISZERO PUSH2 0xD8B JUMPI PUSH2 0xA93 CALLER PUSH2 0x2A09 JUMP JUMPDEST PUSH2 0xD53 JUMPI DUP2 PUSH1 0x0 MSTORE PUSH1 0x0 DUP2 MSTORE PUSH1 0xFF SWAP1 DUP2 PUSH1 0x5 PUSH1 0x40 PUSH1 0x0 KECCAK256 ADD SLOAD AND PUSH1 0xB DUP2 LT ISZERO PUSH2 0xD3D JUMPI PUSH2 0xD06 JUMPI PUSH1 0x40 DUP1 MLOAD SWAP3 PUSH8 0xFFFFFFFFFFFFFFFF SWAP2 DUP5 ADD DUP3 DUP2 GT DUP6 DUP3 LT OR PUSH2 0xCF0 JUMPI PUSH1 0x40 MSTORE PUSH1 0x0 DUP5 MSTORE PUSH1 0x0 DUP4 DUP6 ADD MSTORE PUSH1 0x40 MLOAD SWAP2 PUSH1 0xC0 DUP4 ADD SWAP1 DUP4 DUP3 LT SWAP1 DUP3 GT OR PUSH2 0xCF0 JUMPI PUSH1 0x40 MSTORE CALLER DUP3 MSTORE DUP3 DUP3 ADD CALLVALUE DUP2 MSTORE PUSH1 0x40 DUP4 ADD SWAP2 PUSH1 0x1 SWAP6 DUP7 DUP5 MSTORE PUSH1 0x60 DUP6 ADD SWAP1 DUP2 MSTORE PUSH1 0x80 DUP6 ADD SWAP5 PUSH1 0x0 DUP7 MSTORE PUSH1 0xA0 DUP2 ADD SWAP5 PUSH1 0x0 DUP7 MSTORE DUP10 PUSH1 0x0 MSTORE PUSH1 0x0 DUP9 MSTORE PUSH1 0xD PUSH1 0x40 PUSH1 0x0 KECCAK256 ADD DUP1 SLOAD PUSH1 0x1 PUSH1 0x40 SHL DUP2 LT ISZERO PUSH2 0xCF0 JUMPI PUSH2 0xB53 SWAP2 DUP12 DUP3 ADD DUP2 SSTORE PUSH2 0x29D6 JUMP JUMPDEST SWAP6 SWAP1 SWAP6 PUSH2 0xCDA JUMPI PUSH2 0xB9A SWAP3 PUSH1 0x1 DUP1 PUSH1 0xA0 SHL SUB SWAP1 MLOAD AND PUSH12 0xFFFFFFFFFFFFFFFFFFFFFFFF PUSH1 0xA0 SHL DUP8 SLOAD AND OR DUP7 SSTORE MLOAD DUP10 DUP7 ADD SSTORE MLOAD ISZERO ISZERO DUP11 DUP6 ADD SWAP1 PUSH1 0xFF DUP1 NOT DUP4 SLOAD AND SWAP2 ISZERO ISZERO AND OR SWAP1 SSTORE JUMP JUMPDEST MLOAD PUSH1 0x0 SWAP2 PUSH1 0x0 JUMPDEST DUP9 DUP12 DUP3 LT PUSH2 0xCAD JUMPI POP POP POP POP PUSH1 0x4 DUP3 PUSH2 0xBD5 SWAP3 PUSH1 0x3 PUSH1 0x0 SWAP9 SWAP8 SWAP7 SWAP6 ADD SSTORE ADD SWAP3 MLOAD ISZERO ISZERO DUP4 SWAP1 PUSH1 0xFF DUP1 NOT DUP4 SLOAD AND SWAP2 ISZERO ISZERO AND OR SWAP1 SSTORE JUMP JUMPDEST MLOAD DUP2 SLOAD PUSH2 0xFF00 NOT AND SWAP1 ISZERO ISZERO PUSH1 0x8 SHL PUSH2 0xFF00 AND OR SWAP1 SSTORE CALLER DUP3 MSTORE PUSH1 0x3 DUP2 MSTORE PUSH1 0x40 DUP1 DUP4 KECCAK256 DUP6 SWAP1 SSTORE DUP5 DUP4 MSTORE DUP3 DUP3 MSTORE DUP3 KECCAK256 PUSH1 0xD DUP2 ADD SLOAD DUP5 EQ PUSH2 0xC86 JUMPI JUMPDEST POP PUSH1 0x40 DUP1 MLOAD DUP6 DUP2 MSTORE CALLER PUSH1 0x20 DUP3 ADD MSTORE PUSH32 0x87969BC7FAF902221A147B95CEBA76E011C5EFB0339A0A8EE7A2BB82D9CFBBD6 SWAP2 SWAP1 LOG1 DUP4 DUP3 MSTORE MSTORE PUSH1 0x40 PUSH1 0x0 KECCAK256 SWAP3 PUSH1 0xD DUP5 ADD SLOAD EQ SWAP3 DUP4 PUSH2 0xC57 JUMPI STOP JUMPDEST PUSH1 0x5 ADD DUP1 SLOAD PUSH1 0xFF NOT AND DUP3 OR SWAP1 SSTORE DUP3 PUSH2 0xC7B JUMPI JUMPDEST POP POP PUSH2 0xC73 JUMPI JUMPDEST STOP JUMPDEST PUSH2 0xC71 PUSH2 0x2965 JUMP JUMPDEST SLOAD EQ SWAP1 POP DUP2 DUP1 PUSH2 0xC6A JUMP JUMPDEST PUSH1 0x5 ADD DUP1 SLOAD PUSH2 0x100 PUSH1 0x1 PUSH1 0xA8 SHL SUB NOT AND CALLER PUSH1 0x8 SHL PUSH2 0x100 PUSH1 0x1 PUSH1 0xA8 SHL SUB AND OR SWAP1 SSTORE DUP6 PUSH2 0xC0D JUMP JUMPDEST SWAP1 SWAP2 SWAP3 SWAP4 PUSH2 0xCD0 DUP10 SWAP2 DUP5 DUP7 DUP9 MLOAD AND SWAP2 SWAP1 PUSH1 0xFF DUP1 SWAP2 PUSH1 0x3 SHL SWAP4 AND DUP4 SHL SWAP3 SHL NOT AND OR SWAP1 JUMP JUMPDEST SWAP5 ADD SWAP3 SWAP2 ADD PUSH2 0xBA1 JUMP JUMPDEST PUSH4 0x4E487B71 PUSH1 0xE0 SHL PUSH1 0x0 MSTORE PUSH1 0x0 PUSH1 0x4 MSTORE PUSH1 0x24 PUSH1 0x0 REVERT JUMPDEST PUSH4 0x4E487B71 PUSH1 0xE0 SHL PUSH1 0x0 MSTORE PUSH1 0x41 PUSH1 0x4 MSTORE PUSH1 0x24 PUSH1 0x0 REVERT JUMPDEST PUSH1 0x64 SWAP1 PUSH1 0x40 MLOAD SWAP1 PUSH3 0x461BCD PUSH1 0xE5 SHL DUP3 MSTORE PUSH1 0x4 DUP3 ADD MSTORE PUSH1 0x10 PUSH1 0x24 DUP3 ADD MSTORE PUSH16 0x47616D6520696E2070726F6772657373 PUSH1 0x80 SHL PUSH1 0x44 DUP3 ADD MSTORE REVERT JUMPDEST PUSH4 0x4E487B71 PUSH1 0xE0 SHL PUSH1 0x0 MSTORE PUSH1 0x21 PUSH1 0x4 MSTORE PUSH1 0x24 PUSH1 0x0 REVERT JUMPDEST PUSH1 0x64 SWAP1 PUSH1 0x40 MLOAD SWAP1 PUSH3 0x461BCD PUSH1 0xE5 SHL DUP3 MSTORE PUSH1 0x4 DUP3 ADD MSTORE PUSH1 0x11 PUSH1 0x24 DUP3 ADD MSTORE PUSH17 0x416C726561647920696E20612067616D65 PUSH1 0x78 SHL PUSH1 0x44 DUP3 ADD MSTORE REVERT JUMPDEST PUSH1 0x64 SWAP1 PUSH1 0x40 MLOAD SWAP1 PUSH3 0x461BCD PUSH1 0xE5 SHL DUP3 MSTORE PUSH1 0x4 DUP3 ADD MSTORE PUSH1 0xC PUSH1 0x24 DUP3 ADD MSTORE PUSH12 0x11D85B59481A5CC8199D5B1B PUSH1 0xA2 SHL PUSH1 0x44 DUP3 ADD MSTORE REVERT JUMPDEST PUSH1 0x64 SWAP1 PUSH1 0x40 MLOAD SWAP1 PUSH3 0x461BCD PUSH1 0xE5 SHL DUP3 MSTORE PUSH1 0x4 DUP3 ADD MSTORE PUSH1 0x1D PUSH1 0x24 DUP3 ADD MSTORE PUSH32 0x4D7573742073656E64206578616374206275792D696E20616D6F756E74000000 PUSH1 0x44 DUP3 ADD MSTORE REVERT JUMPDEST CALLVALUE PUSH2 0xA52 JUMPI PUSH1 0x0 CALLDATASIZE PUSH1 0x3 NOT ADD SLT PUSH2 0xA52 JUMPI PUSH2 0xC71 PUSH2 0x2965 JUMP JUMPDEST PUSH2 0x27E5 JUMP JUMPDEST CALLVALUE PUSH2 0xA52 JUMPI PUSH1 0x0 CALLDATASIZE PUSH1 0x3 NOT ADD SLT PUSH2 0xA52 JUMPI PUSH1 0x20 PUSH1 0x2 SLOAD PUSH1 0x40 MLOAD SWAP1 DUP2 MSTORE RETURN JUMPDEST CALLVALUE PUSH2 0xA52 JUMPI PUSH1 0x20 DUP1 PUSH1 0x3 NOT CALLDATASIZE ADD SLT PUSH2 0xA52 JUMPI PUSH1 0x4 CALLDATALOAD PUSH2 0xE5F PUSH2 0x1D0 CALLER PUSH2 0x2A09 JUMP JUMPDEST CALLER PUSH1 0x0 MSTORE PUSH1 0x3 SWAP2 DUP3 DUP2 MSTORE PUSH2 0xE79 DUP3 PUSH1 0x40 PUSH1 0x0 KECCAK256 SLOAD EQ PUSH2 0x2ACB JUMP JUMPDEST DUP2 PUSH1 0x0 MSTORE PUSH1 0x0 DUP2 MSTORE PUSH1 0xFF PUSH1 0x5 SWAP2 DUP2 DUP4 PUSH1 0x40 PUSH1 0x0 KECCAK256 ADD SLOAD AND PUSH1 0xB DUP2 LT ISZERO PUSH2 0xD3D JUMPI DUP6 EQ DUP1 ISZERO PUSH2 0x11AD JUMPI JUMPDEST DUP1 ISZERO PUSH2 0x1189 JUMPI JUMPDEST DUP1 ISZERO PUSH2 0x1165 JUMPI JUMPDEST PUSH2 0xEB9 SWAP1 PUSH2 0x2C7A JUMP JUMPDEST PUSH1 0x2 SWAP1 DUP2 PUSH2 0xEC7 CALLER DUP8 PUSH2 0x2CC7 JUMP JUMPDEST ADD DUP1 SLOAD PUSH1 0xFF NOT SWAP1 DUP2 AND SWAP1 SWAP2 SSTORE PUSH1 0x40 DUP1 MLOAD DUP8 DUP2 MSTORE CALLER PUSH1 0x20 DUP3 ADD MSTORE SWAP2 SWAP3 SWAP2 PUSH32 0xFF58754F139821608E8CD02ACC187DD142075388EF6996DF93EE889C93A9E738 SWAP2 SWAP1 LOG1 PUSH1 0x0 SWAP5 PUSH1 0x0 JUMPDEST DUP8 PUSH1 0x0 MSTORE PUSH1 0x0 DUP4 MSTORE PUSH1 0xD PUSH1 0x40 PUSH1 0x0 KECCAK256 ADD DUP1 SLOAD DUP3 LT ISZERO PUSH2 0xF5E JUMPI DUP6 PUSH2 0xF32 DUP4 DUP10 SWAP4 PUSH2 0x29D6 JUMP JUMPDEST POP ADD SLOAD AND PUSH2 0xF49 JUMPI JUMPDEST PUSH2 0xF44 SWAP1 PUSH2 0x2956 JUMP JUMPDEST PUSH2 0xF0D JUMP JUMPDEST SWAP6 PUSH2 0xF56 PUSH2 0xF44 SWAP2 PUSH2 0x2956 JUMP JUMPDEST SWAP7 SWAP1 POP PUSH2 0xF3B JUMP JUMPDEST POP POP DUP7 DUP9 DUP7 DUP7 PUSH1 0x1 DUP11 EQ PUSH2 0xF6E JUMPI STOP JUMPDEST PUSH1 0x7 SWAP1 DUP5 PUSH1 0x0 MSTORE PUSH1 0x0 DUP8 MSTORE PUSH1 0x0 PUSH1 0x40 DUP2 KECCAK256 SWAP2 DUP2 PUSH1 0x1 DUP5 ADD SSTORE DUP3 ADD SSTORE DUP4 DUP2 ADD DUP9 DUP2 SLOAD AND SWAP1 SSTORE DUP6 DUP2 ADD DUP9 DUP2 SLOAD AND SWAP1 SSTORE PUSH1 0x0 PUSH1 0x6 DUP3 ADD SSTORE ADD DUP7 DUP2 SLOAD AND SWAP1 SSTORE PUSH1 0x0 JUMPDEST DUP5 DUP3 DUP3 AND LT PUSH2 0x1136 JUMPI POP POP POP SWAP1 DUP2 PUSH1 0x11 SWAP3 PUSH1 0x0 MSTORE PUSH1 0x0 DUP5 MSTORE PUSH1 0x8 PUSH1 0x40 PUSH1 0x0 KECCAK256 ADD DUP1 SLOAD PUSH1 0x0 DUP3 SSTORE DUP1 PUSH2 0x111B JUMPI JUMPDEST POP POP DUP1 PUSH1 0x0 MSTORE DUP3 PUSH1 0x40 PUSH1 0x0 KECCAK256 SWAP3 PUSH1 0x0 PUSH1 0xA DUP6 ADD PUSH2 0xFF8 DUP2 PUSH1 0x9 DUP9 ADD PUSH2 0x29F2 JUMP JUMPDEST PUSH2 0x1006 PUSH1 0xB DUP8 ADD DUP1 SWAP3 PUSH2 0x29F2 JUMP JUMPDEST PUSH2 0x1014 PUSH1 0xC DUP8 ADD DUP1 SWAP3 PUSH2 0x29F2 JUMP JUMPDEST SSTORE PUSH1 0xF PUSH1 0x1 DUP1 PUSH1 0xA0 SHL SUB SWAP5 DUP6 DUP4 DUP3 ADD SLOAD PUSH1 0x8 SHR AND PUSH1 0x0 MSTORE ADD DUP7 MSTORE PUSH1 0x40 PUSH1 0x0 KECCAK256 DUP8 DUP2 SLOAD AND SWAP1 SSTORE DUP3 PUSH1 0x0 MSTORE PUSH1 0x0 DUP7 MSTORE PUSH1 0xF PUSH1 0x40 PUSH1 0x0 KECCAK256 DUP6 PUSH2 0x1055 PUSH1 0xD DUP4 ADD PUSH2 0x29BB JUMP JUMPDEST POP SLOAD AND PUSH1 0x0 MSTORE ADD DUP7 MSTORE PUSH1 0x40 PUSH1 0x0 KECCAK256 DUP8 DUP2 SLOAD AND SWAP1 SSTORE DUP3 PUSH1 0x0 MSTORE PUSH1 0x0 DUP7 MSTORE PUSH1 0x10 PUSH1 0x40 PUSH1 0x0 KECCAK256 DUP6 DUP4 DUP3 ADD SLOAD PUSH1 0x8 SHR AND PUSH1 0x0 MSTORE ADD DUP7 MSTORE PUSH1 0x40 PUSH1 0x0 KECCAK256 DUP8 DUP2 SLOAD AND SWAP1 SSTORE DUP3 PUSH1 0x0 MSTORE PUSH1 0x0 DUP7 MSTORE PUSH1 0x10 PUSH1 0x40 PUSH1 0x0 KECCAK256 DUP6 PUSH2 0x10AE PUSH1 0xD DUP4 ADD PUSH2 0x29BB JUMP JUMPDEST POP SLOAD AND PUSH1 0x0 MSTORE ADD DUP7 MSTORE PUSH1 0x40 PUSH1 0x0 KECCAK256 DUP8 DUP2 SLOAD AND SWAP1 SSTORE DUP3 PUSH1 0x0 MSTORE PUSH1 0x0 DUP7 MSTORE DUP4 PUSH1 0x40 PUSH1 0x0 KECCAK256 SWAP2 DUP3 ADD SLOAD PUSH1 0x8 SHR AND PUSH1 0x0 MSTORE ADD DUP5 MSTORE PUSH1 0x40 PUSH1 0x0 KECCAK256 DUP6 DUP2 SLOAD AND SWAP1 SSTORE PUSH1 0x0 MSTORE PUSH1 0x0 DUP4 MSTORE PUSH1 0x40 PUSH1 0x0 KECCAK256 SWAP1 PUSH2 0x1102 PUSH1 0xD DUP4 ADD PUSH2 0x29BB JUMP JUMPDEST POP SLOAD AND PUSH1 0x0 MSTORE ADD SWAP1 MSTORE PUSH1 0x40 PUSH1 0x0 KECCAK256 SWAP1 DUP2 SLOAD AND SWAP1 SSTORE PUSH1 0x0 DUP1 RETURN JUMPDEST PUSH2 0x112F SWAP2 PUSH1 0x0 MSTORE DUP6 PUSH1 0x0 KECCAK256 SWAP1 DUP2 ADD SWAP1 PUSH2 0x29F2 JUMP JUMPDEST DUP6 DUP1 PUSH2 0xFD8 JUMP JUMPDEST PUSH2 0x1160 SWAP1 DUP5 PUSH1 0x0 MSTORE PUSH1 0x0 DUP8 MSTORE PUSH2 0x1150 DUP2 PUSH1 0x40 PUSH1 0x0 KECCAK256 PUSH2 0x2C61 JUMP JUMPDEST DUP5 DUP3 SLOAD SWAP2 DUP8 SHL SHL NOT AND SWAP1 SSTORE PUSH2 0x2B84 JUMP JUMPDEST PUSH2 0xFAC JUMP JUMPDEST POP DUP4 PUSH1 0x0 MSTORE PUSH1 0x0 DUP2 MSTORE DUP2 DUP4 PUSH1 0x40 PUSH1 0x0 KECCAK256 ADD SLOAD AND PUSH1 0xB DUP2 LT ISZERO PUSH2 0xD3D JUMPI PUSH1 0x9 EQ PUSH2 0xEB0 JUMP JUMPDEST POP DUP4 PUSH1 0x0 MSTORE PUSH1 0x0 DUP2 MSTORE DUP2 DUP4 PUSH1 0x40 PUSH1 0x0 KECCAK256 ADD SLOAD AND PUSH1 0xB DUP2 LT ISZERO PUSH2 0xD3D JUMPI PUSH1 0x7 EQ PUSH2 0xEA9 JUMP JUMPDEST POP DUP4 PUSH1 0x0 MSTORE PUSH1 0x0 DUP2 MSTORE DUP2 DUP4 PUSH1 0x40 PUSH1 0x0 KECCAK256 ADD SLOAD AND PUSH1 0xB DUP2 LT ISZERO PUSH2 0xD3D JUMPI DUP4 EQ PUSH2 0xEA2 JUMP JUMPDEST CALLVALUE PUSH2 0xA52 JUMPI PUSH1 0x20 CALLDATASIZE PUSH1 0x3 NOT ADD SLT PUSH2 0xA52 JUMPI PUSH1 0x4 CALLDATALOAD PUSH1 0x0 MSTORE PUSH1 0x0 PUSH1 0x20 MSTORE PUSH2 0x120 PUSH1 0x40 PUSH1 0x0 KECCAK256 PUSH1 0x1 DUP2 ADD SLOAD SWAP1 PUSH1 0x2 DUP2 ADD SLOAD SWAP1 PUSH1 0xFF PUSH1 0x3 DUP3 ADD SLOAD AND PUSH1 0x4 DUP3 ADD SLOAD PUSH1 0x5 DUP4 ADD SLOAD SWAP1 PUSH1 0x6 DUP5 ADD SLOAD SWAP3 PUSH1 0xFF PUSH1 0xD DUP2 PUSH1 0x7 DUP9 ADD SLOAD AND SWAP7 ADD SLOAD AND SWAP6 PUSH1 0x40 MLOAD SWAP8 DUP9 MSTORE PUSH1 0x20 DUP9 ADD MSTORE PUSH1 0x40 DUP8 ADD MSTORE PUSH1 0x60 DUP7 ADD MSTORE PUSH2 0x124E PUSH1 0x80 DUP7 ADD PUSH1 0xFF DUP4 AND PUSH2 0x278E JUMP JUMPDEST PUSH1 0x8 SHR PUSH1 0x1 PUSH1 0x1 PUSH1 0xA0 SHL SUB AND PUSH1 0xA0 DUP6 ADD MSTORE PUSH1 0xC0 DUP5 ADD MSTORE PUSH1 0xE0 DUP4 ADD MSTORE PUSH2 0x100 DUP3 ADD MSTORE RETURN JUMPDEST CALLVALUE PUSH2 0xA52 JUMPI PUSH1 0x0 CALLDATASIZE PUSH1 0x3 NOT ADD SLT PUSH2 0xA52 JUMPI PUSH1 0x20 PUSH1 0x40 MLOAD PUSH2 0x12C DUP2 MSTORE RETURN JUMPDEST CALLVALUE PUSH2 0xA52 JUMPI PUSH1 0x0 CALLDATASIZE PUSH1 0x3 NOT ADD SLT PUSH2 0xA52 JUMPI PUSH1 0x20 PUSH1 0x1 SLOAD PUSH1 0x40 MLOAD SWAP1 DUP2 MSTORE RETURN JUMPDEST CALLVALUE PUSH2 0xA52 JUMPI PUSH1 0x20 CALLDATASIZE PUSH1 0x3 NOT ADD SLT PUSH2 0xA52 JUMPI PUSH1 0x4 CALLDATALOAD PUSH1 0x0 MSTORE PUSH1 0x0 PUSH1 0x20 MSTORE PUSH1 0x40 PUSH1 0x0 KECCAK256 PUSH2 0x12D5 PUSH2 0x271A JUMP JUMPDEST SWAP1 PUSH1 0x5 DUP1 DUP4 MSTORE PUSH1 0xA0 CALLDATASIZE PUSH1 0x20 DUP6 ADD CALLDATACOPY PUSH1 0xB PUSH1 0x0 SWAP3 ADD SWAP2 JUMPDEST PUSH1 0xFF DUP1 DUP3 AND SWAP1 DUP4 DUP3 LT ISZERO PUSH2 0x1326 JUMPI SWAP1 PUSH2 0x131B DUP4 SWAP3 PUSH2 0x130C PUSH2 0x1321 SWAP6 DUP9 PUSH2 0x2C61 JUMP JUMPDEST SWAP1 SLOAD SWAP1 PUSH1 0x3 SHL SHR AND SWAP2 DUP8 PUSH2 0x2C4D JUMP JUMPDEST MSTORE PUSH2 0x2B84 JUMP JUMPDEST PUSH2 0x12EB JUMP JUMPDEST PUSH1 0x40 MLOAD PUSH1 0x20 DUP1 DUP3 MSTORE DUP2 SWAP1 PUSH2 0x133C SWAP1 DUP3 ADD DUP10 PUSH2 0x27B1 JUMP JUMPDEST SUB SWAP1 RETURN JUMPDEST CALLVALUE PUSH2 0xA52 JUMPI PUSH1 0x20 CALLDATASIZE PUSH1 0x3 NOT ADD SLT PUSH2 0xA52 JUMPI PUSH1 0x1 PUSH1 0x1 PUSH1 0xA0 SHL SUB PUSH2 0x1361 PUSH2 0x279B JUMP JUMPDEST AND PUSH1 0x0 MSTORE PUSH1 0x3 PUSH1 0x20 MSTORE PUSH1 0x20 PUSH1 0x40 PUSH1 0x0 KECCAK256 SLOAD PUSH1 0x40 MLOAD SWAP1 DUP2 MSTORE RETURN JUMPDEST CALLVALUE PUSH2 0xA52 JUMPI PUSH1 0x20 CALLDATASIZE PUSH1 0x3 NOT ADD SLT PUSH2 0xA52 JUMPI PUSH1 0x20 PUSH2 0x139D PUSH2 0x1398 PUSH2 0x279B JUMP JUMPDEST PUSH2 0x2E3A JUMP JUMPDEST PUSH1 0x40 MLOAD SWAP1 ISZERO ISZERO DUP2 MSTORE RETURN JUMPDEST CALLVALUE PUSH2 0xA52 JUMPI PUSH1 0x20 CALLDATASIZE PUSH1 0x3 NOT ADD SLT PUSH2 0xA52 JUMPI PUSH1 0x4 CALLDATALOAD PUSH1 0x0 MSTORE PUSH1 0x0 PUSH1 0x20 MSTORE PUSH1 0x40 PUSH1 0x0 KECCAK256 PUSH2 0x13D0 PUSH2 0x271A JUMP JUMPDEST SWAP1 PUSH1 0x5 DUP1 DUP4 MSTORE PUSH1 0xA0 CALLDATASIZE PUSH1 0x20 DUP6 ADD CALLDATACOPY PUSH1 0x0 JUMPDEST PUSH1 0xFF DUP1 DUP3 AND SWAP1 DUP4 DUP3 LT ISZERO PUSH2 0x1326 JUMPI SWAP1 PUSH2 0x131B DUP4 SWAP3 PUSH2 0x130C PUSH2 0x1402 SWAP6 DUP9 PUSH2 0x2C61 JUMP JUMPDEST PUSH2 0x13E1 JUMP JUMPDEST CALLVALUE PUSH2 0xA52 JUMPI PUSH1 0x20 CALLDATASIZE PUSH1 0x3 NOT ADD SLT PUSH2 0xA52 JUMPI PUSH1 0x4 CALLDATALOAD PUSH1 0x0 MSTORE PUSH1 0x0 PUSH1 0x20 MSTORE PUSH1 0x40 PUSH1 0x0 KECCAK256 PUSH2 0x1430 PUSH2 0x26FA JUMP JUMPDEST PUSH1 0x2 DUP1 DUP3 MSTORE PUSH1 0x40 CALLDATASIZE PUSH1 0x20 DUP5 ADD CALLDATACOPY PUSH2 0x1445 PUSH2 0x26FA JUMP JUMPDEST SWAP3 DUP2 DUP5 MSTORE PUSH1 0x40 CALLDATASIZE PUSH1 0x20 DUP7 ADD CALLDATACOPY PUSH1 0x9 DUP2 ADD SWAP1 PUSH1 0xA ADD PUSH1 0x0 JUMPDEST PUSH1 0xFF DUP1 DUP3 AND SWAP1 DUP6 DUP3 LT ISZERO PUSH2 0x14AF JUMPI SWAP1 PUSH2 0x131B DUP3 DUP5 SWAP4 PUSH2 0x147E PUSH2 0x14AA SWAP7 DUP10 PUSH2 0x2D6E JUMP JUMPDEST SWAP2 SWAP1 SLOAD PUSH1 0x3 SWAP3 DUP4 SHL SHR AND PUSH2 0x1492 DUP6 DUP13 PUSH2 0x2C4D JUMP JUMPDEST MSTORE PUSH2 0x149D DUP6 DUP9 PUSH2 0x2D6E JUMP JUMPDEST SWAP1 SLOAD SWAP2 SHL SHR AND SWAP2 DUP10 PUSH2 0x2C4D JUMP JUMPDEST PUSH2 0x145C JUMP JUMPDEST PUSH2 0x14CB DUP8 PUSH2 0x133C DUP11 PUSH1 0x40 MLOAD SWAP4 DUP5 SWAP4 PUSH1 0x40 DUP6 MSTORE PUSH1 0x40 DUP6 ADD SWAP1 PUSH2 0x27B1 JUMP JUMPDEST SWAP1 DUP4 DUP3 SUB PUSH1 0x20 DUP6 ADD MSTORE PUSH2 0x27B1 JUMP JUMPDEST CALLVALUE PUSH2 0xA52 JUMPI PUSH1 0x20 CALLDATASIZE PUSH1 0x3 NOT ADD SLT PUSH2 0xA52 JUMPI PUSH1 0x4 CALLDATALOAD PUSH1 0x0 MSTORE PUSH1 0x0 PUSH1 0x20 MSTORE PUSH1 0x20 PUSH1 0xD PUSH1 0x40 PUSH1 0x0 KECCAK256 ADD SLOAD PUSH1 0x40 MLOAD SWAP1 DUP2 MSTORE RETURN JUMPDEST CALLVALUE PUSH2 0xA52 JUMPI PUSH1 0x20 CALLDATASIZE PUSH1 0x3 NOT ADD SLT PUSH2 0xA52 JUMPI PUSH1 0x20 PUSH2 0x139D PUSH2 0x1526 PUSH2 0x279B JUMP JUMPDEST PUSH2 0x2A09 JUMP JUMPDEST CALLVALUE PUSH2 0xA52 JUMPI PUSH1 0x20 CALLDATASIZE PUSH1 0x3 NOT ADD SLT PUSH2 0xA52 JUMPI PUSH2 0x133C PUSH2 0x154A PUSH1 0x4 CALLDATALOAD PUSH2 0x2D87 JUMP JUMPDEST PUSH1 0x40 MLOAD SWAP2 DUP3 SWAP2 PUSH1 0x20 DUP4 MSTORE PUSH1 0x20 DUP4 ADD SWAP1 PUSH2 0x27B1 JUMP JUMPDEST CALLVALUE PUSH2 0xA52 JUMPI PUSH1 0x0 CALLDATASIZE PUSH1 0x3 NOT ADD SLT PUSH2 0xA52 JUMPI PUSH1 0x20 PUSH1 0x40 MLOAD PUSH1 0x2 DUP2 MSTORE RETURN JUMPDEST CALLVALUE PUSH2 0xA52 JUMPI PUSH2 0x6A0 CALLDATASIZE PUSH1 0x3 NOT ADD SLT PUSH2 0xA52 JUMPI PUSH1 0x4 CALLDATALOAD CALLDATASIZE PUSH2 0x6A4 GT PUSH2 0xA52 JUMPI PUSH2 0x15A4 PUSH2 0x1D0 CALLER PUSH2 0x2A09 JUMP JUMPDEST CALLER PUSH1 0x0 MSTORE PUSH1 0x3 PUSH1 0x20 MSTORE PUSH2 0x15BD DUP2 PUSH1 0x40 PUSH1 0x0 KECCAK256 SLOAD EQ PUSH2 0x2ACB JUMP JUMPDEST DUP1 PUSH1 0x0 MSTORE PUSH1 0x0 PUSH1 0x20 MSTORE PUSH1 0xFF PUSH1 0x5 PUSH1 0x40 PUSH1 0x0 KECCAK256 ADD SLOAD AND PUSH1 0xB DUP2 LT ISZERO PUSH2 0xD3D JUMPI PUSH32 0xAAAE52E5B91CCA7D2229253616739BE98CCF73573C2FF08217C0277F4266A9CF SWAP2 PUSH2 0x160C PUSH1 0x2 PUSH2 0x344 SWAP4 EQ PUSH2 0x2B0A JUMP JUMPDEST DUP1 PUSH1 0x0 MSTORE PUSH1 0x0 PUSH1 0x20 MSTORE PUSH2 0x1634 PUSH1 0x1 DUP1 PUSH1 0xA0 SHL SUB PUSH1 0x5 PUSH1 0x40 PUSH1 0x0 KECCAK256 ADD SLOAD PUSH1 0x8 SHR AND CALLER EQ ISZERO PUSH2 0x2B44 JUMP JUMPDEST PUSH1 0x0 DUP2 DUP2 MSTORE PUSH1 0x20 DUP2 DUP2 MSTORE PUSH1 0x40 SWAP2 DUP3 SWAP1 KECCAK256 PUSH1 0x5 DUP2 ADD DUP1 SLOAD PUSH1 0x3 PUSH1 0xFF NOT SWAP2 DUP3 AND DUP2 OR SWAP1 SWAP3 SSTORE SWAP2 ADD DUP1 SLOAD SWAP1 SWAP2 AND PUSH1 0x1 OR SWAP1 SSTORE DUP2 MLOAD SWAP3 DUP4 MSTORE CALLER SWAP1 DUP4 ADD MSTORE SWAP1 SWAP2 DUP3 SWAP2 DUP3 ADD SWAP1 JUMP JUMPDEST CALLVALUE PUSH2 0xA52 JUMPI PUSH1 0x60 CALLDATASIZE PUSH1 0x3 NOT ADD SLT PUSH2 0xA52 JUMPI CALLDATASIZE PUSH1 0x23 SLT ISZERO PUSH2 0xA52 JUMPI PUSH2 0x1698 PUSH2 0x273A JUMP JUMPDEST PUSH1 0x44 DUP2 CALLDATASIZE DUP3 GT PUSH2 0xA52 JUMPI PUSH1 0x4 SWAP1 JUMPDEST DUP3 DUP3 LT PUSH2 0x18C2 JUMPI POP PUSH1 0x1 PUSH1 0x1 PUSH1 0xA0 SHL SUB SWAP3 DUP3 CALLDATALOAD SWAP3 SWAP2 POP DUP4 DUP4 AND SWAP1 DUP2 DUP5 SUB PUSH2 0xA52 JUMPI CALLER PUSH1 0x0 MSTORE PUSH1 0x20 SWAP4 PUSH1 0x3 DUP6 MSTORE PUSH1 0x40 PUSH1 0x0 KECCAK256 SLOAD SWAP4 DUP5 ISZERO PUSH2 0x188F JUMPI DUP5 PUSH1 0x0 MSTORE PUSH1 0x0 DUP7 MSTORE PUSH1 0xFF SWAP4 PUSH1 0x5 SWAP8 DUP6 DUP10 PUSH1 0x40 PUSH1 0x0 KECCAK256 ADD SLOAD AND PUSH1 0xB DUP2 LT ISZERO PUSH2 0xD3D JUMPI PUSH1 0x3 EQ SWAP2 DUP3 PUSH2 0x186F JUMPI JUMPDEST DUP3 ISZERO PUSH2 0x181F JUMPI JUMPDEST POP POP ISZERO PUSH2 0x17E4 JUMPI POP PUSH2 0x1725 PUSH1 0x3 SWAP2 DUP6 PUSH2 0x2CC7 JUMP JUMPDEST ADD PUSH1 0x0 SWAP2 PUSH1 0x0 JUMPDEST DUP7 PUSH1 0x2 DUP3 LT PUSH2 0x17B9 JUMPI POP POP POP SSTORE DUP2 PUSH1 0x0 MSTORE PUSH1 0x0 DUP4 MSTORE DUP4 PUSH1 0x40 PUSH1 0x0 KECCAK256 ADD SLOAD AND SWAP3 PUSH1 0xB DUP5 LT ISZERO PUSH2 0xD3D JUMPI PUSH1 0x0 PUSH2 0x344 SWAP4 PUSH1 0x3 PUSH1 0x0 DUP1 MLOAD PUSH1 0x20 PUSH2 0x2E7C DUP4 CODECOPY DUP2 MLOAD SWAP2 MSTORE SWAP7 EQ DUP3 EQ PUSH2 0x179F JUMPI DUP4 DUP3 MSTORE MSTORE PUSH1 0x40 PUSH1 0x0 KECCAK256 ADD DUP1 SLOAD PUSH1 0xFF NOT AND PUSH1 0x4 OR SWAP1 SSTORE JUMPDEST PUSH1 0x40 DUP1 MLOAD SWAP2 DUP3 MSTORE CALLER PUSH1 0x20 DUP4 ADD MSTORE SWAP1 SWAP2 DUP3 SWAP2 DUP3 ADD SWAP1 JUMP JUMPDEST DUP4 DUP3 MSTORE MSTORE PUSH1 0x40 PUSH1 0x0 KECCAK256 ADD DUP1 SLOAD PUSH1 0xFF NOT AND PUSH1 0x6 OR SWAP1 SSTORE PUSH2 0x1789 JUMP JUMPDEST PUSH2 0x17DB DUP4 SWAP6 DUP4 DUP9 PUSH1 0x1 SWAP6 SWAP7 MLOAD AND SWAP2 SWAP1 PUSH1 0xFF DUP1 SWAP2 PUSH1 0x3 SHL SWAP4 AND DUP4 SHL SWAP3 SHL NOT AND OR SWAP1 JUMP JUMPDEST SWAP5 ADD SWAP2 ADD PUSH2 0x172C JUMP JUMPDEST DUP6 PUSH21 0x2BB937B73390383430B9B29037B910383630BCB2B9 PUSH1 0x59 SHL PUSH1 0x64 SWAP3 PUSH1 0x40 MLOAD SWAP3 PUSH3 0x461BCD PUSH1 0xE5 SHL DUP5 MSTORE PUSH1 0x4 DUP5 ADD MSTORE PUSH1 0x15 PUSH1 0x24 DUP5 ADD MSTORE DUP3 ADD MSTORE REVERT JUMPDEST SWAP1 SWAP2 POP DUP7 PUSH1 0x0 MSTORE PUSH1 0x0 DUP9 MSTORE DUP6 DUP10 PUSH1 0x40 PUSH1 0x0 KECCAK256 ADD SLOAD AND PUSH1 0xB DUP2 LT ISZERO PUSH2 0xD3D JUMPI PUSH1 0x4 EQ SWAP2 DUP3 PUSH2 0x1850 JUMPI JUMPDEST POP POP DUP9 DUP1 PUSH2 0x1711 JUMP JUMPDEST SWAP1 SWAP2 POP DUP7 PUSH1 0x0 MSTORE PUSH1 0x0 DUP9 MSTORE DUP9 PUSH1 0x40 PUSH1 0x0 KECCAK256 ADD SLOAD PUSH1 0x8 SHR AND EQ DUP9 DUP1 PUSH2 0x1847 JUMP JUMPDEST SWAP2 POP DUP7 PUSH1 0x0 MSTORE PUSH1 0x0 DUP9 MSTORE DUP1 DUP10 PUSH1 0x40 PUSH1 0x0 KECCAK256 ADD SLOAD PUSH1 0x8 SHR AND DUP3 EQ ISZERO SWAP2 PUSH2 0x170A JUMP JUMPDEST DUP6 PUSH13 0x4E6F7420696E20612067616D65 PUSH1 0x98 SHL PUSH1 0x64 SWAP3 PUSH1 0x40 MLOAD SWAP3 PUSH3 0x461BCD PUSH1 0xE5 SHL DUP5 MSTORE PUSH1 0x4 DUP5 ADD MSTORE PUSH1 0xD PUSH1 0x24 DUP5 ADD MSTORE DUP3 ADD MSTORE REVERT JUMPDEST PUSH1 0x20 DUP1 SWAP2 PUSH2 0x18CF DUP5 PUSH2 0x2780 JUMP JUMPDEST DUP2 MSTORE ADD SWAP2 ADD SWAP1 PUSH2 0x16A6 JUMP JUMPDEST CALLVALUE PUSH2 0xA52 JUMPI PUSH1 0x20 CALLDATASIZE PUSH1 0x3 NOT ADD SLT PUSH2 0xA52 JUMPI PUSH1 0x4 CALLDATALOAD PUSH1 0x0 MSTORE PUSH1 0x0 PUSH1 0x20 MSTORE PUSH2 0x140 PUSH1 0x40 PUSH1 0x0 KECCAK256 PUSH1 0x1 DUP2 ADD SLOAD SWAP1 PUSH1 0xFF PUSH1 0x2 DUP3 ADD SLOAD SWAP2 DUP2 PUSH1 0x3 DUP3 ADD SLOAD AND PUSH1 0x4 DUP3 ADD SLOAD PUSH1 0x5 DUP4 ADD SLOAD SWAP1 PUSH1 0x6 DUP5 ADD SLOAD SWAP3 PUSH1 0xC PUSH1 0x7 DUP7 ADD SLOAD SWAP6 ADD SLOAD SWAP7 PUSH1 0x40 MLOAD SWAP9 DUP10 MSTORE PUSH1 0x20 DUP10 ADD MSTORE PUSH1 0x40 DUP9 ADD MSTORE PUSH1 0x60 DUP8 ADD MSTORE PUSH2 0x1953 PUSH1 0x80 DUP8 ADD DUP6 DUP4 AND PUSH2 0x278E JUMP JUMPDEST PUSH1 0x8 SWAP1 DUP2 SHR PUSH1 0x1 PUSH1 0x1 PUSH1 0xA0 SHL SUB AND PUSH1 0xA0 DUP8 ADD MSTORE PUSH1 0xC0 DUP7 ADD SWAP2 SWAP1 SWAP2 MSTORE DUP2 DUP4 AND PUSH1 0xE0 DUP7 ADD MSTORE SHR AND PUSH2 0x100 DUP4 ADD MSTORE PUSH2 0x120 DUP3 ADD MSTORE RETURN JUMPDEST PUSH1 0x20 DUP1 PUSH1 0x3 NOT CALLDATASIZE ADD SLT PUSH2 0xA52 JUMPI PUSH1 0x4 CALLDATALOAD PUSH2 0x19A2 PUSH2 0x1D0 CALLER PUSH2 0x2A09 JUMP JUMPDEST CALLER PUSH1 0x0 MSTORE PUSH1 0x3 DUP3 MSTORE PUSH2 0x19BA DUP2 PUSH1 0x40 PUSH1 0x0 KECCAK256 SLOAD EQ PUSH2 0x2ACB JUMP JUMPDEST DUP1 PUSH1 0x0 MSTORE PUSH1 0x0 DUP3 MSTORE PUSH1 0xFF SWAP2 PUSH1 0x5 SWAP3 DUP1 DUP5 PUSH1 0x40 PUSH1 0x0 KECCAK256 ADD SLOAD AND PUSH1 0xB SWAP1 DUP2 DUP2 LT ISZERO PUSH2 0xD3D JUMPI PUSH1 0x3 EQ DUP1 ISZERO PUSH2 0x1D86 JUMPI JUMPDEST DUP1 ISZERO PUSH2 0x1D63 JUMPI JUMPDEST DUP1 ISZERO PUSH2 0x1D40 JUMPI JUMPDEST PUSH2 0x19FE SWAP1 PUSH2 0x2C7A JUMP JUMPDEST DUP4 PUSH1 0x0 MSTORE PUSH1 0x0 DUP4 MSTORE PUSH1 0x2 PUSH1 0x40 PUSH1 0x0 KECCAK256 ADD SLOAD CALLVALUE LT PUSH2 0x1D0B JUMPI DUP4 PUSH1 0x0 MSTORE PUSH1 0x0 DUP4 MSTORE PUSH1 0xE PUSH1 0x40 PUSH1 0x0 KECCAK256 ADD CALLER PUSH1 0x0 MSTORE DUP4 MSTORE PUSH1 0x40 PUSH1 0x0 KECCAK256 PUSH2 0x1A3B CALLVALUE DUP3 SLOAD PUSH2 0x2CBA JUMP JUMPDEST SWAP1 SSTORE DUP4 PUSH1 0x0 MSTORE PUSH1 0x0 DUP4 MSTORE PUSH1 0x1 PUSH1 0x40 PUSH1 0x0 KECCAK256 ADD PUSH2 0x1A58 CALLVALUE DUP3 SLOAD PUSH2 0x2CBA JUMP JUMPDEST SWAP1 SSTORE DUP4 PUSH1 0x0 MSTORE PUSH1 0x0 DUP4 MSTORE DUP2 PUSH1 0x3 PUSH1 0x40 PUSH1 0x0 KECCAK256 CALLVALUE PUSH1 0x2 DUP3 ADD SSTORE CALLVALUE PUSH1 0x6 DUP3 ADD SSTORE ADD SLOAD AND PUSH1 0x1 DUP2 ADD DUP1 SWAP2 GT PUSH2 0x1CF5 JUMPI DUP5 PUSH1 0x0 MSTORE PUSH1 0x0 DUP5 MSTORE PUSH1 0xD PUSH1 0x40 PUSH1 0x0 KECCAK256 ADD SLOAD DUP1 ISZERO PUSH2 0x1CDF JUMPI DUP4 SWAP2 MOD AND SWAP2 DUP5 PUSH1 0x0 MSTORE PUSH1 0x0 DUP5 MSTORE PUSH1 0x40 PUSH1 0x0 KECCAK256 PUSH1 0x1 PUSH1 0x3 DUP3 ADD SWAP5 PUSH1 0xFF NOT SWAP6 DUP2 DUP8 DUP3 SLOAD AND OR SWAP1 SSTORE EQ SWAP1 DUP2 PUSH2 0x1C69 JUMPI JUMPDEST POP PUSH2 0x1AF5 JUMPI JUMPDEST PUSH1 0x0 DUP1 MLOAD PUSH1 0x20 PUSH2 0x2E9C DUP4 CODECOPY DUP2 MLOAD SWAP2 MSTORE PUSH1 0x60 DUP7 DUP7 PUSH1 0x40 MLOAD SWAP2 DUP3 MSTORE CALLER SWAP1 DUP3 ADD MSTORE CALLVALUE PUSH1 0x40 DUP3 ADD MSTORE LOG1 STOP JUMPDEST DUP5 PUSH1 0x0 MSTORE PUSH1 0x0 DUP5 MSTORE DUP1 DUP7 PUSH1 0x40 PUSH1 0x0 KECCAK256 ADD SLOAD AND DUP3 DUP2 LT ISZERO PUSH2 0xD3D JUMPI PUSH1 0x3 SUB PUSH2 0x1B66 JUMPI POP POP SWAP1 DUP3 SWAP2 PUSH1 0x4 PUSH1 0x0 DUP1 MLOAD PUSH1 0x20 PUSH2 0x2E9C DUP4 CODECOPY DUP2 MLOAD SWAP2 MSTORE SWAP6 PUSH1 0x60 SWAP6 PUSH1 0x0 MSTORE PUSH1 0x0 DUP5 MSTORE PUSH1 0x40 PUSH1 0x0 KECCAK256 ADD SWAP2 DUP3 SLOAD AND OR SWAP1 SSTORE JUMPDEST DUP2 PUSH1 0x0 MSTORE PUSH1 0x0 DUP2 MSTORE PUSH1 0x0 PUSH1 0x6 PUSH1 0x40 DUP3 KECCAK256 DUP3 PUSH1 0x2 DUP3 ADD SSTORE ADD SSTORE SWAP1 SWAP2 DUP5 DUP1 PUSH2 0x1ACE JUMP JUMPDEST DUP5 PUSH1 0x0 MSTORE PUSH1 0x0 DUP5 MSTORE DUP1 DUP7 PUSH1 0x40 PUSH1 0x0 KECCAK256 ADD SLOAD AND DUP3 DUP2 LT ISZERO PUSH2 0xD3D JUMPI DUP7 SUB PUSH2 0x1BB9 JUMPI POP POP SWAP1 DUP3 SWAP2 PUSH1 0x6 PUSH1 0x0 DUP1 MLOAD PUSH1 0x20 PUSH2 0x2E9C DUP4 CODECOPY DUP2 MLOAD SWAP2 MSTORE SWAP6 PUSH1 0x60 SWAP6 PUSH1 0x0 MSTORE PUSH1 0x0 DUP5 MSTORE PUSH1 0x40 PUSH1 0x0 KECCAK256 ADD SWAP2 DUP3 SLOAD AND OR SWAP1 SSTORE PUSH2 0x1B45 JUMP JUMPDEST DUP5 PUSH1 0x0 MSTORE PUSH1 0x0 DUP5 MSTORE DUP1 DUP7 PUSH1 0x40 PUSH1 0x0 KECCAK256 ADD SLOAD AND DUP3 DUP2 LT ISZERO PUSH2 0xD3D JUMPI PUSH1 0x7 SUB PUSH2 0x1C0D JUMPI POP POP SWAP1 DUP3 SWAP2 PUSH1 0x8 PUSH1 0x0 DUP1 MLOAD PUSH1 0x20 PUSH2 0x2E9C DUP4 CODECOPY DUP2 MLOAD SWAP2 MSTORE SWAP6 PUSH1 0x60 SWAP6 PUSH1 0x0 MSTORE PUSH1 0x0 DUP5 MSTORE PUSH1 0x40 PUSH1 0x0 KECCAK256 ADD SWAP2 DUP3 SLOAD AND OR SWAP1 SSTORE PUSH2 0x1B45 JUMP JUMPDEST PUSH1 0x0 DUP6 DUP2 MSTORE DUP1 DUP6 MSTORE PUSH1 0x40 SWAP1 KECCAK256 DUP7 ADD SLOAD AND SWAP4 SWAP3 SWAP2 SWAP1 DUP5 LT ISZERO PUSH2 0xD3D JUMPI PUSH1 0x0 DUP1 MLOAD PUSH1 0x20 PUSH2 0x2E9C DUP4 CODECOPY DUP2 MLOAD SWAP2 MSTORE SWAP5 PUSH1 0x9 PUSH1 0x60 SWAP6 EQ PUSH2 0x1C4A JUMPI JUMPDEST POP POP PUSH2 0x1B45 JUMP JUMPDEST PUSH1 0xA SWAP1 DUP5 PUSH1 0x0 MSTORE PUSH1 0x0 DUP5 MSTORE PUSH1 0x40 PUSH1 0x0 KECCAK256 ADD SWAP2 DUP3 SLOAD AND OR SWAP1 SSTORE DUP5 DUP1 PUSH2 0x1C43 JUMP JUMPDEST SWAP1 POP PUSH1 0xD DUP2 ADD DUP1 SLOAD ISZERO PUSH2 0x1CC9 JUMPI PUSH1 0x0 MSTORE PUSH1 0xE PUSH1 0x1 DUP1 PUSH1 0xA0 SHL SUB SWAP2 DUP3 DUP8 PUSH1 0x0 KECCAK256 SLOAD AND PUSH1 0x0 MSTORE ADD DUP6 MSTORE PUSH1 0xE PUSH1 0x40 PUSH1 0x0 KECCAK256 SLOAD SWAP2 DUP8 PUSH1 0x0 MSTORE PUSH1 0x0 DUP8 MSTORE PUSH1 0x40 PUSH1 0x0 KECCAK256 SWAP1 PUSH2 0x1CB3 PUSH1 0xD DUP4 ADD PUSH2 0x29BB JUMP JUMPDEST POP SLOAD AND PUSH1 0x0 MSTORE ADD DUP6 MSTORE PUSH1 0x40 PUSH1 0x0 KECCAK256 SLOAD EQ DUP8 PUSH2 0x1AC8 JUMP JUMPDEST PUSH4 0x4E487B71 PUSH1 0xE0 SHL PUSH1 0x0 MSTORE PUSH1 0x32 PUSH1 0x4 MSTORE PUSH1 0x24 PUSH1 0x0 REVERT JUMPDEST PUSH4 0x4E487B71 PUSH1 0xE0 SHL PUSH1 0x0 MSTORE PUSH1 0x12 PUSH1 0x4 MSTORE PUSH1 0x24 PUSH1 0x0 REVERT JUMPDEST PUSH4 0x4E487B71 PUSH1 0xE0 SHL PUSH1 0x0 MSTORE PUSH1 0x11 PUSH1 0x4 MSTORE PUSH1 0x24 PUSH1 0x0 REVERT JUMPDEST PUSH1 0x40 MLOAD PUSH3 0x461BCD PUSH1 0xE5 SHL DUP2 MSTORE PUSH1 0x4 DUP2 ADD DUP5 SWAP1 MSTORE PUSH1 0xD PUSH1 0x24 DUP3 ADD MSTORE PUSH13 0x10995D081D1BDBC81CDB585B1B PUSH1 0x9A SHL PUSH1 0x44 DUP3 ADD MSTORE PUSH1 0x64 SWAP1 REVERT JUMPDEST POP DUP4 PUSH1 0x0 MSTORE PUSH1 0x0 DUP4 MSTORE DUP2 DUP6 PUSH1 0x40 PUSH1 0x0 KECCAK256 ADD SLOAD AND DUP2 DUP2 LT ISZERO PUSH2 0xD3D JUMPI PUSH1 0x9 EQ PUSH2 0x19F5 JUMP JUMPDEST POP DUP4 PUSH1 0x0 MSTORE PUSH1 0x0 DUP4 MSTORE DUP2 DUP6 PUSH1 0x40 PUSH1 0x0 KECCAK256 ADD SLOAD AND DUP2 DUP2 LT ISZERO PUSH2 0xD3D JUMPI PUSH1 0x7 EQ PUSH2 0x19EE JUMP JUMPDEST POP DUP4 PUSH1 0x0 MSTORE PUSH1 0x0 DUP4 MSTORE DUP2 DUP6 PUSH1 0x40 PUSH1 0x0 KECCAK256 ADD SLOAD AND DUP2 DUP2 LT ISZERO PUSH2 0xD3D JUMPI DUP6 EQ PUSH2 0x19E7 JUMP JUMPDEST CALLVALUE PUSH2 0xA52 JUMPI PUSH1 0x20 DUP1 PUSH1 0x3 NOT CALLDATASIZE ADD SLT PUSH2 0xA52 JUMPI PUSH1 0x4 CALLDATALOAD PUSH2 0x1DC9 PUSH2 0x1D0 CALLER PUSH2 0x2A09 JUMP JUMPDEST CALLER PUSH1 0x0 MSTORE PUSH1 0x3 DUP3 MSTORE PUSH2 0x1DE1 DUP2 PUSH1 0x40 PUSH1 0x0 KECCAK256 SLOAD EQ PUSH2 0x2ACB JUMP JUMPDEST DUP1 PUSH1 0x0 MSTORE PUSH1 0x0 DUP3 MSTORE PUSH1 0x5 SWAP2 PUSH2 0x1E09 PUSH1 0x1 DUP1 PUSH1 0xA0 SHL SUB DUP5 PUSH1 0x40 PUSH1 0x0 KECCAK256 ADD SLOAD PUSH1 0x8 SHR AND CALLER EQ PUSH2 0x2BBE JUMP JUMPDEST DUP2 PUSH1 0x0 MSTORE PUSH1 0x0 DUP2 MSTORE PUSH1 0xFF DUP1 DUP5 PUSH1 0x40 PUSH1 0x0 KECCAK256 ADD SLOAD AND PUSH1 0xB SWAP1 DUP2 DUP2 LT ISZERO PUSH2 0xD3D JUMPI PUSH1 0x4 EQ DUP1 ISZERO PUSH2 0x1FE6 JUMPI JUMPDEST DUP1 ISZERO PUSH2 0x1FC3 JUMPI JUMPDEST PUSH2 0x1E42 SWAP1 PUSH2 0x2BFD JUMP JUMPDEST DUP4 PUSH1 0x0 MSTORE PUSH1 0x0 DUP4 MSTORE DUP2 DUP6 PUSH1 0x40 PUSH1 0x0 KECCAK256 ADD SLOAD AND DUP2 DUP2 LT ISZERO PUSH2 0xD3D JUMPI PUSH1 0x4 SUB PUSH2 0x1ECF JUMPI POP SWAP1 DUP3 SWAP2 PUSH32 0xFB937EEF594C7D7BF4F31139D9E04E3B3408489824224CCB18E6583E1C11DD12 SWAP5 PUSH1 0x40 SWAP5 PUSH1 0x0 MSTORE PUSH1 0x0 DUP4 MSTORE PUSH1 0x3 PUSH1 0x7 DUP7 PUSH1 0x0 KECCAK256 DUP4 DUP2 ADD PUSH1 0xFF NOT SWAP5 DUP6 DUP3 SLOAD AND OR SWAP1 SSTORE ADD SWAP2 DUP3 SLOAD AND OR SWAP1 SSTORE JUMPDEST DUP3 PUSH1 0x0 MSTORE PUSH1 0x0 DUP3 MSTORE PUSH1 0x7 DUP5 PUSH1 0x0 KECCAK256 ADD SLOAD AND SWAP1 DUP4 MLOAD SWAP3 DUP4 MSTORE DUP3 ADD MSTORE LOG1 STOP JUMPDEST DUP4 PUSH1 0x0 MSTORE PUSH1 0x0 DUP4 MSTORE DUP2 DUP6 PUSH1 0x40 PUSH1 0x0 KECCAK256 ADD SLOAD AND DUP2 DUP2 LT ISZERO PUSH2 0xD3D JUMPI PUSH1 0x6 SUB PUSH2 0x1F45 JUMPI POP SWAP1 DUP3 SWAP2 PUSH32 0xFB937EEF594C7D7BF4F31139D9E04E3B3408489824224CCB18E6583E1C11DD12 SWAP5 PUSH1 0x40 SWAP5 PUSH1 0x0 MSTORE PUSH1 0x0 DUP4 MSTORE PUSH1 0x4 PUSH1 0x7 DUP7 PUSH1 0x0 KECCAK256 SWAP3 DUP4 ADD SWAP3 PUSH1 0xFF NOT SWAP4 DUP3 DUP6 DUP3 SLOAD AND OR SWAP1 SSTORE ADD SWAP2 DUP3 SLOAD AND OR SWAP1 SSTORE PUSH2 0x1EB2 JUMP JUMPDEST SWAP3 SWAP2 SWAP1 DUP3 PUSH1 0x0 MSTORE PUSH1 0x0 DUP3 MSTORE DUP1 DUP6 PUSH1 0x40 PUSH1 0x0 KECCAK256 ADD SLOAD AND SWAP4 DUP5 LT ISZERO PUSH2 0xD3D JUMPI PUSH32 0xFB937EEF594C7D7BF4F31139D9E04E3B3408489824224CCB18E6583E1C11DD12 SWAP5 PUSH1 0x8 PUSH1 0x40 SWAP6 EQ PUSH2 0x1F95 JUMPI JUMPDEST POP PUSH2 0x1EB2 JUMP JUMPDEST DUP4 PUSH1 0x0 MSTORE PUSH1 0x0 DUP4 MSTORE DUP5 PUSH1 0x0 KECCAK256 SWAP1 PUSH1 0x7 DUP2 DUP4 ADD SWAP3 PUSH1 0xFF NOT SWAP4 PUSH1 0x9 DUP6 DUP3 SLOAD AND OR SWAP1 SSTORE ADD SWAP2 DUP3 SLOAD AND OR SWAP1 SSTORE DUP6 PUSH2 0x1F8F JUMP JUMPDEST POP DUP4 PUSH1 0x0 MSTORE PUSH1 0x0 DUP4 MSTORE DUP2 DUP6 PUSH1 0x40 PUSH1 0x0 KECCAK256 ADD SLOAD AND DUP2 DUP2 LT ISZERO PUSH2 0xD3D JUMPI PUSH1 0x8 EQ PUSH2 0x1E39 JUMP JUMPDEST POP DUP4 PUSH1 0x0 MSTORE PUSH1 0x0 DUP4 MSTORE DUP2 DUP6 PUSH1 0x40 PUSH1 0x0 KECCAK256 ADD SLOAD AND DUP2 DUP2 LT ISZERO PUSH2 0xD3D JUMPI PUSH1 0x6 EQ PUSH2 0x1E32 JUMP JUMPDEST CALLVALUE PUSH2 0xA52 JUMPI PUSH1 0x40 CALLDATASIZE PUSH1 0x3 NOT ADD SLT PUSH2 0xA52 JUMPI PUSH1 0x4 CALLDATALOAD PUSH1 0x24 DUP1 CALLDATALOAD SWAP1 PUSH8 0xFFFFFFFFFFFFFFFF DUP1 DUP4 GT PUSH2 0xA52 JUMPI CALLDATASIZE PUSH1 0x23 DUP5 ADD SLT ISZERO PUSH2 0xA52 JUMPI DUP3 PUSH1 0x4 ADD CALLDATALOAD SWAP1 DUP2 GT PUSH2 0xA52 JUMPI CALLDATASIZE DUP3 DUP3 PUSH1 0x5 SHL DUP6 ADD ADD GT PUSH2 0xA52 JUMPI PUSH2 0x2063 PUSH2 0x1D0 CALLER PUSH2 0x2A09 JUMP JUMPDEST CALLER PUSH1 0x0 MSTORE PUSH1 0x20 SWAP3 PUSH1 0x3 DUP5 MSTORE PUSH2 0x207E DUP6 PUSH1 0x40 PUSH1 0x0 KECCAK256 SLOAD EQ PUSH2 0x2ACB JUMP JUMPDEST DUP5 PUSH1 0x0 MSTORE PUSH1 0x0 DUP5 MSTORE PUSH1 0xFF PUSH1 0x5 PUSH1 0x40 PUSH1 0x0 KECCAK256 ADD SLOAD AND SWAP3 PUSH1 0xB DUP5 LT ISZERO PUSH2 0x47B JUMPI PUSH2 0x20A9 PUSH1 0x1 DUP1 SWAP6 EQ PUSH2 0x2B0A JUMP JUMPDEST DUP6 PUSH1 0x0 MSTORE PUSH1 0x0 DUP6 MSTORE PUSH2 0x20CF PUSH1 0x1 DUP1 PUSH1 0xA0 SHL SUB PUSH1 0x5 PUSH1 0x40 PUSH1 0x0 KECCAK256 ADD SLOAD PUSH1 0x8 SHR AND CALLER EQ PUSH2 0x2BBE JUMP JUMPDEST PUSH1 0x34 DUP4 SUB PUSH2 0x21A9 JUMPI DUP6 PUSH1 0x0 MSTORE PUSH1 0x0 DUP6 MSTORE PUSH1 0x8 PUSH1 0x40 PUSH1 0x0 KECCAK256 ADD SWAP2 PUSH1 0x1 PUSH1 0x40 SHL DUP5 GT PUSH2 0x2194 JUMPI DUP3 SLOAD DUP5 DUP5 SSTORE DUP1 DUP6 LT PUSH2 0x2177 JUMPI JUMPDEST POP ADD SWAP1 PUSH1 0x0 MSTORE DUP4 PUSH1 0x0 KECCAK256 PUSH1 0x0 JUMPDEST DUP4 DUP2 LT PUSH2 0x2166 JUMPI PUSH1 0x0 DUP8 DUP2 MSTORE DUP1 DUP8 MSTORE PUSH1 0x40 SWAP1 DUP2 SWAP1 KECCAK256 PUSH1 0x5 ADD DUP1 SLOAD PUSH1 0xFF NOT AND PUSH1 0x2 OR SWAP1 SSTORE DUP1 MLOAD DUP9 DUP2 MSTORE CALLER PUSH1 0x20 DUP3 ADD MSTORE PUSH32 0xEEA5492B09B3CB556950C67035E9740A81F515A83D939DD9C7D039F4DDD7B7E2 SWAP2 DUP2 SWAP1 DUP2 ADD PUSH2 0x344 JUMP JUMPDEST DUP3 CALLDATALOAD DUP3 DUP3 ADD SSTORE SWAP2 DUP6 ADD SWAP2 DUP5 ADD PUSH2 0x210D JUMP JUMPDEST PUSH2 0x218E SWAP1 DUP5 PUSH1 0x0 MSTORE DUP6 DUP9 PUSH1 0x0 KECCAK256 SWAP2 DUP3 ADD SWAP2 ADD PUSH2 0x29F2 JUMP JUMPDEST DUP8 PUSH2 0x2100 JUMP JUMPDEST POP PUSH4 0x4E487B71 PUSH1 0xE0 SHL PUSH1 0x0 SWAP1 DUP2 MSTORE PUSH1 0x41 PUSH1 0x4 MSTORE REVERT JUMPDEST DUP5 PUSH1 0x11 PUSH1 0x64 SWAP3 PUSH1 0x40 MLOAD SWAP3 PUSH3 0x461BCD PUSH1 0xE5 SHL DUP5 MSTORE PUSH1 0x4 DUP5 ADD MSTORE DUP3 ADD MSTORE PUSH17 0x496E76616C6964206465636B2073697A65 PUSH1 0x78 SHL PUSH1 0x44 DUP3 ADD MSTORE REVERT JUMPDEST CALLVALUE PUSH2 0xA52 JUMPI PUSH2 0x160 CALLDATASIZE PUSH1 0x3 NOT ADD SLT PUSH2 0xA52 JUMPI CALLDATASIZE PUSH1 0x43 SLT ISZERO PUSH2 0xA52 JUMPI PUSH2 0x2203 PUSH2 0x273A JUMP JUMPDEST DUP1 CALLDATASIZE PUSH1 0x64 GT PUSH2 0xA52 JUMPI PUSH1 0x24 SWAP1 JUMPDEST PUSH1 0x64 DUP3 LT PUSH2 0x26E2 JUMPI DUP3 CALLDATASIZE PUSH1 0x83 SLT ISZERO PUSH2 0xA52 JUMPI PUSH2 0x222A PUSH2 0x273A JUMP JUMPDEST SWAP1 DUP2 PUSH1 0xA4 SWAP3 CALLDATASIZE DUP5 GT PUSH2 0xA52 JUMPI PUSH1 0x64 SWAP1 JUMPDEST DUP5 DUP3 LT PUSH2 0x26CA JUMPI POP POP CALLDATASIZE PUSH1 0xC3 SLT ISZERO PUSH2 0xA52 JUMPI PUSH1 0x40 MLOAD SWAP3 PUSH1 0xA0 DUP5 ADD DUP5 DUP2 LT PUSH8 0xFFFFFFFFFFFFFFFF DUP3 GT OR PUSH2 0xCF0 JUMPI PUSH1 0x40 MSTORE DUP4 SWAP1 CALLDATASIZE PUSH2 0x144 GT PUSH2 0xA52 JUMPI SWAP1 JUMPDEST PUSH2 0x144 DUP3 LT PUSH2 0x26B2 JUMPI POP POP PUSH2 0x228E PUSH2 0x1D0 CALLER PUSH2 0x2A09 JUMP JUMPDEST CALLER PUSH1 0x0 MSTORE PUSH1 0x3 PUSH1 0x20 MSTORE PUSH2 0x22A9 PUSH1 0x4 CALLDATALOAD PUSH1 0x40 PUSH1 0x0 KECCAK256 SLOAD EQ PUSH2 0x2ACB JUMP JUMPDEST PUSH1 0x4 CALLDATALOAD PUSH1 0x0 MSTORE PUSH1 0x0 PUSH1 0x20 MSTORE PUSH1 0xFF PUSH1 0x5 PUSH1 0x40 PUSH1 0x0 KECCAK256 ADD SLOAD AND PUSH1 0xB DUP2 LT ISZERO PUSH2 0xD3D JUMPI PUSH1 0x2 PUSH2 0x22D5 SWAP2 EQ PUSH2 0x2B0A JUMP JUMPDEST PUSH1 0x4 CALLDATALOAD PUSH1 0x0 MSTORE PUSH1 0x0 PUSH1 0x20 MSTORE PUSH2 0x2300 PUSH1 0x5 PUSH1 0x40 PUSH1 0x0 KECCAK256 ADD SLOAD PUSH1 0x1 DUP1 PUSH1 0xA0 SHL SUB SWAP1 PUSH1 0x8 SHR AND CALLER EQ ISZERO PUSH2 0x2B44 JUMP JUMPDEST PUSH1 0x4 CALLDATALOAD PUSH1 0x0 MSTORE PUSH1 0x0 PUSH1 0x20 MSTORE PUSH1 0x34 PUSH1 0x8 PUSH1 0x40 PUSH1 0x0 KECCAK256 ADD SLOAD SUB PUSH2 0x266D JUMPI PUSH1 0x0 JUMPDEST PUSH1 0x2 PUSH1 0xFF DUP3 AND LT ISZERO PUSH2 0x2447 JUMPI PUSH1 0x0 DUP1 PUSH1 0x0 JUMPDEST PUSH1 0x34 PUSH1 0xFF DUP3 AND LT PUSH2 0x23AF JUMPI POP DUP2 PUSH2 0x23A7 JUMPI JUMPDEST POP ISZERO PUSH2 0x2356 JUMPI PUSH2 0x2351 SWAP1 PUSH2 0x2B84 JUMP JUMPDEST PUSH2 0x231E JUMP JUMPDEST PUSH1 0x40 MLOAD PUSH3 0x461BCD PUSH1 0xE5 SHL DUP2 MSTORE PUSH1 0x20 PUSH1 0x4 DUP3 ADD MSTORE PUSH1 0x24 DUP1 DUP3 ADD MSTORE PUSH32 0x53656C6563746564206361726473206E6F7420696E20656E6372797074656420 PUSH1 0x44 DUP3 ADD MSTORE PUSH4 0x6465636B PUSH1 0xE0 SHL PUSH1 0x64 DUP3 ADD MSTORE PUSH1 0x84 SWAP1 REVERT JUMPDEST SWAP1 POP DUP6 PUSH2 0x2342 JUMP JUMPDEST PUSH1 0x4 CALLDATALOAD PUSH1 0x0 MSTORE PUSH1 0x0 PUSH1 0x20 MSTORE PUSH1 0xFF PUSH2 0x23CD DUP3 PUSH1 0x8 PUSH1 0x40 PUSH1 0x0 KECCAK256 ADD PUSH2 0x2B95 JUMP JUMPDEST SWAP1 SLOAD SWAP1 PUSH1 0x3 SHL SHR AND PUSH1 0xFF PUSH2 0x23E3 DUP2 DUP8 AND DUP10 PUSH2 0x2BAD JUMP JUMPDEST MLOAD AND EQ PUSH2 0x243E JUMPI JUMPDEST PUSH1 0x4 CALLDATALOAD PUSH1 0x0 MSTORE PUSH1 0x0 PUSH1 0x20 MSTORE PUSH1 0xFF PUSH2 0x2409 DUP3 PUSH1 0x8 PUSH1 0x40 PUSH1 0x0 KECCAK256 ADD PUSH2 0x2B95 JUMP JUMPDEST SWAP1 SLOAD SWAP1 PUSH1 0x3 SHL SHR AND PUSH1 0xFF PUSH2 0x241F DUP2 DUP8 AND DUP9 PUSH2 0x2BAD JUMP JUMPDEST MLOAD AND EQ PUSH2 0x2435 JUMPI JUMPDEST PUSH2 0x2430 SWAP1 PUSH2 0x2B84 JUMP JUMPDEST PUSH2 0x2330 JUMP JUMPDEST PUSH1 0x1 SWAP2 POP PUSH2 0x2427 JUMP JUMPDEST PUSH1 0x1 SWAP3 POP PUSH2 0x23EB JUMP JUMPDEST POP SWAP2 SWAP1 PUSH1 0x0 JUMPDEST PUSH1 0x5 PUSH1 0xFF DUP3 AND LT ISZERO PUSH2 0x252F JUMPI PUSH1 0x0 DUP1 JUMPDEST PUSH1 0x34 PUSH1 0xFF DUP3 AND LT PUSH2 0x24D2 JUMPI POP ISZERO PUSH2 0x247C JUMPI PUSH2 0x2477 SWAP1 PUSH2 0x2B84 JUMP JUMPDEST PUSH2 0x244D JUMP JUMPDEST PUSH1 0x40 MLOAD PUSH3 0x461BCD PUSH1 0xE5 SHL DUP2 MSTORE PUSH1 0x20 PUSH1 0x4 DUP3 ADD MSTORE PUSH1 0x28 PUSH1 0x24 DUP3 ADD MSTORE PUSH32 0x53656C656374656420666C6F702063617264206E6F7420696E20656E63727970 PUSH1 0x44 DUP3 ADD MSTORE PUSH8 0x746564206465636B PUSH1 0xC0 SHL PUSH1 0x64 DUP3 ADD MSTORE PUSH1 0x84 SWAP1 REVERT JUMPDEST PUSH1 0x4 CALLDATALOAD PUSH1 0x0 MSTORE PUSH1 0x0 PUSH1 0x20 MSTORE PUSH1 0xFF PUSH2 0x24F0 DUP3 PUSH1 0x8 PUSH1 0x40 PUSH1 0x0 KECCAK256 ADD PUSH2 0x2B95 JUMP JUMPDEST SWAP1 SLOAD SWAP1 PUSH1 0x3 SHL SHR AND PUSH1 0x5 PUSH1 0xFF DUP6 AND LT ISZERO PUSH2 0x1CC9 JUMPI PUSH1 0xFF PUSH2 0x1FE0 DUP6 PUSH1 0x5 SHL AND DUP8 ADD MLOAD AND EQ PUSH2 0x2526 JUMPI JUMPDEST PUSH2 0x2521 SWAP1 PUSH2 0x2B84 JUMP JUMPDEST PUSH2 0x245D JUMP JUMPDEST PUSH1 0x1 SWAP2 POP PUSH2 0x2518 JUMP JUMPDEST POP SWAP2 PUSH1 0x4 CALLDATALOAD PUSH1 0x0 MSTORE PUSH1 0x0 PUSH1 0x20 MSTORE PUSH1 0x40 PUSH1 0x0 KECCAK256 SWAP3 PUSH1 0x0 SWAP1 PUSH1 0x0 JUMPDEST PUSH1 0x2 DUP2 LT PUSH2 0x263F JUMPI POP POP PUSH1 0x9 DUP5 ADD SSTORE PUSH1 0x0 SWAP1 PUSH1 0x0 JUMPDEST PUSH1 0x2 DUP2 LT PUSH2 0x2611 JUMPI POP POP PUSH1 0xA DUP4 ADD SSTORE PUSH1 0x0 SWAP1 PUSH1 0x0 JUMPDEST PUSH1 0x5 DUP2 LT PUSH2 0x25E3 JUMPI POP POP PUSH1 0xB DUP3 ADD SSTORE PUSH2 0x144 CALLDATALOAD PUSH1 0xC DUP3 ADD SSTORE PUSH1 0x5 DUP2 ADD DUP1 SLOAD PUSH1 0x3 PUSH1 0xFF NOT SWAP2 DUP3 AND DUP2 OR SWAP1 SWAP3 SSTORE SWAP2 ADD DUP1 SLOAD SWAP1 SWAP2 AND PUSH1 0x1 OR SWAP1 SSTORE PUSH1 0x40 DUP1 MLOAD PUSH1 0x4 CALLDATALOAD DUP2 MSTORE CALLER PUSH1 0x20 DUP3 ADD MSTORE PUSH32 0x842DDE5E856943F7A73420433E43EA971476948D651730CC213B609349014FB SWAP2 DUP2 SWAP1 DUP2 ADD PUSH2 0x344 JUMP JUMPDEST SWAP1 SWAP2 PUSH1 0x20 PUSH2 0x2608 PUSH1 0x1 SWAP3 DUP5 PUSH1 0xFF DUP8 MLOAD AND SWAP2 SWAP1 PUSH1 0xFF DUP1 SWAP2 PUSH1 0x3 SHL SWAP4 AND DUP4 SHL SWAP3 SHL NOT AND OR SWAP1 JUMP JUMPDEST SWAP4 ADD SWAP2 ADD PUSH2 0x2572 JUMP JUMPDEST SWAP1 SWAP2 PUSH1 0x20 PUSH2 0x2636 PUSH1 0x1 SWAP3 DUP5 PUSH1 0xFF DUP8 MLOAD AND SWAP2 SWAP1 PUSH1 0xFF DUP1 SWAP2 PUSH1 0x3 SHL SWAP4 AND DUP4 SHL SWAP3 SHL NOT AND OR SWAP1 JUMP JUMPDEST SWAP4 ADD SWAP2 ADD PUSH2 0x255D JUMP JUMPDEST SWAP1 SWAP2 PUSH1 0x20 PUSH2 0x2664 PUSH1 0x1 SWAP3 DUP5 PUSH1 0xFF DUP8 MLOAD AND SWAP2 SWAP1 PUSH1 0xFF DUP1 SWAP2 PUSH1 0x3 SHL SWAP4 AND DUP4 SHL SWAP3 SHL NOT AND OR SWAP1 JUMP JUMPDEST SWAP4 ADD SWAP2 ADD PUSH2 0x2548 JUMP JUMPDEST PUSH1 0x40 MLOAD PUSH3 0x461BCD PUSH1 0xE5 SHL DUP2 MSTORE PUSH1 0x20 PUSH1 0x4 DUP3 ADD MSTORE PUSH1 0x1B PUSH1 0x24 DUP3 ADD MSTORE PUSH32 0x4E6F20656E63727970746564206465636B20617661696C61626C650000000000 PUSH1 0x44 DUP3 ADD MSTORE PUSH1 0x64 SWAP1 REVERT JUMPDEST PUSH1 0x20 DUP1 SWAP2 PUSH2 0x26BF DUP5 PUSH2 0x2780 JUMP JUMPDEST DUP2 MSTORE ADD SWAP2 ADD SWAP1 PUSH2 0x2277 JUMP JUMPDEST PUSH1 0x20 DUP1 SWAP2 PUSH2 0x26D7 DUP5 PUSH2 0x2780 JUMP JUMPDEST DUP2 MSTORE ADD SWAP2 ADD SWAP1 PUSH2 0x223A JUMP JUMPDEST PUSH1 0x20 DUP1 SWAP2 PUSH2 0x26EF DUP5 PUSH2 0x2780 JUMP JUMPDEST DUP2 MSTORE ADD SWAP2 ADD SWAP1 PUSH2 0x2210 JUMP JUMPDEST PUSH1 0x40 MLOAD SWAP1 PUSH1 0x60 DUP3 ADD DUP3 DUP2 LT PUSH8 0xFFFFFFFFFFFFFFFF DUP3 GT OR PUSH2 0xCF0 JUMPI PUSH1 0x40 MSTORE JUMP JUMPDEST PUSH1 0x40 MLOAD SWAP1 PUSH1 0xC0 DUP3 ADD DUP3 DUP2 LT PUSH8 0xFFFFFFFFFFFFFFFF DUP3 GT OR PUSH2 0xCF0 JUMPI PUSH1 0x40 MSTORE JUMP JUMPDEST PUSH1 0x40 MLOAD SWAP1 PUSH1 0x40 DUP3 ADD DUP3 DUP2 LT PUSH8 0xFFFFFFFFFFFFFFFF DUP3 GT OR PUSH2 0xCF0 JUMPI PUSH1 0x40 MSTORE JUMP JUMPDEST PUSH1 0x40 MLOAD SWAP2 SWAP1 PUSH1 0x1F ADD PUSH1 0x1F NOT AND DUP3 ADD PUSH8 0xFFFFFFFFFFFFFFFF DUP2 GT DUP4 DUP3 LT OR PUSH2 0xCF0 JUMPI PUSH1 0x40 MSTORE JUMP JUMPDEST CALLDATALOAD SWAP1 PUSH1 0xFF DUP3 AND DUP3 SUB PUSH2 0xA52 JUMPI JUMP JUMPDEST SWAP1 PUSH1 0xB DUP3 LT ISZERO PUSH2 0xD3D JUMPI MSTORE JUMP JUMPDEST PUSH1 0x4 CALLDATALOAD SWAP1 PUSH1 0x1 PUSH1 0x1 PUSH1 0xA0 SHL SUB DUP3 AND DUP3 SUB PUSH2 0xA52 JUMPI JUMP JUMPDEST SWAP1 DUP2 MLOAD DUP1 DUP3 MSTORE PUSH1 0x20 DUP1 DUP1 SWAP4 ADD SWAP4 ADD SWAP2 PUSH1 0x0 JUMPDEST DUP3 DUP2 LT PUSH2 0x27D1 JUMPI POP POP POP POP SWAP1 JUMP JUMPDEST DUP4 MLOAD DUP6 MSTORE SWAP4 DUP2 ADD SWAP4 SWAP3 DUP2 ADD SWAP3 PUSH1 0x1 ADD PUSH2 0x27C3 JUMP JUMPDEST CALLVALUE PUSH2 0xA52 JUMPI PUSH1 0x60 CALLDATASIZE PUSH1 0x3 NOT ADD SLT PUSH2 0xA52 JUMPI PUSH1 0x4 CALLDATALOAD CALLDATASIZE PUSH1 0x64 GT PUSH2 0xA52 JUMPI PUSH2 0x280D PUSH2 0x1D0 CALLER PUSH2 0x2A09 JUMP JUMPDEST PUSH1 0x0 CALLER DUP2 MSTORE PUSH1 0x20 SWAP2 PUSH1 0x3 DUP4 MSTORE PUSH2 0x2828 DUP2 PUSH1 0x40 DUP5 KECCAK256 SLOAD EQ PUSH2 0x2ACB JUMP JUMPDEST DUP1 DUP3 MSTORE DUP2 DUP4 MSTORE PUSH1 0xFF SWAP3 DUP4 PUSH1 0x5 PUSH1 0x40 DUP6 KECCAK256 ADD SLOAD AND SWAP1 PUSH1 0xB DUP3 LT ISZERO PUSH2 0x292A JUMPI SWAP4 PUSH2 0x2853 PUSH1 0x2 DUP1 SWAP4 EQ PUSH2 0x2B0A JUMP JUMPDEST DUP3 DUP5 MSTORE DUP4 DUP6 MSTORE PUSH2 0x2877 PUSH1 0x1 DUP1 PUSH1 0xA0 SHL SUB PUSH1 0x5 PUSH1 0x40 DUP8 KECCAK256 ADD SLOAD PUSH1 0x8 SHR AND CALLER EQ ISZERO PUSH2 0x2B44 JUMP JUMPDEST DUP3 DUP5 MSTORE DUP4 DUP6 MSTORE PUSH1 0x40 DUP5 KECCAK256 SWAP2 PUSH1 0x24 SWAP1 DUP6 SWAP7 DUP7 JUMPDEST DUP3 DUP2 LT PUSH2 0x28EC JUMPI PUSH1 0xA DUP7 ADD DUP10 SWAP1 SSTORE PUSH1 0x5 DUP7 ADD DUP1 SLOAD PUSH1 0x3 PUSH1 0xFF NOT SWAP2 DUP3 AND DUP2 OR SWAP1 SWAP3 SSTORE SWAP1 DUP8 ADD DUP1 SLOAD SWAP1 SWAP2 AND PUSH1 0x1 OR SWAP1 SSTORE PUSH1 0x40 DUP1 MLOAD DUP9 DUP2 MSTORE CALLER PUSH1 0x20 DUP3 ADD MSTORE DUP10 SWAP2 PUSH32 0x842DDE5E856943F7A73420433E43EA971476948D651730CC213B609349014FB SWAP2 LOG1 DUP1 RETURN JUMPDEST SWAP1 SWAP2 SWAP3 SWAP4 SWAP8 DUP5 CALLDATALOAD SWAP1 DUP10 DUP3 AND DUP3 SUB PUSH2 0x2926 JUMPI PUSH2 0x291A PUSH1 0x1 SWAP3 DUP5 DUP7 SWAP4 SWAP1 PUSH1 0xFF DUP1 SWAP2 PUSH1 0x3 SHL SWAP4 AND DUP4 SHL SWAP3 SHL NOT AND OR SWAP1 JUMP JUMPDEST SWAP10 SWAP6 ADD SWAP4 SWAP3 SWAP2 ADD PUSH2 0x2889 JUMP JUMPDEST DUP9 DUP1 REVERT JUMPDEST PUSH4 0x4E487B71 PUSH1 0xE0 SHL DUP5 MSTORE PUSH1 0x21 PUSH1 0x4 MSTORE PUSH1 0x24 DUP5 REVERT JUMPDEST PUSH8 0xFFFFFFFFFFFFFFFF DUP2 GT PUSH2 0xCF0 JUMPI PUSH1 0x5 SHL PUSH1 0x20 ADD SWAP1 JUMP JUMPDEST PUSH1 0x0 NOT DUP2 EQ PUSH2 0x1CF5 JUMPI PUSH1 0x1 ADD SWAP1 JUMP JUMPDEST PUSH2 0x2970 PUSH1 0x1 SLOAD PUSH2 0x2956 JUMP JUMPDEST DUP1 PUSH1 0x1 SSTORE PUSH1 0x0 MSTORE PUSH1 0x0 PUSH1 0x20 MSTORE PUSH1 0x5 PUSH1 0x40 PUSH1 0x0 KECCAK256 ADD PUSH1 0xFF NOT DUP2 SLOAD AND SWAP1 SSTORE PUSH32 0xBD19C47E9925EB6F7BE8BB1C13A841E0240AAEAF17F217E90022E9C8EB66877F PUSH1 0x20 PUSH1 0x1 SLOAD PUSH1 0x40 MLOAD SWAP1 DUP2 MSTORE LOG1 JUMP JUMPDEST DUP1 SLOAD PUSH1 0x1 LT ISZERO PUSH2 0x1CC9 JUMPI PUSH1 0x0 MSTORE PUSH1 0x5 PUSH1 0x20 PUSH1 0x0 KECCAK256 ADD SWAP1 PUSH1 0x0 SWAP1 JUMP JUMPDEST DUP1 SLOAD DUP3 LT ISZERO PUSH2 0x1CC9 JUMPI PUSH1 0x0 MSTORE PUSH1 0x5 PUSH1 0x20 PUSH1 0x0 KECCAK256 SWAP2 MUL ADD SWAP1 PUSH1 0x0 SWAP1 JUMP JUMPDEST DUP2 DUP2 LT PUSH2 0x29FD JUMPI POP POP JUMP JUMPDEST PUSH1 0x0 DUP2 SSTORE PUSH1 0x1 ADD PUSH2 0x29F2 JUMP JUMPDEST PUSH1 0x1 PUSH1 0x1 PUSH1 0xA0 SHL SUB SWAP1 DUP2 AND PUSH1 0x0 DUP2 DUP2 MSTORE PUSH1 0x3 PUSH1 0x20 SWAP1 DUP2 MSTORE PUSH1 0x40 DUP1 DUP4 KECCAK256 SLOAD SWAP5 SWAP3 SWAP2 DUP6 ISZERO PUSH2 0x2A88 JUMPI SWAP1 DUP3 JUMPDEST DUP7 DUP5 MSTORE DUP4 DUP4 MSTORE PUSH1 0xD DUP3 DUP6 KECCAK256 ADD DUP1 SLOAD DUP3 LT ISZERO PUSH2 0x2A7D JUMPI DUP6 PUSH2 0x2A53 DUP4 DUP10 SWAP4 PUSH2 0x29D6 JUMP JUMPDEST POP SLOAD AND EQ PUSH2 0x2A71 JUMPI PUSH1 0xD SWAP3 PUSH2 0x2A68 DUP6 SWAP3 PUSH2 0x2956 JUMP JUMPDEST SWAP2 POP SWAP3 POP PUSH2 0x2A32 JUMP JUMPDEST POP POP POP POP POP POP POP PUSH1 0x1 SWAP1 JUMP JUMPDEST POP POP POP POP SWAP3 POP POP POP SWAP1 JUMP JUMPDEST POP POP SWAP3 POP POP POP SWAP1 JUMP JUMPDEST ISZERO PUSH2 0x2A98 JUMPI JUMP JUMPDEST PUSH1 0x40 MLOAD PUSH3 0x461BCD PUSH1 0xE5 SHL DUP2 MSTORE PUSH1 0x20 PUSH1 0x4 DUP3 ADD MSTORE PUSH1 0xB PUSH1 0x24 DUP3 ADD MSTORE PUSH11 0x4E6F7420696E2067616D65 PUSH1 0xA8 SHL PUSH1 0x44 DUP3 ADD MSTORE PUSH1 0x64 SWAP1 REVERT JUMPDEST ISZERO PUSH2 0x2AD2 JUMPI JUMP JUMPDEST PUSH1 0x40 MLOAD PUSH3 0x461BCD PUSH1 0xE5 SHL DUP2 MSTORE PUSH1 0x20 PUSH1 0x4 DUP3 ADD MSTORE PUSH1 0x10 PUSH1 0x24 DUP3 ADD MSTORE PUSH16 0x4E6F7420696E20746869732067616D65 PUSH1 0x80 SHL PUSH1 0x44 DUP3 ADD MSTORE PUSH1 0x64 SWAP1 REVERT JUMPDEST ISZERO PUSH2 0x2B11 JUMPI JUMP JUMPDEST PUSH1 0x40 MLOAD PUSH3 0x461BCD PUSH1 0xE5 SHL DUP2 MSTORE PUSH1 0x20 PUSH1 0x4 DUP3 ADD MSTORE PUSH1 0xB PUSH1 0x24 DUP3 ADD MSTORE PUSH11 0x57726F6E67207068617365 PUSH1 0xA8 SHL PUSH1 0x44 DUP3 ADD MSTORE PUSH1 0x64 SWAP1 REVERT JUMPDEST ISZERO PUSH2 0x2B4B JUMPI JUMP JUMPDEST PUSH1 0x40 MLOAD PUSH3 0x461BCD PUSH1 0xE5 SHL DUP2 MSTORE PUSH1 0x20 PUSH1 0x4 DUP3 ADD MSTORE PUSH1 0x11 PUSH1 0x24 DUP3 ADD MSTORE PUSH17 0x2737BA1039B2B1B7B73210383630BCB2B9 PUSH1 0x79 SHL PUSH1 0x44 DUP3 ADD MSTORE PUSH1 0x64 SWAP1 REVERT JUMPDEST PUSH1 0xFF AND PUSH1 0xFF DUP2 EQ PUSH2 0x1CF5 JUMPI PUSH1 0x1 ADD SWAP1 JUMP JUMPDEST DUP1 SLOAD DUP3 LT ISZERO PUSH2 0x1CC9 JUMPI PUSH1 0x0 MSTORE PUSH1 0x20 PUSH1 0x0 KECCAK256 ADD SWAP1 PUSH1 0x0 SWAP1 JUMP JUMPDEST SWAP1 PUSH1 0x2 DUP2 LT ISZERO PUSH2 0x1CC9 JUMPI PUSH1 0x5 SHL ADD SWAP1 JUMP JUMPDEST ISZERO PUSH2 0x2BC5 JUMPI JUMP JUMPDEST PUSH1 0x40 MLOAD PUSH3 0x461BCD PUSH1 0xE5 SHL DUP2 MSTORE PUSH1 0x20 PUSH1 0x4 DUP3 ADD MSTORE PUSH1 0x10 PUSH1 0x24 DUP3 ADD MSTORE PUSH16 0x2737BA103334B939BA10383630BCB2B9 PUSH1 0x81 SHL PUSH1 0x44 DUP3 ADD MSTORE PUSH1 0x64 SWAP1 REVERT JUMPDEST ISZERO PUSH2 0x2C04 JUMPI JUMP JUMPDEST PUSH1 0x40 MLOAD PUSH3 0x461BCD PUSH1 0xE5 SHL DUP2 MSTORE PUSH1 0x20 PUSH1 0x4 DUP3 ADD MSTORE PUSH1 0x14 PUSH1 0x24 DUP3 ADD MSTORE PUSH20 0x4E6F742064656372797074696F6E207068617365 PUSH1 0x60 SHL PUSH1 0x44 DUP3 ADD MSTORE PUSH1 0x64 SWAP1 REVERT JUMPDEST DUP1 MLOAD ISZERO PUSH2 0x1CC9 JUMPI PUSH1 0x20 ADD SWAP1 JUMP JUMPDEST DUP1 MLOAD DUP3 LT ISZERO PUSH2 0x1CC9 JUMPI PUSH1 0x20 SWAP2 PUSH1 0x5 SHL ADD ADD SWAP1 JUMP JUMPDEST SWAP2 SWAP1 SWAP2 PUSH1 0x5 DUP4 LT ISZERO PUSH2 0x1CC9 JUMPI PUSH1 0x1F SWAP1 DUP4 PUSH1 0x5 SHR ADD SWAP3 AND SWAP1 JUMP JUMPDEST ISZERO PUSH2 0x2C81 JUMPI JUMP JUMPDEST PUSH1 0x40 MLOAD PUSH3 0x461BCD PUSH1 0xE5 SHL DUP2 MSTORE PUSH1 0x20 PUSH1 0x4 DUP3 ADD MSTORE PUSH1 0x11 PUSH1 0x24 DUP3 ADD MSTORE PUSH17 0x4E6F742062657474696E67207068617365 PUSH1 0x78 SHL PUSH1 0x44 DUP3 ADD MSTORE PUSH1 0x64 SWAP1 REVERT JUMPDEST SWAP2 SWAP1 DUP3 ADD DUP1 SWAP3 GT PUSH2 0x1CF5 JUMPI JUMP JUMPDEST SWAP1 SWAP2 PUSH1 0x0 JUMPDEST DUP3 PUSH1 0x0 MSTORE PUSH1 0x20 PUSH1 0x0 DUP2 MSTORE PUSH1 0xD SWAP1 PUSH1 0x40 SWAP1 DUP3 DUP3 PUSH1 0x0 KECCAK256 ADD DUP1 SLOAD DUP6 LT ISZERO PUSH2 0x2D36 JUMPI DUP5 PUSH2 0x2CF5 SWAP2 PUSH2 0x29D6 JUMP JUMPDEST POP SLOAD PUSH1 0x1 PUSH1 0x1 PUSH1 0xA0 SHL SUB DUP9 DUP2 AND SWAP2 AND EQ PUSH2 0x2D1A JUMPI POP POP POP PUSH2 0x2D15 SWAP1 PUSH2 0x2956 JUMP JUMPDEST PUSH2 0x2CCC JUMP JUMPDEST PUSH1 0x0 SWAP2 SWAP3 SWAP4 SWAP5 SWAP7 POP PUSH2 0x2D32 SWAP6 DUP3 MSTORE MSTORE PUSH1 0x0 KECCAK256 ADD PUSH2 0x29D6 JUMP JUMPDEST POP SWAP1 JUMP JUMPDEST PUSH1 0x40 MLOAD PUSH3 0x461BCD PUSH1 0xE5 SHL DUP2 MSTORE PUSH1 0x20 PUSH1 0x4 DUP3 ADD MSTORE PUSH1 0x10 PUSH1 0x24 DUP3 ADD MSTORE PUSH16 0x141B185E595C881B9BDD08199BDD5B99 PUSH1 0x82 SHL PUSH1 0x44 DUP3 ADD MSTORE PUSH1 0x64 SWAP1 REVERT JUMPDEST SWAP2 SWAP1 SWAP2 PUSH1 0x2 DUP4 LT ISZERO PUSH2 0x1CC9 JUMPI PUSH1 0x1F SWAP1 DUP4 PUSH1 0x5 SHR ADD SWAP3 AND SWAP1 JUMP JUMPDEST SWAP1 PUSH1 0x0 SWAP2 DUP3 MSTORE DUP2 PUSH1 0x20 MSTORE PUSH1 0x8 PUSH1 0x40 DUP4 KECCAK256 ADD SWAP2 DUP3 SLOAD DUP1 PUSH2 0x2DDE JUMPI POP PUSH1 0x40 MLOAD SWAP2 SWAP3 POP PUSH1 0x20 DUP3 ADD PUSH8 0xFFFFFFFFFFFFFFFF DUP2 GT DUP4 DUP3 LT OR PUSH2 0x2DCA JUMPI PUSH1 0x40 MSTORE DUP1 DUP3 MSTORE CALLDATASIZE DUP2 CALLDATACOPY SWAP1 JUMP JUMPDEST PUSH4 0x4E487B71 PUSH1 0xE0 SHL DUP3 MSTORE PUSH1 0x41 PUSH1 0x4 MSTORE PUSH1 0x24 DUP3 REVERT JUMPDEST PUSH2 0x2DEA PUSH2 0x193 DUP3 PUSH2 0x293E JUMP JUMPDEST DUP2 DUP2 MSTORE SWAP2 PUSH1 0x1F NOT PUSH2 0x2DFA DUP4 PUSH2 0x293E JUMP JUMPDEST ADD CALLDATASIZE PUSH1 0x20 DUP6 ADD CALLDATACOPY JUMPDEST DUP2 DUP2 LT PUSH2 0x2E10 JUMPI POP SWAP1 SWAP3 POP POP JUMP JUMPDEST DUP1 PUSH2 0x2E1E PUSH2 0x2E35 SWAP3 DUP8 PUSH2 0x2B95 JUMP JUMPDEST SWAP1 SLOAD SWAP1 PUSH1 0x3 SHL SHR PUSH2 0x2E2F DUP3 DUP7 PUSH2 0x2C4D JUMP JUMPDEST MSTORE PUSH2 0x2956 JUMP JUMPDEST PUSH2 0x2E02 JUMP JUMPDEST PUSH1 0x1 PUSH1 0x1 PUSH1 0xA0 SHL SUB SWAP1 DUP2 AND PUSH1 0x0 DUP2 DUP2 MSTORE PUSH1 0x3 PUSH1 0x20 MSTORE PUSH1 0x40 DUP2 KECCAK256 SLOAD SWAP2 SWAP3 SWAP2 DUP1 ISZERO PUSH2 0x2E74 JUMPI DUP2 PUSH1 0x40 SWAP2 PUSH1 0x5 SWAP4 MSTORE DUP1 PUSH1 0x20 MSTORE KECCAK256 ADD SLOAD PUSH1 0x8 SHR AND EQ SWAP1 JUMP JUMPDEST POP SWAP2 POP POP SWAP1 JUMP INVALID CREATE GASPRICE DUP5 0xBF PUSH11 0xCB8665499842A163A11967 GAS LOG0 0xD8 0x5C CALLDATACOPY EXTCODEHASH CODECOPY MULMOD SWAP5 PUSH22 0x6715F3CADD36D4378EF4558C1E2A851456FB0106171F PUSH8 0xCC4BC8ABE3F27346 LOG4 PUSH29 0xC6010A291DA264697066735822122007458CB0BEB8D1CC72C0C906F432 BALANCE 0x5E ADD 0xD1 0xD6 PUSH31 0x130B3CB1CC9983F9FF0A021C64736F6C634300081300330000000000000000 "},"methodIdentifiers":{"MAX_PLAYERS()":"4411b3eb","TURN_TIME()":"a8aad94d","buyInAmount()":"d165dac2","createNewGame()":"eb87eb5e","currentGameId()":"536a3ddc","dealCommunityCards(uint256)":"0dafa3fd","decryptCards(uint8[2],address)":"1e820031","decryptCommunityCards(uint256,uint8[])":"f312bcb8","encryptCards(uint256,uint8[2])":"c2cb4b38","fold(uint256)":"bff7a00b","games(uint256)":"117a5b90","getCurrentGameId()":"a2635401","getGameBasicState(uint256)":"b919cf16","getGameCommunityCards(uint256)":"66656eff","getGameEncryptedDeck(uint256)":"54836287","getGameFlopCards(uint256)":"844973b4","getGamePlayerCards(uint256)":"642f8128","getNumberOfPlayers(uint256)":"62436d9d","getPlayerGameId(address)":"773b549d","isFirstPlayer(address)":"71a2e89c","isPlayerInGame(address)":"574a5b20","joinGame(uint256)":"efaa55a0","placeBet(uint256)":"10fe7c48","playerGameId(address)":"25b05c88","selectCards(uint256,uint8[2],uint8[2],uint8[5],uint256)":"041eb141","selectOwnCards(uint256,uint8[2])":"db6371b2","submitEncryptedDeck(uint256,uint256[])":"0bbac290","submitSortedDeck(uint256,uint8[52])":"33d93417"}}}}}