{
  "_format": "hh-sol-artifact-1",
  "contractName": "PokerGame",
  "sourceName": "contracts/PokerGame.sol",
  "abi": [
    {
      "inputs": [],
      "stateMutability": "nonpayable",
      "type": "constructor"
    },
    {
      "anonymous": false,
      "inputs": [
        {
          "indexed": false,
          "internalType": "uint256",
          "name": "gameId",
          "type": "uint256"
        },
        {
          "indexed": false,
          "internalType": "address",
          "name": "player",
          "type": "address"
        }
      ],
      "name": "CardsDecrypted",
      "type": "event"
    },
    {
      "anonymous": false,
      "inputs": [
        {
          "indexed": false,
          "internalType": "uint256",
          "name": "gameId",
          "type": "uint256"
        },
        {
          "indexed": false,
          "internalType": "address",
          "name": "player",
          "type": "address"
        }
      ],
      "name": "CardsSelected",
      "type": "event"
    },
    {
      "anonymous": false,
      "inputs": [
        {
          "indexed": false,
          "internalType": "uint256",
          "name": "gameId",
          "type": "uint256"
        },
        {
          "indexed": false,
          "internalType": "uint8",
          "name": "count",
          "type": "uint8"
        }
      ],
      "name": "CommunityCardsDealt",
      "type": "event"
    },
    {
      "anonymous": false,
      "inputs": [
        {
          "indexed": false,
          "internalType": "uint256",
          "name": "gameId",
          "type": "uint256"
        },
        {
          "indexed": false,
          "internalType": "address",
          "name": "player",
          "type": "address"
        }
      ],
      "name": "DeckEncrypted",
      "type": "event"
    },
    {
      "anonymous": false,
      "inputs": [
        {
          "indexed": false,
          "internalType": "uint256",
          "name": "gameId",
          "type": "uint256"
        },
        {
          "indexed": false,
          "internalType": "address",
          "name": "player",
          "type": "address"
        }
      ],
      "name": "DeckSorted",
      "type": "event"
    },
    {
      "anonymous": false,
      "inputs": [
        {
          "indexed": false,
          "internalType": "uint256",
          "name": "gameId",
          "type": "uint256"
        }
      ],
      "name": "GameCreated",
      "type": "event"
    },
    {
      "anonymous": false,
      "inputs": [
        {
          "indexed": false,
          "internalType": "uint256",
          "name": "gameId",
          "type": "uint256"
        },
        {
          "indexed": false,
          "internalType": "uint256",
          "name": "timestamp",
          "type": "uint256"
        }
      ],
      "name": "NewRound",
      "type": "event"
    },
    {
      "anonymous": false,
      "inputs": [
        {
          "indexed": false,
          "internalType": "uint256",
          "name": "gameId",
          "type": "uint256"
        },
        {
          "indexed": false,
          "internalType": "address",
          "name": "player",
          "type": "address"
        },
        {
          "indexed": false,
          "internalType": "uint256",
          "name": "amount",
          "type": "uint256"
        }
      ],
      "name": "PlayerBet",
      "type": "event"
    },
    {
      "anonymous": false,
      "inputs": [
        {
          "indexed": false,
          "internalType": "uint256",
          "name": "gameId",
          "type": "uint256"
        },
        {
          "indexed": false,
          "internalType": "address",
          "name": "player",
          "type": "address"
        }
      ],
      "name": "PlayerFolded",
      "type": "event"
    },
    {
      "anonymous": false,
      "inputs": [
        {
          "indexed": false,
          "internalType": "uint256",
          "name": "gameId",
          "type": "uint256"
        },
        {
          "indexed": false,
          "internalType": "address",
          "name": "player",
          "type": "address"
        }
      ],
      "name": "PlayerJoined",
      "type": "event"
    },
    {
      "inputs": [],
      "name": "MAX_PLAYERS",
      "outputs": [
        {
          "internalType": "uint8",
          "name": "",
          "type": "uint8"
        }
      ],
      "stateMutability": "view",
      "type": "function"
    },
    {
      "inputs": [],
      "name": "TURN_TIME",
      "outputs": [
        {
          "internalType": "uint256",
          "name": "",
          "type": "uint256"
        }
      ],
      "stateMutability": "view",
      "type": "function"
    },
    {
      "inputs": [],
      "name": "buyInAmount",
      "outputs": [
        {
          "internalType": "uint256",
          "name": "",
          "type": "uint256"
        }
      ],
      "stateMutability": "view",
      "type": "function"
    },
    {
      "inputs": [],
      "name": "createNewGame",
      "outputs": [],
      "stateMutability": "nonpayable",
      "type": "function"
    },
    {
      "inputs": [],
      "name": "currentGameId",
      "outputs": [
        {
          "internalType": "uint256",
          "name": "",
          "type": "uint256"
        }
      ],
      "stateMutability": "view",
      "type": "function"
    },
    {
      "inputs": [
        {
          "internalType": "uint256",
          "name": "gameId",
          "type": "uint256"
        }
      ],
      "name": "dealCommunityCards",
      "outputs": [],
      "stateMutability": "nonpayable",
      "type": "function"
    },
    {
      "inputs": [
        {
          "internalType": "uint8[2]",
          "name": "decryptedCards",
          "type": "uint8[2]"
        },
        {
          "internalType": "address",
          "name": "forPlayer",
          "type": "address"
        }
      ],
      "name": "decryptCards",
      "outputs": [],
      "stateMutability": "nonpayable",
      "type": "function"
    },
    {
      "inputs": [
        {
          "internalType": "uint256",
          "name": "gameId",
          "type": "uint256"
        },
        {
          "internalType": "uint8[]",
          "name": "decryptedCards",
          "type": "uint8[]"
        }
      ],
      "name": "decryptCommunityCards",
      "outputs": [],
      "stateMutability": "nonpayable",
      "type": "function"
    },
    {
      "inputs": [
        {
          "internalType": "uint256",
          "name": "gameId",
          "type": "uint256"
        },
        {
          "internalType": "uint8[2]",
          "name": "_encryptedCards",
          "type": "uint8[2]"
        }
      ],
      "name": "encryptCards",
      "outputs": [],
      "stateMutability": "nonpayable",
      "type": "function"
    },
    {
      "inputs": [
        {
          "internalType": "uint256",
          "name": "gameId",
          "type": "uint256"
        }
      ],
      "name": "fold",
      "outputs": [],
      "stateMutability": "nonpayable",
      "type": "function"
    },
    {
      "inputs": [
        {
          "internalType": "uint256",
          "name": "",
          "type": "uint256"
        }
      ],
      "name": "games",
      "outputs": [
        {
          "internalType": "uint256",
          "name": "pot",
          "type": "uint256"
        },
        {
          "internalType": "uint256",
          "name": "currentBet",
          "type": "uint256"
        },
        {
          "internalType": "uint8",
          "name": "currentPlayer",
          "type": "uint8"
        },
        {
          "internalType": "uint256",
          "name": "roundDeadline",
          "type": "uint256"
        },
        {
          "internalType": "enum PokerGame.GamePhase",
          "name": "phase",
          "type": "uint8"
        },
        {
          "internalType": "address",
          "name": "firstPlayer",
          "type": "address"
        },
        {
          "internalType": "uint256",
          "name": "lastBetAmount",
          "type": "uint256"
        },
        {
          "internalType": "uint8",
          "name": "communityCardsDealt",
          "type": "uint8"
        },
        {
          "internalType": "uint8",
          "name": "numPlayers",
          "type": "uint8"
        },
        {
          "internalType": "uint256",
          "name": "encryptionSeed",
          "type": "uint256"
        }
      ],
      "stateMutability": "view",
      "type": "function"
    },
    {
      "inputs": [],
      "name": "getCurrentGameId",
      "outputs": [
        {
          "internalType": "uint256",
          "name": "",
          "type": "uint256"
        }
      ],
      "stateMutability": "view",
      "type": "function"
    },
    {
      "inputs": [
        {
          "internalType": "uint256",
          "name": "gameId",
          "type": "uint256"
        }
      ],
      "name": "getGameBasicState",
      "outputs": [
        {
          "internalType": "uint256",
          "name": "pot",
          "type": "uint256"
        },
        {
          "internalType": "uint256",
          "name": "currentBet",
          "type": "uint256"
        },
        {
          "internalType": "uint8",
          "name": "currentPlayer",
          "type": "uint8"
        },
        {
          "internalType": "uint256",
          "name": "roundDeadline",
          "type": "uint256"
        },
        {
          "internalType": "enum PokerGame.GamePhase",
          "name": "phase",
          "type": "uint8"
        },
        {
          "internalType": "address",
          "name": "firstPlayer",
          "type": "address"
        },
        {
          "internalType": "uint256",
          "name": "lastBetAmount",
          "type": "uint256"
        },
        {
          "internalType": "uint8",
          "name": "communityCardsDealt",
          "type": "uint8"
        },
        {
          "internalType": "uint8",
          "name": "numPlayers",
          "type": "uint8"
        }
      ],
      "stateMutability": "view",
      "type": "function"
    },
    {
      "inputs": [
        {
          "internalType": "uint256",
          "name": "gameId",
          "type": "uint256"
        }
      ],
      "name": "getGameCommunityCards",
      "outputs": [
        {
          "internalType": "uint256[]",
          "name": "",
          "type": "uint256[]"
        }
      ],
      "stateMutability": "view",
      "type": "function"
    },
    {
      "inputs": [
        {
          "internalType": "uint256",
          "name": "gameId",
          "type": "uint256"
        }
      ],
      "name": "getGameEncryptedDeck",
      "outputs": [
        {
          "internalType": "uint256[]",
          "name": "",
          "type": "uint256[]"
        }
      ],
      "stateMutability": "view",
      "type": "function"
    },
    {
      "inputs": [
        {
          "internalType": "uint256",
          "name": "gameId",
          "type": "uint256"
        }
      ],
      "name": "getGameFlopCards",
      "outputs": [
        {
          "internalType": "uint256[]",
          "name": "",
          "type": "uint256[]"
        }
      ],
      "stateMutability": "view",
      "type": "function"
    },
    {
      "inputs": [
        {
          "internalType": "uint256",
          "name": "gameId",
          "type": "uint256"
        }
      ],
      "name": "getGamePlayerCards",
      "outputs": [
        {
          "internalType": "uint256[]",
          "name": "firstPlayerCards",
          "type": "uint256[]"
        },
        {
          "internalType": "uint256[]",
          "name": "secondPlayerCards",
          "type": "uint256[]"
        }
      ],
      "stateMutability": "view",
      "type": "function"
    },
    {
      "inputs": [
        {
          "internalType": "uint256",
          "name": "gameId",
          "type": "uint256"
        }
      ],
      "name": "getNumberOfPlayers",
      "outputs": [
        {
          "internalType": "uint256",
          "name": "",
          "type": "uint256"
        }
      ],
      "stateMutability": "view",
      "type": "function"
    },
    {
      "inputs": [
        {
          "internalType": "address",
          "name": "player",
          "type": "address"
        }
      ],
      "name": "getPlayerGameId",
      "outputs": [
        {
          "internalType": "uint256",
          "name": "",
          "type": "uint256"
        }
      ],
      "stateMutability": "view",
      "type": "function"
    },
    {
      "inputs": [
        {
          "internalType": "address",
          "name": "player",
          "type": "address"
        }
      ],
      "name": "isFirstPlayer",
      "outputs": [
        {
          "internalType": "bool",
          "name": "",
          "type": "bool"
        }
      ],
      "stateMutability": "view",
      "type": "function"
    },
    {
      "inputs": [
        {
          "internalType": "address",
          "name": "playerAddress",
          "type": "address"
        }
      ],
      "name": "isPlayerInGame",
      "outputs": [
        {
          "internalType": "bool",
          "name": "",
          "type": "bool"
        }
      ],
      "stateMutability": "view",
      "type": "function"
    },
    {
      "inputs": [
        {
          "internalType": "uint256",
          "name": "gameId",
          "type": "uint256"
        }
      ],
      "name": "joinGame",
      "outputs": [],
      "stateMutability": "payable",
      "type": "function"
    },
    {
      "inputs": [
        {
          "internalType": "uint256",
          "name": "gameId",
          "type": "uint256"
        }
      ],
      "name": "placeBet",
      "outputs": [],
      "stateMutability": "payable",
      "type": "function"
    },
    {
      "inputs": [
        {
          "internalType": "address",
          "name": "",
          "type": "address"
        }
      ],
      "name": "playerGameId",
      "outputs": [
        {
          "internalType": "uint256",
          "name": "",
          "type": "uint256"
        }
      ],
      "stateMutability": "view",
      "type": "function"
    },
    {
      "inputs": [
        {
          "internalType": "uint256",
          "name": "gameId",
          "type": "uint256"
        },
        {
          "internalType": "uint8[2]",
          "name": "_firstPlayerCards",
          "type": "uint8[2]"
        },
        {
          "internalType": "uint8[2]",
          "name": "_secondPlayerCards",
          "type": "uint8[2]"
        },
        {
          "internalType": "uint8[5]",
          "name": "_flopCards",
          "type": "uint8[5]"
        },
        {
          "internalType": "uint256",
          "name": "_encryptionSeed",
          "type": "uint256"
        }
      ],
      "name": "selectCards",
      "outputs": [],
      "stateMutability": "nonpayable",
      "type": "function"
    },
    {
      "inputs": [
        {
          "internalType": "uint256",
          "name": "gameId",
          "type": "uint256"
        },
        {
          "internalType": "uint8[2]",
          "name": "_selectedIndices",
          "type": "uint8[2]"
        }
      ],
      "name": "selectOwnCards",
      "outputs": [],
      "stateMutability": "nonpayable",
      "type": "function"
    },
    {
      "inputs": [
        {
          "internalType": "uint256",
          "name": "gameId",
          "type": "uint256"
        },
        {
          "internalType": "uint256[]",
          "name": "_encryptedDeck",
          "type": "uint256[]"
        }
      ],
      "name": "submitEncryptedDeck",
      "outputs": [],
      "stateMutability": "nonpayable",
      "type": "function"
    },
    {
      "inputs": [
        {
          "internalType": "uint256",
          "name": "gameId",
          "type": "uint256"
        },
        {
          "internalType": "uint8[52]",
          "name": "_sortedDeck",
          "type": "uint8[52]"
        }
      ],
      "name": "submitSortedDeck",
      "outputs": [],
      "stateMutability": "nonpayable",
      "type": "function"
    }
  ],
  "bytecode": "0x6080806040523461008357670de0b6b3a76400006002556001808055600081815260209081527fada5013122d395ba3c54772283fb069b10426056ef8ca54750cb9bb552a59e82805460ff191690559082527fbd19c47e9925eb6f7be8bb1c13a841e0240aaeaf17f217e90022e9c8eb66877f91a1604051612ebe90816100898239f35b600080fdfe6080604052600436101561001257600080fd5b60003560e01c8063041eb141146121da5780630bbac290146120035780630dafa3fd14611d6e57806310fe7c481461194b578063117a5b901461189f5780631e8200311461163b57806325b05c881461130557806333d934171461153f5780634411b3eb14611523578063536a3ddc1461125357806354836287146114f0578063574a5b20146114cd57806362436d9d1461149e578063642f8128146113cc57806366656eff1461136c57806371a2e89c1461133f578063773b549d14611305578063844973b414611271578063a263540114611253578063a8aad94d14611236578063b919cf1614611195578063bff7a00b14610e07578063c2cb4b3814610de4578063d165dac214610de9578063db6371b214610de4578063eb87eb5e14610dcb578063efaa55a014610a205763f312bcb81461015057600080fd5b34610a1b576040366003190112610a1b576004356024803567ffffffffffffffff8111610a1b5736602382011215610a1b5780600401359061019961019483612938565b612754565b918291818452602080940185600593841b83010191368311610a1b5786869101915b838310610a0357505050506101d76101d233612a19565b612aa1565b336000526003918284526101f18660406000205414612adb565b856000526000845260ff9283836040600020015416926011938481101561096d57811480156109e0575b80156109bd575b15610982578760005260008652848160406000200154168481101561096d5781036106fe57818351036106ba578760005260008652604060002093600f60018060a01b0395868482015460081c16600052018752856040600020541661067d5760005b868116848110156102de57908761029f6102d99388612c1a565b51168b60005260008a526102d26102ba836040600020612c2e565b819391549060ff809160031b9316831b921b19161790565b9055612b94565b610285565b505093600f91959297935088600052600087526040600020908682015460081c166000520185526040600020600160ff198254161790555b600087600052600086528185604060002001541684811015610668578503610533575086600052600085526040600020600f610354600d83016129cb565b509160018060a01b0380935416600052018652816040600020541690816104fe575b505b6103a4575b60408051888152336020820152600080516020612e4983398151915291819081015b0390a1005b866000526000855280846040600020015416838110156104e957840361041b57505050600261039f93600086948194600080516020612e498339815191529883528282526040832001600760ff198254161790555b8582525260408320908101805460ff191660011790550155913880808061037d565b866000526000855280846040600020015416838110156104e95760090361047557505050600261039f93600086948194600080516020612e498339815191529883528282526040832001600b60ff198254161790556103f9565b8660005260008552836040600020015416918210156104d5575061039f936000600080516020612e4983398151915296948194600d600295146104b9575b506103f9565b8683528282526040832001805460ff1916600f179055386104b3565b634e487b7160e01b60009081526021600452fd5b82634e487b7160e01b60005260216004526000fd5b600f9150886000526000875260406000209061051c600d83016129cb565b505416600052018552806040600020541638610376565b87600052600086528185604060002001541684811015610668576009036105cd5750866000526000855260406000206010610570600d83016129cb565b509160018060a01b038093541660005201865281604060002054169081610598575b50610378565b6010915088600052600087526040600020906105b6600d83016129cb565b505416600052018552806040600020541638610592565b8760005260008652818560406000200154168481101561066857600d0361037857508660005260008552604060002083610609600d83016129cb565b509160018060a01b03809354166000520186528382604060002054169182610633575b5050610378565b9091508860005260008752604060002090610650600d83016129cb565b5054166000520185528060406000205416833861062c565b83634e487b7160e01b60005260216004526000fd5b60405162461bcd60e51b8152600481018890526016818a0152750416c72656164792064656372797074656420666c6f760541b6044820152606490fd5b60405162461bcd60e51b8152600481018790526018818901527f496e76616c696420666c6f7020636172647320636f756e7400000000000000006044820152606490fd5b9390959187600052600086528185604060002001541684811015610668576009036108315760018151036107ed578760005260008652604060002090601060018060a01b0392838882015460081c1660005201875282604060002054166107b0579061076b601092612c0d565b5190896000526000885260406000209163ff00000080198454169160181b161782558682015460081c166000520185526040600020600160ff19825416179055610316565b60405162461bcd60e51b8152600481018890526016818601527520b63932b0b23c903232b1b93cb83a32b2103a3ab93760511b6044820152606490fd5b60405162461bcd60e51b8152600481018790526017818501527f496e76616c6964207475726e206361726420636f756e740000000000000000006044820152606490fd5b8760005260008652818560406000200154168481101561066857600d14610859575b50610316565b60018151036109295787600052600086526040600020908460018060a01b0392838882015460081c1660005201875282604060002054166108e5579061089f8592612c0d565b5190896000526000885260406000209164ff000000008019845416918a1b161782558682015460081c166000520185526040600020600160ff1982541617905538610853565b60405162461bcd60e51b8152600481018890526017818601527f416c7265616479206465637279707465642072697665720000000000000000006044820152606490fd5b60405162461bcd60e51b8152600481018790526018818501527f496e76616c6964207269766572206361726420636f756e7400000000000000006044820152606490fd5b87634e487b7160e01b60005260216004526000fd5b60405162461bcd60e51b815260048101879052601481890152734e6f742064656372797074696f6e20706861736560601b6044820152606490fd5b508760005260008652848160406000200154168481101561096d57600d14610222565b508760005260008652848160406000200154168481101561096d5760091461021b565b8190610a0e8461277a565b81520191019085906101bb565b600080fd5b602080600319360112610a1b5760043560029182543403610d8757816000526000815282600d604060002001541015610d5457610a5c33612a19565b610d1c57816000526000815260ff9081600560406000200154166011811015610d0657610ccf57604080519267ffffffffffffffff91840182811185821017610cb957604052600084526000838501526040519160c083019083821090821117610cb95760405233825282820134815260408301916001958684526060850190815260808501946000865260a0810194600086528960005260008852600d6040600020018054600160401b811015610cb957610b1c918b820181556129e6565b959095610ca357610b639260018060a01b039051166bffffffffffffffffffffffff60a01b87541617865551898601555115158a85019060ff801983541691151516179055565b5160009160005b888b8210610c765750505050600482610b9e92600360009897969501550192511515839060ff801983541691151516179055565b51815461ff00191690151560081b61ff00161790553382526003815260408083208590558483528282528220600d8101548414610c4f575b50604080518581523360208201527f87969bc7faf902221a147b95ceba76e011c5efb0339a0a8ee7a2bb82d9cfbbd69190a183825252604060002092600d840154149283610c2057005b600501805460ff19168217905582610c44575b5050610c3c575b005b610c3a612975565b541490508180610c33565b6005018054610100600160a81b0319163360081b610100600160a81b031617905585610bd6565b90919293610c9989918486885116919060ff809160031b9316831b921b19161790565b9401929101610b6a565b634e487b7160e01b600052600060045260246000fd5b634e487b7160e01b600052604160045260246000fd5b6064906040519062461bcd60e51b82526004820152601060248201526f47616d6520696e2070726f677265737360801b6044820152fd5b634e487b7160e01b600052602160045260246000fd5b6064906040519062461bcd60e51b825260048201526011602482015270416c726561647920696e20612067616d6560781b6044820152fd5b6064906040519062461bcd60e51b82526004820152600c60248201526b11d85b59481a5cc8199d5b1b60a21b6044820152fd5b6064906040519062461bcd60e51b82526004820152601d60248201527f4d7573742073656e64206578616374206275792d696e20616d6f756e740000006044820152fd5b34610a1b576000366003190112610a1b57610c3a612975565b6127df565b34610a1b576000366003190112610a1b576020600254604051908152f35b34610a1b57602080600319360112610a1b57600435610e286101d233612a19565b33600052600391828152610e428260406000205414612adb565b816000526000815260ff6005918183604060002001541660119081811015610d065786148015611172575b801561114f575b801561112c575b610e8490612c47565b60029182610e923388612c94565b01805460ff19908116909155604080518881523360208201529193917fff58754f139821608e8cd02acc187dd142075388ef6996df93ee889c93a9e7389190a160009560005b8860005260008452600d6040600020018054821015610f295786610efd838a936129e6565b50015416610f14575b610f0f90612950565b610ed8565b96610f21610f0f91612950565b979050610f06565b50508789878760018b14610f3957005b600790846000526000885260006040812091816001840155820155838101898154169055858101898154169055600060068201550187815416905560005b84828216106110fd5750505080600052600084526008604060002001805460008255806110e2575b505080600052826040600020926000600a8501610fbf8160098801612a02565b610fcd600b87018092612a02565b610fdb600c87018092612a02565b55600f60018060a01b0394858382015460081c1660005201865260406000208781541690558260005260008652600f60406000208561101c600d83016129cb565b5054166000520186526040600020878154169055826000526000865260106040600020858382015460081c16600052018652604060002087815416905582600052600086526010604060002085611075600d83016129cb565b505416600052018652604060002087815416905582600052600086528360406000209182015460081c166000520184526040600020858154169055600052600083526040600020906110c9600d83016129cb565b5054166000520190526040600020908154169055600080f35b6110f6916000528560002090810190612a02565b8580610f9f565b611127908460005260008852611117816040600020612c2e565b84825491871b1b19169055612b94565b610f77565b5084600052600082528284604060002001541681811015610d0657600f14610e7b565b5084600052600082528284604060002001541681811015610d0657600b14610e74565b5084600052600082528284604060002001541681811015610d0657600714610e6d565b34610a1b576020366003190112610a1b576004356000526000602052610120604060002060018101549060028101549060ff600382015416600482015460058301549060068401549260ff600d8160078801541696015416956040519788526020880152604087015260608601526112136080860160ff8316612788565b60081c6001600160a01b031660a085015260c084015260e0830152610100820152f35b34610a1b576000366003190112610a1b57602060405161012c8152f35b34610a1b576000366003190112610a1b576020600154604051908152f35b34610a1b576020366003190112610a1b576004356000526000602052604060002061129a612714565b90600580835260a0366020850137600b60009201915b60ff80821690838210156112eb57906112e083926112d16112e69588612c2e565b90549060031b1c169187612c1a565b52612b94565b6112b0565b60405160208082528190611301908201896127ab565b0390f35b34610a1b576020366003190112610a1b576001600160a01b03611326612795565b1660005260036020526020604060002054604051908152f35b34610a1b576020366003190112610a1b57602061136261135d612795565b612e07565b6040519015158152f35b34610a1b576020366003190112610a1b5760043560005260006020526040600020611395612714565b90600580835260a036602085013760005b60ff80821690838210156112eb57906112e083926112d16113c79588612c2e565b6113a6565b34610a1b576020366003190112610a1b57600435600052600060205260406000206113f56126f4565b6002808252604036602084013761140a6126f4565b9281845260403660208601376009810190600a0160005b60ff808216908582101561147457906112e082849361144361146f9689612d3b565b919054600392831b1c16611457858c612c1a565b526114628588612d3b565b9054911b1c169189612c1a565b611421565b611490876113018a6040519384936040855260408501906127ab565b9083820360208501526127ab565b34610a1b576020366003190112610a1b5760043560005260006020526020600d60406000200154604051908152f35b34610a1b576020366003190112610a1b5760206113626114eb612795565b612a19565b34610a1b576020366003190112610a1b5761130161150f600435612d54565b6040519182916020835260208301906127ab565b34610a1b576000366003190112610a1b57602060405160028152f35b34610a1b576106a0366003190112610a1b57600435366106a411610a1b576115696101d233612a19565b3360005260036020526115828160406000205414612adb565b80600052600060205260ff600560406000200154166011811015610d06577faaae52e5b91cca7d2229253616739be98ccf73573c2ff08217c0277f4266a9cf916115d1600261039f9314612b1a565b8060005260006020526115f960018060a01b0360056040600020015460081c16331415612b54565b60008181526020818152604091829020600581018054600360ff1991821681179092559101805490911660011790558151928352339083015290918291820190565b34610a1b576060366003190112610a1b573660231215610a1b5761165d612734565b604481368211610a1b576004905b82821061188757506001600160a01b0392823592915083831690818403610a1b57336000526020936003855260406000205493841561185457846000526000865260ff93600597858960406000200154166011811015610d06576003149182611834575b82156117e4575b5050156117a957506116ea60039185612c94565b0160009160005b866002821061177e57505050558160005260008352836040600020015416926011841015610d0657600061039f936003600080516020612e49833981519152961482146117645783825252604060002001805460ff191660041790555b6040805191825233602083015290918291820190565b83825252806040600020019060ff1982541617905561174e565b6117a083958388600195965116919060ff809160031b9316831b921b19161790565b940191016116f1565b85742bb937b73390383430b9b29037b910383630bcb2b960591b6064926040519262461bcd60e51b8452600484015260156024840152820152fd5b9091508660005260008852858960406000200154166011811015610d06576004149182611815575b505088806116d6565b9091508660005260008852886040600020015460081c1614888061180c565b9150866000526000885280896040600020015460081c16821415916116cf565b856c4e6f7420696e20612067616d6560981b6064926040519262461bcd60e51b84526004840152600d6024840152820152fd5b602080916118948461277a565b81520191019061166b565b34610a1b576020366003190112610a1b576004356000526000602052610140604060002060018101549060ff600282015491816003820154166004820154600583015490600684015492600c60078601549501549660405198895260208901526040880152606087015261191860808701858316612788565b600890811c6001600160a01b031660a087015260c086019190915281831660e08601521c16610100830152610120820152f35b602080600319360112610a1b576004356119676101d233612a19565b336000526003825261197f8160406000205414612adb565b806000526000825260ff916005928084604060002001541660119081811015610d06576003148015611d4b575b8015611d28575b8015611d05575b6119c390612c47565b83600052600083526002604060002001543410611cd0578360005260008352600e6040600020013360005283526040600020611a00348254612c87565b905583600052600083526001604060002001611a1d348254612c87565b90558360005260008352816003604060002034600282015534600682015501541660018101809111611cbb578460005260008452600d604060002001548015611ca5578391061691846000526000845260406000206001600382019460ff19958187825416179055149081611c2f575b50611aba575b600080516020612e69833981519152606086866040519182523390820152346040820152a1005b84600052600084528086604060002001541682811015610d0657600303611b2b5750509082916004600080516020612e698339815191529560609560005260008452604060002001918254161790555b81600052600081526000600660408220826002820155015590918480611a93565b84600052600084528086604060002001541682811015610d0657600703611b7f5750509082916008600080516020612e69833981519152956060956000526000845260406000200191825416179055611b0a565b84600052600084528086604060002001541682811015610d0657600b03611bd3575050908291600c600080516020612e69833981519152956060956000526000845260406000200191825416179055611b0a565b6000858152808552604090208601541693929190841015610d0657600080516020612e6983398151915294600f60609514611c10575b5050611b0a565b6010908460005260008452604060002001918254161790558480611c09565b9050600d8101805415611c8f57600052600e60018060a01b039182876000205416600052018552600e604060002054918760005260008752604060002090611c79600d83016129cb565b5054166000520185526040600020541487611a8d565b634e487b7160e01b600052603260045260246000fd5b634e487b7160e01b600052601260045260246000fd5b50634e487b7160e01b60005260045260246000fd5b60405162461bcd60e51b815260048101849052600d60248201526c10995d081d1bdbc81cdb585b1b609a1b6044820152606490fd5b5083600052600083528185604060002001541681811015610d0657600f146119ba565b5083600052600083528185604060002001541681811015610d0657600b146119b3565b5083600052600083528185604060002001541681811015610d06576007146119ac565b34610a1b57602080600319360112610a1b57600435611d8f6101d233612a19565b3360005260038252611da78160406000205414612adb565b8060005260008252600591611dcf60018060a01b03846040600020015460081c163314612bce565b816000526000815260ff8084604060002001541660119081811015610d06576004148015611fe0575b8015611fbd575b15611f865783600052600083528185604060002001541681811015610d0657600403611e9157509082917ffb937eef594c7d7bf4f31139d9e04e3b3408489824224ccb18e6583e1c11dd129460409460005260008352600360078660002083810160ff19948582541617905501918254161790555b8260005260008252600784600020015416908351928352820152a1005b83600052600083528185604060002001541681811015610d0657600803611f0857509082917ffb937eef594c7d7bf4f31139d9e04e3b3408489824224ccb18e6583e1c11dd12946040946000526000835260046007866000209283019260ff19936009858254161790550191825416179055611e74565b92919082600052600082528085604060002001541693841015610d06577ffb937eef594c7d7bf4f31139d9e04e3b3408489824224ccb18e6583e1c11dd1294600c60409514611f58575b50611e74565b8360005260008352846000209060078183019260ff1993600d85825416179055019182541617905585611f52565b826064916040519162461bcd60e51b835260048301526024820152704e6f74206465616c696e6720706861736560781b6044820152fd5b5083600052600083528185604060002001541681811015610d0657600c14611dff565b5083600052600083528185604060002001541681811015610d0657600814611df8565b34610a1b576040366003190112610a1b57600435602480359067ffffffffffffffff808311610a1b5736602384011215610a1b578260040135908111610a1b5736828260051b85010111610a1b5761205d6101d233612a19565b33600052602092600384526120788560406000205414612adb565b846000526000845260ff600560406000200154169260118410156104d5576120a36001809514612b1a565b85600052600085526120c960018060a01b0360056040600020015460081c163314612bce565b603483036121a3578560005260008552600860406000200191600160401b841161218e578254848455808510612171575b5001906000528360002060005b838110612160576000878152808752604090819020600501805460ff1916600217905580518881523360208201527feea5492b09b3cb556950c67035e9740a81f515a83d939dd9c7d039f4ddd7b7e2918190810161039f565b823582820155918501918401612107565b612188908460005285886000209182019101612a02565b876120fa565b50634e487b7160e01b60009081526041600452fd5b8460116064926040519262461bcd60e51b8452600484015282015270496e76616c6964206465636b2073697a6560781b6044820152fd5b34610a1b57610160366003190112610a1b573660431215610a1b576121fd612734565b8036606411610a1b576024905b606482106126dc57823660831215610a1b57612224612734565b908160a492368411610a1b576064905b8482106126c45750503660c31215610a1b576040519260a0840184811067ffffffffffffffff821117610cb95760405283903661014411610a1b57905b61014482106126ac5750506122886101d233612a19565b3360005260036020526122a360043560406000205414612adb565b600435600052600060205260ff600560406000200154166011811015610d065760026122cf9114612b1a565b60043560005260006020526122fa60056040600020015460018060a01b039060081c16331415612b54565b60043560005260006020526034600860406000200154036126675760005b600260ff821610156124415760008060005b603460ff8216106123a95750816123a1575b50156123505761234b90612b94565b612318565b60405162461bcd60e51b8152602060048201526024808201527f53656c6563746564206361726473206e6f7420696e20656e63727970746564206044820152636465636b60e01b6064820152608490fd5b90508561233c565b600435600052600060205260ff6123c7826008604060002001612ba5565b90549060031b1c1660ff6123dd81871689612bbd565b511614612438575b600435600052600060205260ff612403826008604060002001612ba5565b90549060031b1c1660ff61241981871688612bbd565b51161461242f575b61242a90612b94565b61232a565b60019150612421565b600192506123e5565b50919060005b600560ff82161015612529576000805b603460ff8216106124cc5750156124765761247190612b94565b612447565b60405162461bcd60e51b815260206004820152602860248201527f53656c656374656420666c6f702063617264206e6f7420696e20656e63727970604482015267746564206465636b60c01b6064820152608490fd5b600435600052600060205260ff6124ea826008604060002001612ba5565b90549060031b1c16600560ff85161015611c8f5760ff611fe08560051b168701511614612520575b61251b90612b94565b612457565b60019150612512565b5091600435600052600060205260406000209260009060005b60028110612639575050600984015560009060005b6002811061260b575050600a83015560009060005b600581106125dd575050600b82015561014435600c820155600581018054600360ff1991821681179092559101805490911660011790556040805160043581523360208201527f0842dde5e856943f7a73420433e43ea971476948d651730cc213b609349014fb918190810161039f565b909160206126026001928460ff875116919060ff809160031b9316831b921b19161790565b9301910161256c565b909160206126306001928460ff875116919060ff809160031b9316831b921b19161790565b93019101612557565b9091602061265e6001928460ff875116919060ff809160031b9316831b921b19161790565b93019101612542565b60405162461bcd60e51b815260206004820152601b60248201527f4e6f20656e63727970746564206465636b20617661696c61626c6500000000006044820152606490fd5b602080916126b98461277a565b815201910190612271565b602080916126d18461277a565b815201910190612234565b602080916126e98461277a565b81520191019061220a565b604051906060820182811067ffffffffffffffff821117610cb957604052565b6040519060c0820182811067ffffffffffffffff821117610cb957604052565b604051906040820182811067ffffffffffffffff821117610cb957604052565b6040519190601f01601f1916820167ffffffffffffffff811183821017610cb957604052565b359060ff82168203610a1b57565b906011821015610d065752565b600435906001600160a01b0382168203610a1b57565b90815180825260208080930193019160005b8281106127cb575050505090565b8351855293810193928101926001016127bd565b34610a1b576060366003190112610a1b5760043536606411610a1b576128076101d233612a19565b60003381526020916003835261282281604084205414612adb565b80825281835260ff9283600560408520015416906011821015612924579361284d6002809314612b1a565b82845283855261287160018060a01b03600560408720015460081c16331415612b54565b82845283855260408420916024908596865b8281106128e657600a8601899055600586018054600360ff199182168117909255908701805490911660011790556040805188815233602082015289917f0842dde5e856943f7a73420433e43ea971476948d651730cc213b609349014fb91a180f35b90919293978435908982168203612920576129146001928486939060ff809160031b9316831b921b19161790565b99950193929101612883565b8880fd5b634e487b7160e01b84526021600452602484fd5b67ffffffffffffffff8111610cb95760051b60200190565b600019811461295f5760010190565b634e487b7160e01b600052601160045260246000fd5b612980600154612950565b806001556000526000602052600560406000200160ff1981541690557fbd19c47e9925eb6f7be8bb1c13a841e0240aaeaf17f217e90022e9c8eb66877f6020600154604051908152a1565b805460011015611c8f57600052600560206000200190600090565b8054821015611c8f576000526005602060002091020190600090565b818110612a0d575050565b60008155600101612a02565b6001600160a01b039081166000818152600360209081526040808320549492918515612a985790825b868452838352600d828520018054821015612a8d5785612a638389936129e6565b50541614612a8157600d92612a788592612950565b91509250612a42565b50505050505050600190565b505050509250505090565b50509250505090565b15612aa857565b60405162461bcd60e51b815260206004820152600b60248201526a4e6f7420696e2067616d6560a81b6044820152606490fd5b15612ae257565b60405162461bcd60e51b815260206004820152601060248201526f4e6f7420696e20746869732067616d6560801b6044820152606490fd5b15612b2157565b60405162461bcd60e51b815260206004820152600b60248201526a57726f6e6720706861736560a81b6044820152606490fd5b15612b5b57565b60405162461bcd60e51b81526020600482015260116024820152702737ba1039b2b1b7b73210383630bcb2b960791b6044820152606490fd5b60ff1660ff811461295f5760010190565b8054821015611c8f5760005260206000200190600090565b906002811015611c8f5760051b0190565b15612bd557565b60405162461bcd60e51b815260206004820152601060248201526f2737ba103334b939ba10383630bcb2b960811b6044820152606490fd5b805115611c8f5760200190565b8051821015611c8f5760209160051b010190565b9190916005831015611c8f57601f908360051c01921690565b15612c4e57565b60405162461bcd60e51b81526020600482015260116024820152704e6f742062657474696e6720706861736560781b6044820152606490fd5b9190820180921161295f57565b909160005b82600052602060008152600d906040908282600020018054851015612d035784612cc2916129e6565b50546001600160a01b03888116911614612ce757505050612ce290612950565b612c99565b6000919293949650612cff95825252600020016129e6565b5090565b60405162461bcd60e51b815260206004820152601060248201526f141b185e595c881b9bdd08199bdd5b9960821b6044820152606490fd5b9190916002831015611c8f57601f908360051c01921690565b906000918252816020526008604083200191825480612dab57506040519192506020820167ffffffffffffffff811183821017612d975760405280825236813790565b634e487b7160e01b82526041600452602482fd5b612db761019482612938565b81815291601f19612dc783612938565b013660208501375b818110612ddd575090925050565b80612deb612e029287612ba5565b90549060031b1c612dfc8286612c1a565b52612950565b612dcf565b6001600160a01b039081166000818152600360205260408120549192918015612e415781604091600593528060205220015460081c161490565b509150509056fef03a84bf6acb8665499842a163a119675aa0d85c373f390994756715f3cadd36d4378ef4558c1e2a851456fb0106171f67cc4bc8abe3f27346a47cc6010a291da2646970667358221220529c40c6e0dac21c3202f631f71e163d431c2929b83953b17390adb0aa17c9d564736f6c63430008130033",
  "linkReferences": {},
  "deployedLinkReferences": {}
}