{
  "_format": "hh-sol-artifact-1",
  "contractName": "PokerGame",
  "sourceName": "contracts/PokerGame.sol",
  "abi": [
    {
      "inputs": [],
      "stateMutability": "nonpayable",
      "type": "constructor"
    },
    {
      "anonymous": false,
      "inputs": [
        {
          "indexed": false,
          "internalType": "uint256",
          "name": "gameId",
          "type": "uint256"
        },
        {
          "indexed": false,
          "internalType": "address",
          "name": "player",
          "type": "address"
        }
      ],
      "name": "CardsDecrypted",
      "type": "event"
    },
    {
      "anonymous": false,
      "inputs": [
        {
          "indexed": false,
          "internalType": "uint256",
          "name": "gameId",
          "type": "uint256"
        },
        {
          "indexed": false,
          "internalType": "address",
          "name": "player",
          "type": "address"
        }
      ],
      "name": "CardsSelected",
      "type": "event"
    },
    {
      "anonymous": false,
      "inputs": [
        {
          "indexed": false,
          "internalType": "uint256",
          "name": "gameId",
          "type": "uint256"
        },
        {
          "indexed": false,
          "internalType": "uint8",
          "name": "count",
          "type": "uint8"
        }
      ],
      "name": "CommunityCardsDealt",
      "type": "event"
    },
    {
      "anonymous": false,
      "inputs": [
        {
          "indexed": false,
          "internalType": "uint256",
          "name": "gameId",
          "type": "uint256"
        },
        {
          "indexed": false,
          "internalType": "address",
          "name": "player",
          "type": "address"
        }
      ],
      "name": "DeckEncrypted",
      "type": "event"
    },
    {
      "anonymous": false,
      "inputs": [
        {
          "indexed": false,
          "internalType": "uint256",
          "name": "gameId",
          "type": "uint256"
        },
        {
          "indexed": false,
          "internalType": "address",
          "name": "player",
          "type": "address"
        }
      ],
      "name": "DeckSorted",
      "type": "event"
    },
    {
      "anonymous": false,
      "inputs": [
        {
          "indexed": false,
          "internalType": "uint256",
          "name": "gameId",
          "type": "uint256"
        }
      ],
      "name": "GameCreated",
      "type": "event"
    },
    {
      "anonymous": false,
      "inputs": [
        {
          "indexed": false,
          "internalType": "uint256",
          "name": "gameId",
          "type": "uint256"
        },
        {
          "indexed": false,
          "internalType": "uint256",
          "name": "timestamp",
          "type": "uint256"
        }
      ],
      "name": "NewRound",
      "type": "event"
    },
    {
      "anonymous": false,
      "inputs": [
        {
          "indexed": false,
          "internalType": "uint256",
          "name": "gameId",
          "type": "uint256"
        },
        {
          "indexed": false,
          "internalType": "address",
          "name": "player",
          "type": "address"
        },
        {
          "indexed": false,
          "internalType": "uint256",
          "name": "amount",
          "type": "uint256"
        }
      ],
      "name": "PlayerBet",
      "type": "event"
    },
    {
      "anonymous": false,
      "inputs": [
        {
          "indexed": false,
          "internalType": "uint256",
          "name": "gameId",
          "type": "uint256"
        },
        {
          "indexed": false,
          "internalType": "address",
          "name": "player",
          "type": "address"
        }
      ],
      "name": "PlayerFolded",
      "type": "event"
    },
    {
      "anonymous": false,
      "inputs": [
        {
          "indexed": false,
          "internalType": "uint256",
          "name": "gameId",
          "type": "uint256"
        },
        {
          "indexed": false,
          "internalType": "address",
          "name": "player",
          "type": "address"
        }
      ],
      "name": "PlayerJoined",
      "type": "event"
    },
    {
      "inputs": [],
      "name": "MAX_PLAYERS",
      "outputs": [
        {
          "internalType": "uint8",
          "name": "",
          "type": "uint8"
        }
      ],
      "stateMutability": "view",
      "type": "function"
    },
    {
      "inputs": [],
      "name": "TURN_TIME",
      "outputs": [
        {
          "internalType": "uint256",
          "name": "",
          "type": "uint256"
        }
      ],
      "stateMutability": "view",
      "type": "function"
    },
    {
      "inputs": [],
      "name": "buyInAmount",
      "outputs": [
        {
          "internalType": "uint256",
          "name": "",
          "type": "uint256"
        }
      ],
      "stateMutability": "view",
      "type": "function"
    },
    {
      "inputs": [],
      "name": "createNewGame",
      "outputs": [],
      "stateMutability": "nonpayable",
      "type": "function"
    },
    {
      "inputs": [],
      "name": "currentGameId",
      "outputs": [
        {
          "internalType": "uint256",
          "name": "",
          "type": "uint256"
        }
      ],
      "stateMutability": "view",
      "type": "function"
    },
    {
      "inputs": [
        {
          "internalType": "uint256",
          "name": "gameId",
          "type": "uint256"
        }
      ],
      "name": "dealCommunityCards",
      "outputs": [],
      "stateMutability": "nonpayable",
      "type": "function"
    },
    {
      "inputs": [
        {
          "internalType": "uint8[2]",
          "name": "decryptedCards",
          "type": "uint8[2]"
        },
        {
          "internalType": "address",
          "name": "forPlayer",
          "type": "address"
        }
      ],
      "name": "decryptCards",
      "outputs": [],
      "stateMutability": "nonpayable",
      "type": "function"
    },
    {
      "inputs": [
        {
          "internalType": "uint256",
          "name": "gameId",
          "type": "uint256"
        },
        {
          "internalType": "uint8[]",
          "name": "decryptedCards",
          "type": "uint8[]"
        }
      ],
      "name": "decryptCommunityCards",
      "outputs": [],
      "stateMutability": "nonpayable",
      "type": "function"
    },
    {
      "inputs": [
        {
          "internalType": "uint256",
          "name": "gameId",
          "type": "uint256"
        },
        {
          "internalType": "uint8[2]",
          "name": "_encryptedCards",
          "type": "uint8[2]"
        }
      ],
      "name": "encryptCards",
      "outputs": [],
      "stateMutability": "nonpayable",
      "type": "function"
    },
    {
      "inputs": [
        {
          "internalType": "uint256",
          "name": "gameId",
          "type": "uint256"
        }
      ],
      "name": "fold",
      "outputs": [],
      "stateMutability": "nonpayable",
      "type": "function"
    },
    {
      "inputs": [
        {
          "internalType": "uint256",
          "name": "",
          "type": "uint256"
        }
      ],
      "name": "games",
      "outputs": [
        {
          "internalType": "uint256",
          "name": "pot",
          "type": "uint256"
        },
        {
          "internalType": "uint256",
          "name": "currentBet",
          "type": "uint256"
        },
        {
          "internalType": "uint8",
          "name": "currentPlayer",
          "type": "uint8"
        },
        {
          "internalType": "uint256",
          "name": "roundDeadline",
          "type": "uint256"
        },
        {
          "internalType": "enum PokerGame.GamePhase",
          "name": "phase",
          "type": "uint8"
        },
        {
          "internalType": "address",
          "name": "firstPlayer",
          "type": "address"
        },
        {
          "internalType": "uint256",
          "name": "lastBetAmount",
          "type": "uint256"
        },
        {
          "internalType": "uint8",
          "name": "communityCardsDealt",
          "type": "uint8"
        },
        {
          "internalType": "uint8",
          "name": "numPlayers",
          "type": "uint8"
        },
        {
          "internalType": "uint256",
          "name": "encryptionSeed",
          "type": "uint256"
        }
      ],
      "stateMutability": "view",
      "type": "function"
    },
    {
      "inputs": [],
      "name": "getCurrentGameId",
      "outputs": [
        {
          "internalType": "uint256",
          "name": "",
          "type": "uint256"
        }
      ],
      "stateMutability": "view",
      "type": "function"
    },
    {
      "inputs": [
        {
          "internalType": "uint256",
          "name": "gameId",
          "type": "uint256"
        }
      ],
      "name": "getGameBasicState",
      "outputs": [
        {
          "internalType": "uint256",
          "name": "pot",
          "type": "uint256"
        },
        {
          "internalType": "uint256",
          "name": "currentBet",
          "type": "uint256"
        },
        {
          "internalType": "uint8",
          "name": "currentPlayer",
          "type": "uint8"
        },
        {
          "internalType": "uint256",
          "name": "roundDeadline",
          "type": "uint256"
        },
        {
          "internalType": "enum PokerGame.GamePhase",
          "name": "phase",
          "type": "uint8"
        },
        {
          "internalType": "address",
          "name": "firstPlayer",
          "type": "address"
        },
        {
          "internalType": "uint256",
          "name": "lastBetAmount",
          "type": "uint256"
        },
        {
          "internalType": "uint8",
          "name": "communityCardsDealt",
          "type": "uint8"
        },
        {
          "internalType": "uint8",
          "name": "numPlayers",
          "type": "uint8"
        }
      ],
      "stateMutability": "view",
      "type": "function"
    },
    {
      "inputs": [
        {
          "internalType": "uint256",
          "name": "gameId",
          "type": "uint256"
        }
      ],
      "name": "getGameCommunityCards",
      "outputs": [
        {
          "internalType": "uint256[]",
          "name": "",
          "type": "uint256[]"
        }
      ],
      "stateMutability": "view",
      "type": "function"
    },
    {
      "inputs": [
        {
          "internalType": "uint256",
          "name": "gameId",
          "type": "uint256"
        }
      ],
      "name": "getGameEncryptedDeck",
      "outputs": [
        {
          "internalType": "uint256[]",
          "name": "",
          "type": "uint256[]"
        }
      ],
      "stateMutability": "view",
      "type": "function"
    },
    {
      "inputs": [
        {
          "internalType": "uint256",
          "name": "gameId",
          "type": "uint256"
        }
      ],
      "name": "getGameFlopCards",
      "outputs": [
        {
          "internalType": "uint256[]",
          "name": "",
          "type": "uint256[]"
        }
      ],
      "stateMutability": "view",
      "type": "function"
    },
    {
      "inputs": [
        {
          "internalType": "uint256",
          "name": "gameId",
          "type": "uint256"
        }
      ],
      "name": "getGamePlayerCards",
      "outputs": [
        {
          "internalType": "uint256[]",
          "name": "firstPlayerCards",
          "type": "uint256[]"
        },
        {
          "internalType": "uint256[]",
          "name": "secondPlayerCards",
          "type": "uint256[]"
        }
      ],
      "stateMutability": "view",
      "type": "function"
    },
    {
      "inputs": [
        {
          "internalType": "uint256",
          "name": "gameId",
          "type": "uint256"
        }
      ],
      "name": "getNumberOfPlayers",
      "outputs": [
        {
          "internalType": "uint256",
          "name": "",
          "type": "uint256"
        }
      ],
      "stateMutability": "view",
      "type": "function"
    },
    {
      "inputs": [
        {
          "internalType": "address",
          "name": "player",
          "type": "address"
        }
      ],
      "name": "getPlayerGameId",
      "outputs": [
        {
          "internalType": "uint256",
          "name": "",
          "type": "uint256"
        }
      ],
      "stateMutability": "view",
      "type": "function"
    },
    {
      "inputs": [
        {
          "internalType": "address",
          "name": "player",
          "type": "address"
        }
      ],
      "name": "isFirstPlayer",
      "outputs": [
        {
          "internalType": "bool",
          "name": "",
          "type": "bool"
        }
      ],
      "stateMutability": "view",
      "type": "function"
    },
    {
      "inputs": [
        {
          "internalType": "address",
          "name": "playerAddress",
          "type": "address"
        }
      ],
      "name": "isPlayerInGame",
      "outputs": [
        {
          "internalType": "bool",
          "name": "",
          "type": "bool"
        }
      ],
      "stateMutability": "view",
      "type": "function"
    },
    {
      "inputs": [
        {
          "internalType": "uint256",
          "name": "gameId",
          "type": "uint256"
        }
      ],
      "name": "joinGame",
      "outputs": [],
      "stateMutability": "payable",
      "type": "function"
    },
    {
      "inputs": [
        {
          "internalType": "uint256",
          "name": "gameId",
          "type": "uint256"
        }
      ],
      "name": "placeBet",
      "outputs": [],
      "stateMutability": "payable",
      "type": "function"
    },
    {
      "inputs": [
        {
          "internalType": "address",
          "name": "",
          "type": "address"
        }
      ],
      "name": "playerGameId",
      "outputs": [
        {
          "internalType": "uint256",
          "name": "",
          "type": "uint256"
        }
      ],
      "stateMutability": "view",
      "type": "function"
    },
    {
      "inputs": [
        {
          "internalType": "uint256",
          "name": "gameId",
          "type": "uint256"
        },
        {
          "internalType": "uint8[2]",
          "name": "_firstPlayerCards",
          "type": "uint8[2]"
        },
        {
          "internalType": "uint8[2]",
          "name": "_secondPlayerCards",
          "type": "uint8[2]"
        },
        {
          "internalType": "uint8[5]",
          "name": "_flopCards",
          "type": "uint8[5]"
        },
        {
          "internalType": "uint256",
          "name": "_encryptionSeed",
          "type": "uint256"
        }
      ],
      "name": "selectCards",
      "outputs": [],
      "stateMutability": "nonpayable",
      "type": "function"
    },
    {
      "inputs": [
        {
          "internalType": "uint256",
          "name": "gameId",
          "type": "uint256"
        },
        {
          "internalType": "uint8[2]",
          "name": "_selectedIndices",
          "type": "uint8[2]"
        }
      ],
      "name": "selectOwnCards",
      "outputs": [],
      "stateMutability": "nonpayable",
      "type": "function"
    },
    {
      "inputs": [
        {
          "internalType": "uint256",
          "name": "gameId",
          "type": "uint256"
        },
        {
          "internalType": "uint256[]",
          "name": "_encryptedDeck",
          "type": "uint256[]"
        }
      ],
      "name": "submitEncryptedDeck",
      "outputs": [],
      "stateMutability": "nonpayable",
      "type": "function"
    },
    {
      "inputs": [
        {
          "internalType": "uint256",
          "name": "gameId",
          "type": "uint256"
        },
        {
          "internalType": "uint8[52]",
          "name": "_sortedDeck",
          "type": "uint8[52]"
        }
      ],
      "name": "submitSortedDeck",
      "outputs": [],
      "stateMutability": "nonpayable",
      "type": "function"
    }
  ],
  "bytecode": "0x6080806040523461008357670de0b6b3a76400006002556001808055600081815260209081527fada5013122d395ba3c54772283fb069b10426056ef8ca54750cb9bb552a59e82805460ff191690559082527fbd19c47e9925eb6f7be8bb1c13a841e0240aaeaf17f217e90022e9c8eb66877f91a1604051612ef190816100898239f35b600080fdfe6080604052600436101561001257600080fd5b60003560e01c8063041eb141146121e05780630bbac290146120095780630dafa3fd14611da857806310fe7c4814611986578063117a5b90146118da5780631e8200311461167657806325b05c881461134057806333d934171461157a5780634411b3eb1461155e578063536a3ddc1461128e578063548362871461152b578063574a5b201461150857806362436d9d146114d9578063642f81281461140757806366656eff146113a757806371a2e89c1461137a578063773b549d14611340578063844973b4146112ac578063a26354011461128e578063a8aad94d14611271578063b919cf16146111d0578063bff7a00b14610e3e578063c2cb4b3814610e1b578063d165dac214610e20578063db6371b214610e1b578063eb87eb5e14610e02578063efaa55a014610a575763f312bcb81461015057600080fd5b34610a52576040366003190112610a52576004356024803567ffffffffffffffff8111610a525736602382011215610a525780600401356101986101938261293e565b61275a565b818152602092600592831b810185019084830190368311610a525786869101915b838310610a3a57505050506101d56101d033612a09565b612a91565b336000526003938484526101ef8660406000205414612acb565b856000526000845260ff8084604060002001541692600b9384811015610660576004148015610a17575b80156109f4575b61022990612bfd565b87600052600086528185604060002001541684811015610660576004036107655786815103610721578760005260008652600f60406000200133600052865281604060002054166106e457876000526000865260018060a01b03856040600020015460081c163314610675575b508660005260008552600f6040600020013360005285526040600020600160ff198254161790555b600087600052600086528185604060002001541684811015610660576004036104f85750600087815280865260408082208681015460081c6001600160a01b039081168452600f9091018852912054821690816104c3575b50806104a4575b610349575b60408051888152336020820152600080516020612e7c83398151915291819081015b0390a1005b8660005260008552808460406000200154168381101561048f576004036103c157505050600261034493600086948194600080516020612e7c8339815191529883528282528060408420019060ff198254161790555b8582525260408320908101805460ff1916600117905501559138808080610322565b8660005260008552808460406000200154168381101561048f5760060361041b57505050600261034493600086948194600080516020612e7c8339815191529883528282526040832001600760ff1982541617905561039f565b86600052600085528360406000200154169182101561047b5750610344936000600080516020612e7c8339815191529694819460086002951461045f575b5061039f565b8683528282526040832001805460ff1916600917905538610459565b634e487b7160e01b60009081526021600452fd5b82634e487b7160e01b60005260216004526000fd5b876000526000865260076040600020018760ff1982541617905561031d565b600f915088600052600087526040600020906104e1600d83016129bb565b505416600052018552806040600020541638610316565b87600052600086528185604060002001541684811015610660576006036105af5750600087815280865260408082208681015460081c6001600160a01b039081168452601090910188529120548216908161057a575b508061055a575b61031d565b87600052600086526007604060002001600460ff1982541617905561031d565b601091508860005260008752604060002090610598600d83016129bb565b50541660005201855280604060002054163861054e565b876000526000865281856040600020015416848110156106605760080361031d5750600087815280865260408082208681015460081c6001600160a01b039081168452601190910188529120548216908161062b575b50801561055557876000526000865260076040600020018560ff1982541617905561031d565b601191508860005260008752604060002090610649600d83016129bb565b505416600052018552806040600020541638610605565b83634e487b7160e01b60005260216004526000fd5b919295909360005b858116838110156106d65790866106976106d19387612c4d565b51168a600052600089526106ca6106b2836040600020612c61565b819391549060ff809160031b9316831b921b19161790565b9055612b84565b61067d565b505093909592915038610296565b60405162461bcd60e51b815260048101879052601681850152750416c72656164792064656372797074656420666c6f760541b6044820152606490fd5b60405162461bcd60e51b8152600481018790526018818501527f496e76616c696420666c6f7020636172647320636f756e7400000000000000006044820152606490fd5b87600052600086528185604060002001541684811015610660576006036108a55760018151036108615787600052600086526010604060002001336000528652816040600020541661082457876000526000865260018060a01b03856040600020015460081c1633146107f4575b5060406000818120338252601001875220805460ff191660011790556102be565b6107fd90612c40565b51876000526000865260406000209063ff00000080198354169160181b16179055386107d3565b60405162461bcd60e51b8152600481018790526016818501527520b63932b0b23c903232b1b93cb83a32b2103a3ab93760511b6044820152606490fd5b60405162461bcd60e51b8152600481018790526017818501527f496e76616c6964207475726e206361726420636f756e740000000000000000006044820152606490fd5b87600052600086528185604060002001541684811015610660576008146108cd575b506102be565b60018151036109b05787600052600086526011604060002001336000528652816040600020541661096c57876000526000865260018060a01b03856040600020015460081c16331461093c575b5060406000818120338252601101875220805460ff19166001179055386108c7565b61094590612c40565b51876000526000865260406000209064ff00000000801983541691881b161790553861091a565b60405162461bcd60e51b8152600481018790526017818501527f416c7265616479206465637279707465642072697665720000000000000000006044820152606490fd5b60405162461bcd60e51b8152600481018790526018818501527f496e76616c6964207269766572206361726420636f756e7400000000000000006044820152606490fd5b508760005260008652818560406000200154168481101561066057600814610220565b508760005260008652818560406000200154168481101561066057600614610219565b8190610a4584612780565b81520191019085906101b9565b600080fd5b602080600319360112610a525760043560029182543403610dbe57816000526000815282600d604060002001541015610d8b57610a9333612a09565b610d5357816000526000815260ff908160056040600020015416600b811015610d3d57610d0657604080519267ffffffffffffffff91840182811185821017610cf057604052600084526000838501526040519160c083019083821090821117610cf05760405233825282820134815260408301916001958684526060850190815260808501946000865260a0810194600086528960005260008852600d6040600020018054600160401b811015610cf057610b53918b820181556129d6565b959095610cda57610b9a9260018060a01b039051166bffffffffffffffffffffffff60a01b87541617865551898601555115158a85019060ff801983541691151516179055565b5160009160005b888b8210610cad5750505050600482610bd592600360009897969501550192511515839060ff801983541691151516179055565b51815461ff00191690151560081b61ff00161790553382526003815260408083208590558483528282528220600d8101548414610c86575b50604080518581523360208201527f87969bc7faf902221a147b95ceba76e011c5efb0339a0a8ee7a2bb82d9cfbbd69190a183825252604060002092600d840154149283610c5757005b600501805460ff19168217905582610c7b575b5050610c73575b005b610c71612965565b541490508180610c6a565b6005018054610100600160a81b0319163360081b610100600160a81b031617905585610c0d565b90919293610cd089918486885116919060ff809160031b9316831b921b19161790565b9401929101610ba1565b634e487b7160e01b600052600060045260246000fd5b634e487b7160e01b600052604160045260246000fd5b6064906040519062461bcd60e51b82526004820152601060248201526f47616d6520696e2070726f677265737360801b6044820152fd5b634e487b7160e01b600052602160045260246000fd5b6064906040519062461bcd60e51b825260048201526011602482015270416c726561647920696e20612067616d6560781b6044820152fd5b6064906040519062461bcd60e51b82526004820152600c60248201526b11d85b59481a5cc8199d5b1b60a21b6044820152fd5b6064906040519062461bcd60e51b82526004820152601d60248201527f4d7573742073656e64206578616374206275792d696e20616d6f756e740000006044820152fd5b34610a52576000366003190112610a5257610c71612965565b6127e5565b34610a52576000366003190112610a52576020600254604051908152f35b34610a5257602080600319360112610a5257600435610e5f6101d033612a09565b33600052600391828152610e798260406000205414612acb565b816000526000815260ff60059181836040600020015416600b811015610d3d57851480156111ad575b8015611189575b8015611165575b610eb990612c7a565b60029081610ec73387612cc7565b01805460ff19908116909155604080518781523360208201529192917fff58754f139821608e8cd02acc187dd142075388ef6996df93ee889c93a9e7389190a160009460005b8760005260008352600d6040600020018054821015610f5e5785610f328389936129d6565b50015416610f49575b610f4490612956565b610f0d565b95610f56610f4491612956565b969050610f3b565b50508688868660018a14610f6e57005b600790846000526000875260006040812091816001840155820155838101888154169055858101888154169055600060068201550186815416905560005b84828216106111365750505090816011926000526000845260086040600020018054600082558061111b575b505080600052826040600020926000600a8501610ff881600988016129f2565b611006600b870180926129f2565b611014600c870180926129f2565b55600f60018060a01b0394858382015460081c1660005201865260406000208781541690558260005260008652600f604060002085611055600d83016129bb565b5054166000520186526040600020878154169055826000526000865260106040600020858382015460081c166000520186526040600020878154169055826000526000865260106040600020856110ae600d83016129bb565b505416600052018652604060002087815416905582600052600086528360406000209182015460081c16600052018452604060002085815416905560005260008352604060002090611102600d83016129bb565b5054166000520190526040600020908154169055600080f35b61112f9160005285600020908101906129f2565b8580610fd8565b611160908460005260008752611150816040600020612c61565b84825491871b1b19169055612b84565b610fac565b50836000526000815281836040600020015416600b811015610d3d57600914610eb0565b50836000526000815281836040600020015416600b811015610d3d57600714610ea9565b50836000526000815281836040600020015416600b811015610d3d578314610ea2565b34610a52576020366003190112610a52576004356000526000602052610120604060002060018101549060028101549060ff600382015416600482015460058301549060068401549260ff600d81600788015416960154169560405197885260208801526040870152606086015261124e6080860160ff831661278e565b60081c6001600160a01b031660a085015260c084015260e0830152610100820152f35b34610a52576000366003190112610a5257602060405161012c8152f35b34610a52576000366003190112610a52576020600154604051908152f35b34610a52576020366003190112610a5257600435600052600060205260406000206112d561271a565b90600580835260a0366020850137600b60009201915b60ff8082169083821015611326579061131b839261130c6113219588612c61565b90549060031b1c169187612c4d565b52612b84565b6112eb565b6040516020808252819061133c908201896127b1565b0390f35b34610a52576020366003190112610a52576001600160a01b0361136161279b565b1660005260036020526020604060002054604051908152f35b34610a52576020366003190112610a5257602061139d61139861279b565b612e3a565b6040519015158152f35b34610a52576020366003190112610a5257600435600052600060205260406000206113d061271a565b90600580835260a036602085013760005b60ff8082169083821015611326579061131b839261130c6114029588612c61565b6113e1565b34610a52576020366003190112610a5257600435600052600060205260406000206114306126fa565b600280825260403660208401376114456126fa565b9281845260403660208601376009810190600a0160005b60ff80821690858210156114af579061131b82849361147e6114aa9689612d6e565b919054600392831b1c16611492858c612c4d565b5261149d8588612d6e565b9054911b1c169189612c4d565b61145c565b6114cb8761133c8a6040519384936040855260408501906127b1565b9083820360208501526127b1565b34610a52576020366003190112610a525760043560005260006020526020600d60406000200154604051908152f35b34610a52576020366003190112610a5257602061139d61152661279b565b612a09565b34610a52576020366003190112610a525761133c61154a600435612d87565b6040519182916020835260208301906127b1565b34610a52576000366003190112610a5257602060405160028152f35b34610a52576106a0366003190112610a5257600435366106a411610a52576115a46101d033612a09565b3360005260036020526115bd8160406000205414612acb565b80600052600060205260ff60056040600020015416600b811015610d3d577faaae52e5b91cca7d2229253616739be98ccf73573c2ff08217c0277f4266a9cf9161160c60026103449314612b0a565b80600052600060205261163460018060a01b0360056040600020015460081c16331415612b44565b60008181526020818152604091829020600581018054600360ff1991821681179092559101805490911660011790558151928352339083015290918291820190565b34610a52576060366003190112610a52573660231215610a525761169861273a565b604481368211610a52576004905b8282106118c257506001600160a01b0392823592915083831690818403610a5257336000526020936003855260406000205493841561188f57846000526000865260ff9360059785896040600020015416600b811015610d3d57600314918261186f575b821561181f575b5050156117e4575061172560039185612cc7565b0160009160005b86600282106117b95750505055816000526000835283604060002001541692600b841015610d3d576000610344936003600080516020612e7c8339815191529614821461179f5783825252604060002001805460ff191660041790555b6040805191825233602083015290918291820190565b83825252604060002001805460ff19166006179055611789565b6117db83958388600195965116919060ff809160031b9316831b921b19161790565b9401910161172c565b85742bb937b73390383430b9b29037b910383630bcb2b960591b6064926040519262461bcd60e51b8452600484015260156024840152820152fd5b909150866000526000885285896040600020015416600b811015610d3d576004149182611850575b50508880611711565b9091508660005260008852886040600020015460081c16148880611847565b9150866000526000885280896040600020015460081c168214159161170a565b856c4e6f7420696e20612067616d6560981b6064926040519262461bcd60e51b84526004840152600d6024840152820152fd5b602080916118cf84612780565b8152019101906116a6565b34610a52576020366003190112610a52576004356000526000602052610140604060002060018101549060ff600282015491816003820154166004820154600583015490600684015492600c6007860154950154966040519889526020890152604088015260608701526119536080870185831661278e565b600890811c6001600160a01b031660a087015260c086019190915281831660e08601521c16610100830152610120820152f35b602080600319360112610a52576004356119a26101d033612a09565b33600052600382526119ba8160406000205414612acb565b806000526000825260ff9160059280846040600020015416600b9081811015610d3d576003148015611d86575b8015611d63575b8015611d40575b6119fe90612c7a565b83600052600083526002604060002001543410611d0b578360005260008352600e6040600020013360005283526040600020611a3b348254612cba565b905583600052600083526001604060002001611a58348254612cba565b90558360005260008352816003604060002034600282015534600682015501541660018101809111611cf5578460005260008452600d604060002001548015611cdf578391061691846000526000845260406000206001600382019460ff19958187825416179055149081611c69575b50611af5575b600080516020612e9c833981519152606086866040519182523390820152346040820152a1005b84600052600084528086604060002001541682811015610d3d57600303611b665750509082916004600080516020612e9c8339815191529560609560005260008452604060002001918254161790555b81600052600081526000600660408220826002820155015590918480611ace565b84600052600084528086604060002001541682811015610d3d578603611bb95750509082916006600080516020612e9c833981519152956060956000526000845260406000200191825416179055611b45565b84600052600084528086604060002001541682811015610d3d57600703611c0d5750509082916008600080516020612e9c833981519152956060956000526000845260406000200191825416179055611b45565b6000858152808552604090208601541693929190841015610d3d57600080516020612e9c83398151915294600960609514611c4a575b5050611b45565b600a908460005260008452604060002001918254161790558480611c43565b9050600d8101805415611cc957600052600e60018060a01b039182876000205416600052018552600e604060002054918760005260008752604060002090611cb3600d83016129bb565b5054166000520185526040600020541487611ac8565b634e487b7160e01b600052603260045260246000fd5b634e487b7160e01b600052601260045260246000fd5b634e487b7160e01b600052601160045260246000fd5b60405162461bcd60e51b815260048101849052600d60248201526c10995d081d1bdbc81cdb585b1b609a1b6044820152606490fd5b5083600052600083528185604060002001541681811015610d3d576009146119f5565b5083600052600083528185604060002001541681811015610d3d576007146119ee565b5083600052600083528185604060002001541681811015610d3d5785146119e7565b34610a5257602080600319360112610a5257600435611dc96101d033612a09565b3360005260038252611de18160406000205414612acb565b8060005260008252600591611e0960018060a01b03846040600020015460081c163314612bbe565b816000526000815260ff80846040600020015416600b9081811015610d3d576004148015611fe6575b8015611fc3575b611e4290612bfd565b83600052600083528185604060002001541681811015610d3d57600403611ecf57509082917ffb937eef594c7d7bf4f31139d9e04e3b3408489824224ccb18e6583e1c11dd129460409460005260008352600360078660002083810160ff19948582541617905501918254161790555b8260005260008252600784600020015416908351928352820152a1005b83600052600083528185604060002001541681811015610d3d57600603611f4557509082917ffb937eef594c7d7bf4f31139d9e04e3b3408489824224ccb18e6583e1c11dd12946040946000526000835260046007866000209283019260ff199382858254161790550191825416179055611eb2565b92919082600052600082528085604060002001541693841015610d3d577ffb937eef594c7d7bf4f31139d9e04e3b3408489824224ccb18e6583e1c11dd1294600860409514611f95575b50611eb2565b8360005260008352846000209060078183019260ff1993600985825416179055019182541617905585611f8f565b5083600052600083528185604060002001541681811015610d3d57600814611e39565b5083600052600083528185604060002001541681811015610d3d57600614611e32565b34610a52576040366003190112610a5257600435602480359067ffffffffffffffff808311610a525736602384011215610a52578260040135908111610a525736828260051b85010111610a52576120636101d033612a09565b336000526020926003845261207e8560406000205414612acb565b846000526000845260ff6005604060002001541692600b84101561047b576120a96001809514612b0a565b85600052600085526120cf60018060a01b0360056040600020015460081c163314612bbe565b603483036121a9578560005260008552600860406000200191600160401b8411612194578254848455808510612177575b5001906000528360002060005b838110612166576000878152808752604090819020600501805460ff1916600217905580518881523360208201527feea5492b09b3cb556950c67035e9740a81f515a83d939dd9c7d039f4ddd7b7e29181908101610344565b82358282015591850191840161210d565b61218e9084600052858860002091820191016129f2565b87612100565b50634e487b7160e01b60009081526041600452fd5b8460116064926040519262461bcd60e51b8452600484015282015270496e76616c6964206465636b2073697a6560781b6044820152fd5b34610a5257610160366003190112610a52573660431215610a525761220361273a565b8036606411610a52576024905b606482106126e257823660831215610a525761222a61273a565b908160a492368411610a52576064905b8482106126ca5750503660c31215610a52576040519260a0840184811067ffffffffffffffff821117610cf05760405283903661014411610a5257905b61014482106126b257505061228e6101d033612a09565b3360005260036020526122a960043560406000205414612acb565b600435600052600060205260ff60056040600020015416600b811015610d3d5760026122d59114612b0a565b600435600052600060205261230060056040600020015460018060a01b039060081c16331415612b44565b600435600052600060205260346008604060002001540361266d5760005b600260ff821610156124475760008060005b603460ff8216106123af5750816123a7575b50156123565761235190612b84565b61231e565b60405162461bcd60e51b8152602060048201526024808201527f53656c6563746564206361726473206e6f7420696e20656e63727970746564206044820152636465636b60e01b6064820152608490fd5b905085612342565b600435600052600060205260ff6123cd826008604060002001612b95565b90549060031b1c1660ff6123e381871689612bad565b51161461243e575b600435600052600060205260ff612409826008604060002001612b95565b90549060031b1c1660ff61241f81871688612bad565b511614612435575b61243090612b84565b612330565b60019150612427565b600192506123eb565b50919060005b600560ff8216101561252f576000805b603460ff8216106124d257501561247c5761247790612b84565b61244d565b60405162461bcd60e51b815260206004820152602860248201527f53656c656374656420666c6f702063617264206e6f7420696e20656e63727970604482015267746564206465636b60c01b6064820152608490fd5b600435600052600060205260ff6124f0826008604060002001612b95565b90549060031b1c16600560ff85161015611cc95760ff611fe08560051b168701511614612526575b61252190612b84565b61245d565b60019150612518565b5091600435600052600060205260406000209260009060005b6002811061263f575050600984015560009060005b60028110612611575050600a83015560009060005b600581106125e3575050600b82015561014435600c820155600581018054600360ff1991821681179092559101805490911660011790556040805160043581523360208201527f0842dde5e856943f7a73420433e43ea971476948d651730cc213b609349014fb9181908101610344565b909160206126086001928460ff875116919060ff809160031b9316831b921b19161790565b93019101612572565b909160206126366001928460ff875116919060ff809160031b9316831b921b19161790565b9301910161255d565b909160206126646001928460ff875116919060ff809160031b9316831b921b19161790565b93019101612548565b60405162461bcd60e51b815260206004820152601b60248201527f4e6f20656e63727970746564206465636b20617661696c61626c6500000000006044820152606490fd5b602080916126bf84612780565b815201910190612277565b602080916126d784612780565b81520191019061223a565b602080916126ef84612780565b815201910190612210565b604051906060820182811067ffffffffffffffff821117610cf057604052565b6040519060c0820182811067ffffffffffffffff821117610cf057604052565b604051906040820182811067ffffffffffffffff821117610cf057604052565b6040519190601f01601f1916820167ffffffffffffffff811183821017610cf057604052565b359060ff82168203610a5257565b90600b821015610d3d5752565b600435906001600160a01b0382168203610a5257565b90815180825260208080930193019160005b8281106127d1575050505090565b8351855293810193928101926001016127c3565b34610a52576060366003190112610a525760043536606411610a525761280d6101d033612a09565b60003381526020916003835261282881604084205414612acb565b80825281835260ff928360056040852001541690600b82101561292a57936128536002809314612b0a565b82845283855261287760018060a01b03600560408720015460081c16331415612b44565b82845283855260408420916024908596865b8281106128ec57600a8601899055600586018054600360ff199182168117909255908701805490911660011790556040805188815233602082015289917f0842dde5e856943f7a73420433e43ea971476948d651730cc213b609349014fb91a180f35b909192939784359089821682036129265761291a6001928486939060ff809160031b9316831b921b19161790565b99950193929101612889565b8880fd5b634e487b7160e01b84526021600452602484fd5b67ffffffffffffffff8111610cf05760051b60200190565b6000198114611cf55760010190565b612970600154612956565b806001556000526000602052600560406000200160ff1981541690557fbd19c47e9925eb6f7be8bb1c13a841e0240aaeaf17f217e90022e9c8eb66877f6020600154604051908152a1565b805460011015611cc957600052600560206000200190600090565b8054821015611cc9576000526005602060002091020190600090565b8181106129fd575050565b600081556001016129f2565b6001600160a01b039081166000818152600360209081526040808320549492918515612a885790825b868452838352600d828520018054821015612a7d5785612a538389936129d6565b50541614612a7157600d92612a688592612956565b91509250612a32565b50505050505050600190565b505050509250505090565b50509250505090565b15612a9857565b60405162461bcd60e51b815260206004820152600b60248201526a4e6f7420696e2067616d6560a81b6044820152606490fd5b15612ad257565b60405162461bcd60e51b815260206004820152601060248201526f4e6f7420696e20746869732067616d6560801b6044820152606490fd5b15612b1157565b60405162461bcd60e51b815260206004820152600b60248201526a57726f6e6720706861736560a81b6044820152606490fd5b15612b4b57565b60405162461bcd60e51b81526020600482015260116024820152702737ba1039b2b1b7b73210383630bcb2b960791b6044820152606490fd5b60ff1660ff8114611cf55760010190565b8054821015611cc95760005260206000200190600090565b906002811015611cc95760051b0190565b15612bc557565b60405162461bcd60e51b815260206004820152601060248201526f2737ba103334b939ba10383630bcb2b960811b6044820152606490fd5b15612c0457565b60405162461bcd60e51b81526020600482015260146024820152734e6f742064656372797074696f6e20706861736560601b6044820152606490fd5b805115611cc95760200190565b8051821015611cc95760209160051b010190565b9190916005831015611cc957601f908360051c01921690565b15612c8157565b60405162461bcd60e51b81526020600482015260116024820152704e6f742062657474696e6720706861736560781b6044820152606490fd5b91908201809211611cf557565b909160005b82600052602060008152600d906040908282600020018054851015612d365784612cf5916129d6565b50546001600160a01b03888116911614612d1a57505050612d1590612956565b612ccc565b6000919293949650612d3295825252600020016129d6565b5090565b60405162461bcd60e51b815260206004820152601060248201526f141b185e595c881b9bdd08199bdd5b9960821b6044820152606490fd5b9190916002831015611cc957601f908360051c01921690565b906000918252816020526008604083200191825480612dde57506040519192506020820167ffffffffffffffff811183821017612dca5760405280825236813790565b634e487b7160e01b82526041600452602482fd5b612dea6101938261293e565b81815291601f19612dfa8361293e565b013660208501375b818110612e10575090925050565b80612e1e612e359287612b95565b90549060031b1c612e2f8286612c4d565b52612956565b612e02565b6001600160a01b039081166000818152600360205260408120549192918015612e745781604091600593528060205220015460081c161490565b509150509056fef03a84bf6acb8665499842a163a119675aa0d85c373f390994756715f3cadd36d4378ef4558c1e2a851456fb0106171f67cc4bc8abe3f27346a47cc6010a291da264697066735822122007458cb0beb8d1cc72c0c906f432315e01d1d67e130b3cb1cc9983f9ff0a021c64736f6c63430008130033",
  "linkReferences": {},
  "deployedLinkReferences": {}
}